{
  "_format": "hh-sol-artifact-1",
  "contractName": "FreelanceEscrow",
  "sourceName": "contracts/FreelancerEscrow.sol",
  "abi": [
    {
      "inputs": [],
      "name": "AlreadyRated",
      "type": "error"
    },
    {
      "inputs": [],
      "name": "AlreadyRevealed",
      "type": "error"
    },
    {
      "inputs": [],
      "name": "CannotHireYourself",
      "type": "error"
    },
    {
      "inputs": [],
      "name": "CommitNotFound",
      "type": "error"
    },
    {
      "inputs": [],
      "name": "FreelancerCannotCancelSubmitted",
      "type": "error"
    },
    {
      "inputs": [],
      "name": "IncorrectETH",
      "type": "error"
    },
    {
      "inputs": [],
      "name": "InsufficientStake",
      "type": "error"
    },
    {
      "inputs": [],
      "name": "InvalidJob",
      "type": "error"
    },
    {
      "inputs": [],
      "name": "InvalidJobState",
      "type": "error"
    },
    {
      "inputs": [],
      "name": "InvalidReveal",
      "type": "error"
    },
    {
      "inputs": [],
      "name": "InvalidScore",
      "type": "error"
    },
    {
      "inputs": [],
      "name": "InvalidService",
      "type": "error"
    },
    {
      "inputs": [],
      "name": "JobNotCancelled",
      "type": "error"
    },
    {
      "inputs": [],
      "name": "JobNotCompleted",
      "type": "error"
    },
    {
      "inputs": [],
      "name": "MetadataCidRequired",
      "type": "error"
    },
    {
      "inputs": [],
      "name": "NotAllowed",
      "type": "error"
    },
    {
      "inputs": [],
      "name": "NotReviewer",
      "type": "error"
    },
    {
      "inputs": [],
      "name": "NotSubmitted",
      "type": "error"
    },
    {
      "inputs": [],
      "name": "OnlyClient",
      "type": "error"
    },
    {
      "inputs": [],
      "name": "OnlyFreelancer",
      "type": "error"
    },
    {
      "inputs": [],
      "name": "PriceMustBePositive",
      "type": "error"
    },
    {
      "inputs": [],
      "name": "ReentrancyGuardReentrantCall",
      "type": "error"
    },
    {
      "inputs": [],
      "name": "ReviewWindowNotClosed",
      "type": "error"
    },
    {
      "inputs": [],
      "name": "ServiceNotAvailable",
      "type": "error"
    },
    {
      "inputs": [],
      "name": "TokenUsed",
      "type": "error"
    },
    {
      "inputs": [],
      "name": "TooEarlyForAutoRelease",
      "type": "error"
    },
    {
      "inputs": [],
      "name": "TransferFailed",
      "type": "error"
    },
    {
      "inputs": [],
      "name": "WorkCidRequired",
      "type": "error"
    },
    {
      "inputs": [],
      "name": "WorkNotSubmitted",
      "type": "error"
    },
    {
      "anonymous": false,
      "inputs": [
        {
          "indexed": true,
          "internalType": "address",
          "name": "reviewer",
          "type": "address"
        },
        {
          "indexed": true,
          "internalType": "address",
          "name": "reviewee",
          "type": "address"
        },
        {
          "indexed": false,
          "internalType": "uint256",
          "name": "score",
          "type": "uint256"
        },
        {
          "indexed": false,
          "internalType": "uint256",
          "name": "weight",
          "type": "uint256"
        }
      ],
      "name": "FeedbackApplied",
      "type": "event"
    },
    {
      "anonymous": false,
      "inputs": [
        {
          "indexed": true,
          "internalType": "address",
          "name": "reviewer",
          "type": "address"
        },
        {
          "indexed": false,
          "internalType": "uint256",
          "name": "jobId",
          "type": "uint256"
        }
      ],
      "name": "FeedbackSubmitted",
      "type": "event"
    },
    {
      "anonymous": false,
      "inputs": [
        {
          "indexed": true,
          "internalType": "uint256",
          "name": "tokenId",
          "type": "uint256"
        },
        {
          "indexed": false,
          "internalType": "address",
          "name": "reviewer",
          "type": "address"
        },
        {
          "indexed": false,
          "internalType": "address",
          "name": "reviewee",
          "type": "address"
        }
      ],
      "name": "FeedbackTokenIssued",
      "type": "event"
    },
    {
      "anonymous": false,
      "inputs": [
        {
          "indexed": true,
          "internalType": "uint32",
          "name": "jobId",
          "type": "uint32"
        }
      ],
      "name": "JobCancelled",
      "type": "event"
    },
    {
      "anonymous": false,
      "inputs": [
        {
          "indexed": true,
          "internalType": "uint32",
          "name": "jobId",
          "type": "uint32"
        }
      ],
      "name": "JobCompleted",
      "type": "event"
    },
    {
      "anonymous": false,
      "inputs": [
        {
          "indexed": true,
          "internalType": "uint32",
          "name": "jobId",
          "type": "uint32"
        }
      ],
      "name": "JobCreated",
      "type": "event"
    },
    {
      "anonymous": false,
      "inputs": [
        {
          "indexed": true,
          "internalType": "uint32",
          "name": "serviceId",
          "type": "uint32"
        },
        {
          "indexed": false,
          "internalType": "bytes32",
          "name": "metadataCid",
          "type": "bytes32"
        }
      ],
      "name": "ServiceListed",
      "type": "event"
    },
    {
      "anonymous": false,
      "inputs": [
        {
          "indexed": true,
          "internalType": "address",
          "name": "user",
          "type": "address"
        },
        {
          "indexed": false,
          "internalType": "uint256",
          "name": "amount",
          "type": "uint256"
        }
      ],
      "name": "StakeDeposited",
      "type": "event"
    },
    {
      "anonymous": false,
      "inputs": [
        {
          "indexed": true,
          "internalType": "uint32",
          "name": "jobId",
          "type": "uint32"
        }
      ],
      "name": "WorkCleared",
      "type": "event"
    },
    {
      "anonymous": false,
      "inputs": [
        {
          "indexed": true,
          "internalType": "uint32",
          "name": "jobId",
          "type": "uint32"
        },
        {
          "indexed": false,
          "internalType": "bytes32",
          "name": "workCid",
          "type": "bytes32"
        }
      ],
      "name": "WorkSubmitted",
      "type": "event"
    },
    {
      "inputs": [],
      "name": "MIN_STAKE",
      "outputs": [
        {
          "internalType": "uint256",
          "name": "",
          "type": "uint256"
        }
      ],
      "stateMutability": "view",
      "type": "function"
    },
    {
      "inputs": [
        {
          "internalType": "uint32",
          "name": "_jobId",
          "type": "uint32"
        }
      ],
      "name": "autoRelease",
      "outputs": [],
      "stateMutability": "nonpayable",
      "type": "function"
    },
    {
      "inputs": [
        {
          "internalType": "uint32",
          "name": "_jobId",
          "type": "uint32"
        }
      ],
      "name": "cancelJob",
      "outputs": [],
      "stateMutability": "nonpayable",
      "type": "function"
    },
    {
      "inputs": [
        {
          "internalType": "uint32",
          "name": "_jobId",
          "type": "uint32"
        }
      ],
      "name": "clearWork",
      "outputs": [],
      "stateMutability": "nonpayable",
      "type": "function"
    },
    {
      "inputs": [
        {
          "internalType": "address",
          "name": "",
          "type": "address"
        }
      ],
      "name": "clientRep",
      "outputs": [
        {
          "internalType": "uint256",
          "name": "weightedScoreSum",
          "type": "uint256"
        },
        {
          "internalType": "uint256",
          "name": "weightSum",
          "type": "uint256"
        },
        {
          "internalType": "uint128",
          "name": "totalJobs",
          "type": "uint128"
        }
      ],
      "stateMutability": "view",
      "type": "function"
    },
    {
      "inputs": [
        {
          "internalType": "uint256",
          "name": "",
          "type": "uint256"
        },
        {
          "internalType": "address",
          "name": "",
          "type": "address"
        }
      ],
      "name": "commits",
      "outputs": [
        {
          "internalType": "bytes32",
          "name": "hash",
          "type": "bytes32"
        },
        {
          "internalType": "bool",
          "name": "revealed",
          "type": "bool"
        }
      ],
      "stateMutability": "view",
      "type": "function"
    },
    {
      "inputs": [
        {
          "internalType": "uint32",
          "name": "_jobId",
          "type": "uint32"
        }
      ],
      "name": "confirmCompletion",
      "outputs": [],
      "stateMutability": "nonpayable",
      "type": "function"
    },
    {
      "inputs": [],
      "name": "depositStake",
      "outputs": [],
      "stateMutability": "payable",
      "type": "function"
    },
    {
      "inputs": [
        {
          "internalType": "uint32",
          "name": "_jobId",
          "type": "uint32"
        }
      ],
      "name": "finalizeReview",
      "outputs": [],
      "stateMutability": "nonpayable",
      "type": "function"
    },
    {
      "inputs": [
        {
          "internalType": "address",
          "name": "",
          "type": "address"
        }
      ],
      "name": "freelancerRep",
      "outputs": [
        {
          "internalType": "uint256",
          "name": "weightedScoreSum",
          "type": "uint256"
        },
        {
          "internalType": "uint256",
          "name": "weightSum",
          "type": "uint256"
        },
        {
          "internalType": "uint128",
          "name": "totalJobs",
          "type": "uint128"
        }
      ],
      "stateMutability": "view",
      "type": "function"
    },
    {
      "inputs": [
        {
          "internalType": "address",
          "name": "_client",
          "type": "address"
        }
      ],
      "name": "getClientReputation",
      "outputs": [
        {
          "internalType": "uint256",
          "name": "avgScoreScaled",
          "type": "uint256"
        },
        {
          "internalType": "uint256",
          "name": "totalWeight",
          "type": "uint256"
        },
        {
          "internalType": "uint128",
          "name": "totalJobs",
          "type": "uint128"
        }
      ],
      "stateMutability": "view",
      "type": "function"
    },
    {
      "inputs": [
        {
          "internalType": "address",
          "name": "_freelancer",
          "type": "address"
        }
      ],
      "name": "getFreelancerReputation",
      "outputs": [
        {
          "internalType": "uint256",
          "name": "avgScoreScaled",
          "type": "uint256"
        },
        {
          "internalType": "uint256",
          "name": "totalWeight",
          "type": "uint256"
        },
        {
          "internalType": "uint128",
          "name": "totalJobs",
          "type": "uint128"
        }
      ],
      "stateMutability": "view",
      "type": "function"
    },
    {
      "inputs": [
        {
          "internalType": "uint32",
          "name": "_id",
          "type": "uint32"
        }
      ],
      "name": "getJob",
      "outputs": [
        {
          "components": [
            {
              "internalType": "address payable",
              "name": "client",
              "type": "address"
            },
            {
              "internalType": "uint32",
              "name": "serviceId",
              "type": "uint32"
            },
            {
              "internalType": "enum FreelanceEscrow.JobStatus",
              "name": "status",
              "type": "uint8"
            },
            {
              "internalType": "uint128",
              "name": "amount",
              "type": "uint128"
            },
            {
              "internalType": "uint64",
              "name": "deadline",
              "type": "uint64"
            },
            {
              "internalType": "uint64",
              "name": "submittedAt",
              "type": "uint64"
            },
            {
              "internalType": "bytes32",
              "name": "workCid",
              "type": "bytes32"
            }
          ],
          "internalType": "struct FreelanceEscrow.Job",
          "name": "",
          "type": "tuple"
        }
      ],
      "stateMutability": "view",
      "type": "function"
    },
    {
      "inputs": [
        {
          "internalType": "uint32",
          "name": "_jobId",
          "type": "uint32"
        }
      ],
      "name": "getJobTokens",
      "outputs": [
        {
          "internalType": "uint256",
          "name": "clientToken",
          "type": "uint256"
        },
        {
          "internalType": "uint256",
          "name": "freelancerToken",
          "type": "uint256"
        }
      ],
      "stateMutability": "view",
      "type": "function"
    },
    {
      "inputs": [
        {
          "internalType": "uint32",
          "name": "_id",
          "type": "uint32"
        }
      ],
      "name": "getService",
      "outputs": [
        {
          "components": [
            {
              "internalType": "address payable",
              "name": "freelancer",
              "type": "address"
            },
            {
              "internalType": "enum FreelanceEscrow.ServiceStatus",
              "name": "status",
              "type": "uint8"
            },
            {
              "internalType": "uint88",
              "name": "priceWei",
              "type": "uint88"
            },
            {
              "internalType": "bytes32",
              "name": "metadataCid",
              "type": "bytes32"
            }
          ],
          "internalType": "struct FreelanceEscrow.Service",
          "name": "",
          "type": "tuple"
        }
      ],
      "stateMutability": "view",
      "type": "function"
    },
    {
      "inputs": [
        {
          "internalType": "uint32",
          "name": "_serviceId",
          "type": "uint32"
        }
      ],
      "name": "hireFreelancer",
      "outputs": [],
      "stateMutability": "payable",
      "type": "function"
    },
    {
      "inputs": [],
      "name": "jobCount",
      "outputs": [
        {
          "internalType": "uint32",
          "name": "",
          "type": "uint32"
        }
      ],
      "stateMutability": "view",
      "type": "function"
    },
    {
      "inputs": [
        {
          "internalType": "uint256",
          "name": "",
          "type": "uint256"
        },
        {
          "internalType": "uint256",
          "name": "",
          "type": "uint256"
        }
      ],
      "name": "jobTokens",
      "outputs": [
        {
          "internalType": "uint256",
          "name": "",
          "type": "uint256"
        }
      ],
      "stateMutability": "view",
      "type": "function"
    },
    {
      "inputs": [
        {
          "internalType": "uint32",
          "name": "",
          "type": "uint32"
        }
      ],
      "name": "jobs",
      "outputs": [
        {
          "internalType": "address payable",
          "name": "client",
          "type": "address"
        },
        {
          "internalType": "uint32",
          "name": "serviceId",
          "type": "uint32"
        },
        {
          "internalType": "enum FreelanceEscrow.JobStatus",
          "name": "status",
          "type": "uint8"
        },
        {
          "internalType": "uint128",
          "name": "amount",
          "type": "uint128"
        },
        {
          "internalType": "uint64",
          "name": "deadline",
          "type": "uint64"
        },
        {
          "internalType": "uint64",
          "name": "submittedAt",
          "type": "uint64"
        },
        {
          "internalType": "bytes32",
          "name": "workCid",
          "type": "bytes32"
        }
      ],
      "stateMutability": "view",
      "type": "function"
    },
    {
      "inputs": [
        {
          "internalType": "uint88",
          "name": "_priceWei",
          "type": "uint88"
        },
        {
          "internalType": "bytes32",
          "name": "_metadataCid",
          "type": "bytes32"
        }
      ],
      "name": "offerService",
      "outputs": [],
      "stateMutability": "nonpayable",
      "type": "function"
    },
    {
      "inputs": [],
      "name": "serviceCount",
      "outputs": [
        {
          "internalType": "uint32",
          "name": "",
          "type": "uint32"
        }
      ],
      "stateMutability": "view",
      "type": "function"
    },
    {
      "inputs": [
        {
          "internalType": "uint32",
          "name": "",
          "type": "uint32"
        }
      ],
      "name": "services",
      "outputs": [
        {
          "internalType": "address payable",
          "name": "freelancer",
          "type": "address"
        },
        {
          "internalType": "enum FreelanceEscrow.ServiceStatus",
          "name": "status",
          "type": "uint8"
        },
        {
          "internalType": "uint88",
          "name": "priceWei",
          "type": "uint88"
        },
        {
          "internalType": "bytes32",
          "name": "metadataCid",
          "type": "bytes32"
        }
      ],
      "stateMutability": "view",
      "type": "function"
    },
    {
      "inputs": [
        {
          "internalType": "address",
          "name": "",
          "type": "address"
        }
      ],
      "name": "stakes",
      "outputs": [
        {
          "internalType": "uint256",
          "name": "",
          "type": "uint256"
        }
      ],
      "stateMutability": "view",
      "type": "function"
    },
    {
      "inputs": [
        {
          "internalType": "uint256",
          "name": "_tokenId",
          "type": "uint256"
        },
        {
          "internalType": "uint8",
          "name": "_score",
          "type": "uint8"
        }
      ],
      "name": "submitFeedback",
      "outputs": [],
      "stateMutability": "nonpayable",
      "type": "function"
    },
    {
      "inputs": [
        {
          "internalType": "uint32",
          "name": "_jobId",
          "type": "uint32"
        },
        {
          "internalType": "bytes32",
          "name": "_workCid",
          "type": "bytes32"
        }
      ],
      "name": "submitWork",
      "outputs": [],
      "stateMutability": "nonpayable",
      "type": "function"
    },
    {
      "inputs": [],
      "name": "tokenCount",
      "outputs": [
        {
          "internalType": "uint256",
          "name": "",
          "type": "uint256"
        }
      ],
      "stateMutability": "view",
      "type": "function"
    },
    {
      "inputs": [
        {
          "internalType": "uint256",
          "name": "",
          "type": "uint256"
        }
      ],
      "name": "tokens",
      "outputs": [
        {
          "internalType": "uint32",
          "name": "jobId",
          "type": "uint32"
        },
        {
          "internalType": "address",
          "name": "reviewer",
          "type": "address"
        },
        {
          "internalType": "address",
          "name": "reviewee",
          "type": "address"
        },
        {
          "internalType": "bool",
          "name": "used",
          "type": "bool"
        },
        {
          "internalType": "bool",
          "name": "applied",
          "type": "bool"
        },
        {
          "internalType": "uint64",
          "name": "reviewedAt",
          "type": "uint64"
        },
        {
          "internalType": "uint8",
          "name": "score",
          "type": "uint8"
        },
        {
          "internalType": "uint256",
          "name": "expiry",
          "type": "uint256"
        }
      ],
      "stateMutability": "view",
      "type": "function"
    }
  ],
  "bytecode": "0x6080604052348015600f57600080fd5b506001602a6020603560201b60201c565b606060201b60201c565b60000181905550606a565b60007f9b779b17422d0df92223018b32b4d1fa46e071723d6817e2486d003becc55f0060001b905090565b6000819050919050565b61434e806100796000396000f3fe60806040526004361061019c5760003560e01c80636b2bb0c3116100ec578063c0fdb0e91161008a578063deb8e12a11610064578063deb8e12a14610621578063e21e6da01461064a578063fba0471a14610687578063fbdf715b146106c55761019c565b8063c0fdb0e91461057a578063c60f3e39146105b9578063cb1c2b5c146105f65761019c565b8063980d871d116100c6578063980d871d146104ba5780639f181b5e146104e3578063a85f50291461050e578063b703a853146105515761019c565b80636b2bb0c314610416578063885d68a8146104535780638eb533ef146104915761019c565b806323735124116101595780634c5d8a0f116101335780634c5d8a0f146103625780634f64b2be1461038d57806351a119cd146103d15780636040b14d146103ed5761019c565b806323735124146102d0578063247ed1aa146102f95780632a84f72f146103395761019c565b806304199ee7146101a157806306237526146101e05780630d2d76a21461020b57806316934fc4146102155780631efb3ba414610252578063211997ac14610291575b600080fd5b3480156101ad57600080fd5b506101c860048036038101906101c3919061377e565b6106ee565b6040516101d7939291906137ef565b60405180910390f35b3480156101ec57600080fd5b506101f56107f4565b6040516102029190613845565b60405180910390f35b610213610808565b005b34801561022157600080fd5b5061023c6004803603810190610237919061377e565b6108ef565b6040516102499190613860565b60405180910390f35b34801561025e57600080fd5b506102796004803603810190610274919061377e565b610907565b604051610288939291906137ef565b60405180910390f35b34801561029d57600080fd5b506102b860048036038101906102b3919061377e565b610a0d565b6040516102c7939291906137ef565b60405180910390f35b3480156102dc57600080fd5b506102f760048036038101906102f291906138a7565b610a53565b005b34801561030557600080fd5b50610320600480360381019061031b91906138a7565b610b1b565b60405161033094939291906139ab565b60405180910390f35b34801561034557600080fd5b50610360600480360381019061035b9190613a55565b610b8f565b005b34801561036e57600080fd5b50610377610e5a565b6040516103849190613845565b60405180910390f35b34801561039957600080fd5b506103b460048036038101906103af9190613a95565b610e70565b6040516103c8989796959493929190613b1e565b60405180910390f35b6103eb60048036038101906103e691906138a7565b610f43565b005b3480156103f957600080fd5b50610414600480360381019061040f91906138a7565b6113fd565b005b34801561042257600080fd5b5061043d60048036038101906104389190613b9c565b611592565b60405161044a9190613860565b60405180910390f35b34801561045f57600080fd5b5061047a60048036038101906104759190613bdc565b6115ba565b604051610488929190613c1c565b60405180910390f35b34801561049d57600080fd5b506104b860048036038101906104b391906138a7565b6115f8565b005b3480156104c657600080fd5b506104e160048036038101906104dc9190613c9d565b6119fa565b005b3480156104ef57600080fd5b506104f8611c2d565b6040516105059190613860565b60405180910390f35b34801561051a57600080fd5b50610535600480360381019061053091906138a7565b611c33565b6040516105489796959493929190613d25565b60405180910390f35b34801561055d57600080fd5b50610578600480360381019061057391906138a7565b611cf6565b005b34801561058657600080fd5b506105a1600480360381019061059c919061377e565b611f7d565b6040516105b0939291906137ef565b60405180910390f35b3480156105c557600080fd5b506105e060048036038101906105db91906138a7565b611fc3565b6040516105ed9190613e25565b60405180910390f35b34801561060257600080fd5b5061060b6120d2565b6040516106189190613860565b60405180910390f35b34801561062d57600080fd5b5061064860048036038101906106439190613e40565b6120dd565b005b34801561065657600080fd5b50610671600480360381019061066c91906138a7565b612310565b60405161067e9190613f4a565b60405180910390f35b34801561069357600080fd5b506106ae60048036038101906106a991906138a7565b6124b8565b6040516106bc929190613f65565b60405180910390f35b3480156106d157600080fd5b506106ec60048036038101906106e791906138a7565b612520565b005b600080600080600460008673ffffffffffffffffffffffffffffffffffffffff1673ffffffffffffffffffffffffffffffffffffffff16815260200190815260200160002060405180606001604052908160008201548152602001600182015481526020016002820160009054906101000a90046fffffffffffffffffffffffffffffffff166fffffffffffffffffffffffffffffffff166fffffffffffffffffffffffffffffffff1681525050905060008160200151036107bb576000806000935093509350506107ed565b8060200151606482600001516107d19190613fbd565b6107db919061402e565b81602001518260400151935093509350505b9193909250565b60008054906101000a900463ffffffff1681565b66b1a2bc2ec50000341015610849576040517ff1bc94d200000000000000000000000000000000000000000000000000000000815260040160405180910390fd5b34600960003373ffffffffffffffffffffffffffffffffffffffff1673ffffffffffffffffffffffffffffffffffffffff1681526020019081526020016000206000828254610898919061405f565b925050819055503373ffffffffffffffffffffffffffffffffffffffff167f0a7bb2e28cc4698aac06db79cf9163bfcc20719286cf59fa7d492ceda1b8edc2346040516108e59190613860565b60405180910390a2565b60096020528060005260406000206000915090505481565b600080600080600560008673ffffffffffffffffffffffffffffffffffffffff1673ffffffffffffffffffffffffffffffffffffffff16815260200190815260200160002060405180606001604052908160008201548152602001600182015481526020016002820160009054906101000a90046fffffffffffffffffffffffffffffffff166fffffffffffffffffffffffffffffffff166fffffffffffffffffffffffffffffffff1681525050905060008160200151036109d457600080600093509350935050610a06565b8060200151606482600001516109ea9190613fbd565b6109f4919061402e565b81602001518260400151935093509350505b9193909250565b60056020528060005260406000206000915090508060000154908060010154908060020160009054906101000a90046fffffffffffffffffffffffffffffffff16905083565b6000600760008363ffffffff168152602001908152602001600020905060006006600083600060028110610a8a57610a89614093565b5b0154815260200190815260200160002090508060020154421015610ada576040517ffe2495d500000000000000000000000000000000000000000000000000000000815260040160405180910390fd5b610af882600060028110610af157610af0614093565b5b01546127c7565b610b1682600160028110610b0f57610b0e614093565b5b01546127c7565b505050565b60026020528060005260406000206000915090508060000160009054906101000a900473ffffffffffffffffffffffffffffffffffffffff16908060000160149054906101000a900460ff16908060000160159054906101000a90046affffffffffffffffffffff16908060010154905084565b60006006600084815260200190815260200160002090508060000160049054906101000a900473ffffffffffffffffffffffffffffffffffffffff1673ffffffffffffffffffffffffffffffffffffffff163373ffffffffffffffffffffffffffffffffffffffff1614610c2f576040517f6fb5ffbc00000000000000000000000000000000000000000000000000000000815260040160405180910390fd5b8060010160149054906101000a900460ff1615610c78576040517f7f59bede00000000000000000000000000000000000000000000000000000000815260040160405180910390fd5b60018260ff161080610c8d575060058260ff16115b15610cc4576040517f1556136500000000000000000000000000000000000000000000000000000000815260040160405180910390fd5b610ccd33612e19565b8181600101601e6101000a81548160ff021916908360ff16021790555060018160010160146101000a81548160ff021916908315150217905550428160010160166101000a81548167ffffffffffffffff021916908367ffffffffffffffff1602179055503373ffffffffffffffffffffffffffffffffffffffff167f3494da8299378c89270f3c8834caa828238425ae6ec329b573eb123c948e9d7d8260000160009054906101000a900463ffffffff16604051610d8c91906140fd565b60405180910390a26000600760008360000160009054906101000a900463ffffffff1663ffffffff168152602001908152602001600020905060008482600060028110610ddc57610ddb614093565b5b015414610dfe5781600060028110610df757610df6614093565b5b0154610e15565b81600160028110610e1257610e11614093565b5b01545b90506006600082815260200190815260200160002060010160149054906101000a900460ff1615610e5357610e49856127c7565b610e52816127c7565b5b5050505050565b600060049054906101000a900463ffffffff1681565b60066020528060005260406000206000915090508060000160009054906101000a900463ffffffff16908060000160049054906101000a900473ffffffffffffffffffffffffffffffffffffffff16908060010160009054906101000a900473ffffffffffffffffffffffffffffffffffffffff16908060010160149054906101000a900460ff16908060010160159054906101000a900460ff16908060010160169054906101000a900467ffffffffffffffff169080600101601e9054906101000a900460ff16908060020154905088565b610f4b612e9c565b6000600260008363ffffffff1663ffffffff1681526020019081526020016000209050600073ffffffffffffffffffffffffffffffffffffffff168160000160009054906101000a900473ffffffffffffffffffffffffffffffffffffffff1673ffffffffffffffffffffffffffffffffffffffff1603610ff8576040517f8957d2fa00000000000000000000000000000000000000000000000000000000815260040160405180910390fd5b6000600381111561100c5761100b6138f5565b5b8160000160149054906101000a900460ff1660038111156110305761102f6138f5565b5b14611067576040517f5857de5800000000000000000000000000000000000000000000000000000000815260040160405180910390fd5b8060000160159054906101000a90046affffffffffffffffffffff166affffffffffffffffffffff1634146110c8576040517fd183fe4300000000000000000000000000000000000000000000000000000000815260040160405180910390fd5b8060000160009054906101000a900473ffffffffffffffffffffffffffffffffffffffff1673ffffffffffffffffffffffffffffffffffffffff163373ffffffffffffffffffffffffffffffffffffffff1603611151576040517f3377569700000000000000000000000000000000000000000000000000000000815260040160405180910390fd5b600080600481819054906101000a900463ffffffff1661117090614118565b91906101000a81548163ffffffff021916908363ffffffff160217905590506040518060e001604052803373ffffffffffffffffffffffffffffffffffffffff1681526020018463ffffffff168152602001600060038111156111d6576111d56138f5565b5b8152602001346fffffffffffffffffffffffffffffffff16815260200162093a8042611202919061405f565b67ffffffffffffffff168152602001600067ffffffffffffffff1681526020016000801b815250600360008363ffffffff1663ffffffff16815260200190815260200160002060008201518160000160006101000a81548173ffffffffffffffffffffffffffffffffffffffff021916908373ffffffffffffffffffffffffffffffffffffffff16021790555060208201518160000160146101000a81548163ffffffff021916908363ffffffff16021790555060408201518160000160186101000a81548160ff021916908360038111156112e1576112e06138f5565b5b021790555060608201518160010160006101000a8154816fffffffffffffffffffffffffffffffff02191690836fffffffffffffffffffffffffffffffff16021790555060808201518160010160106101000a81548167ffffffffffffffff021916908367ffffffffffffffff16021790555060a08201518160010160186101000a81548167ffffffffffffffff021916908367ffffffffffffffff16021790555060c0820151816002015590505060018260000160146101000a81548160ff021916908360038111156113b8576113b76138f5565b5b02179055508063ffffffff167f9a6364067673fbbe84fe5265fd47f18424db0db1cf0bc6f4989ef6a17d92dc0560405160405180910390a250506113fa612ebf565b50565b6000600360008363ffffffff1663ffffffff16815260200190815260200160002090506000600260008360000160149054906101000a900463ffffffff1663ffffffff1663ffffffff16815260200190815260200160002090508060000160009054906101000a900473ffffffffffffffffffffffffffffffffffffffff1673ffffffffffffffffffffffffffffffffffffffff163373ffffffffffffffffffffffffffffffffffffffff16146114e0576040517f6b7809b900000000000000000000000000000000000000000000000000000000815260040160405180910390fd5b6003808111156114f3576114f26138f5565b5b8260000160189054906101000a900460ff166003811115611517576115166138f5565b5b1461154e576040517f1f3b5f9300000000000000000000000000000000000000000000000000000000815260040160405180910390fd5b6000801b82600201819055508263ffffffff167f4dd9e91265ab49336afbb9eab0fdc5b4a36e65a6cdd5e19a93ab44565d6ebfc960405160405180910390a2505050565b600760205281600052604060002081600281106115ae57600080fd5b01600091509150505481565b6008602052816000526040600020602052806000526040600020600091509150508060000154908060010160009054906101000a900460ff16905082565b611600612e9c565b6000600360008363ffffffff1663ffffffff16815260200190815260200160002090506000600260008360000160149054906101000a900463ffffffff1663ffffffff1663ffffffff16815260200190815260200160002090506000600381111561166e5761166d6138f5565b5b8260000160189054906101000a900460ff166003811115611692576116916138f5565b5b141580156116d65750600160038111156116af576116ae6138f5565b5b8260000160189054906101000a900460ff1660038111156116d3576116d26138f5565b5b14155b1561170d576040517f71c8f46000000000000000000000000000000000000000000000000000000000815260040160405180910390fd5b60008260010160109054906101000a900467ffffffffffffffff1667ffffffffffffffff16421190506001600381111561174a576117496138f5565b5b8360000160189054906101000a900460ff16600381111561176e5761176d6138f5565b5b0361180d578260000160009054906101000a900473ffffffffffffffffffffffffffffffffffffffff1673ffffffffffffffffffffffffffffffffffffffff163373ffffffffffffffffffffffffffffffffffffffff16141580156117d1575080155b15611808576040517fb29ba3b900000000000000000000000000000000000000000000000000000000815260040160405180910390fd5b6118ff565b8260000160009054906101000a900473ffffffffffffffffffffffffffffffffffffffff1673ffffffffffffffffffffffffffffffffffffffff163373ffffffffffffffffffffffffffffffffffffffff16141580156118bd57508160000160009054906101000a900473ffffffffffffffffffffffffffffffffffffffff1673ffffffffffffffffffffffffffffffffffffffff163373ffffffffffffffffffffffffffffffffffffffff1614155b80156118c7575080155b156118fe576040517f3d693ada00000000000000000000000000000000000000000000000000000000815260040160405180910390fd5b5b60038360000160186101000a81548160ff02191690836003811115611927576119266138f5565b5b021790555060038260000160146101000a81548160ff02191690836003811115611954576119536138f5565b5b02179055506119b98360000160009054906101000a900473ffffffffffffffffffffffffffffffffffffffff168460010160009054906101000a90046fffffffffffffffffffffffffffffffff166fffffffffffffffffffffffffffffffff16612eda565b8363ffffffff167fa6a2eb5c45aee3821a738c1beb0dade684d1189539bab9d4f634c00de2449e7a60405160405180910390a25050506119f7612ebf565b50565b6000826affffffffffffffffffffff1603611a41576040517f1d25a35500000000000000000000000000000000000000000000000000000000815260040160405180910390fd5b6000801b8103611a7d576040517f835103a300000000000000000000000000000000000000000000000000000000815260040160405180910390fd5b600080600081819054906101000a900463ffffffff16611a9c90614118565b91906101000a81548163ffffffff021916908363ffffffff1602179055905060405180608001604052803373ffffffffffffffffffffffffffffffffffffffff16815260200160006003811115611af657611af56138f5565b5b8152602001846affffffffffffffffffffff16815260200183815250600260008363ffffffff1663ffffffff16815260200190815260200160002060008201518160000160006101000a81548173ffffffffffffffffffffffffffffffffffffffff021916908373ffffffffffffffffffffffffffffffffffffffff16021790555060208201518160000160146101000a81548160ff02191690836003811115611ba357611ba26138f5565b5b021790555060408201518160000160156101000a8154816affffffffffffffffffffff02191690836affffffffffffffffffffff160217905550606082015181600101559050508063ffffffff167f7845f789baa17703c3db3bf849155053cc12b41ec3717601321581d0420b4d7f83604051611c209190614144565b60405180910390a2505050565b60015481565b60036020528060005260406000206000915090508060000160009054906101000a900473ffffffffffffffffffffffffffffffffffffffff16908060000160149054906101000a900463ffffffff16908060000160189054906101000a900460ff16908060010160009054906101000a90046fffffffffffffffffffffffffffffffff16908060010160109054906101000a900467ffffffffffffffff16908060010160189054906101000a900467ffffffffffffffff16908060020154905087565b611cfe612e9c565b6000600360008363ffffffff1663ffffffff16815260200190815260200160002090506000600260008360000160149054906101000a900463ffffffff1663ffffffff1663ffffffff168152602001908152602001600020905060016003811115611d6c57611d6b6138f5565b5b8260000160189054906101000a900460ff166003811115611d9057611d8f6138f5565b5b14611dc7576040517f448ad72300000000000000000000000000000000000000000000000000000000815260040160405180910390fd5b6203f4808260010160189054906101000a900467ffffffffffffffff16611dee919061415f565b67ffffffffffffffff164211611e30576040517f6362f00c00000000000000000000000000000000000000000000000000000000815260040160405180910390fd5b60028260000160186101000a81548160ff02191690836003811115611e5857611e576138f5565b5b021790555060028160000160146101000a81548160ff02191690836003811115611e8557611e846138f5565b5b0217905550611eea8160000160009054906101000a900473ffffffffffffffffffffffffffffffffffffffff168360010160009054906101000a90046fffffffffffffffffffffffffffffffff166fffffffffffffffffffffffffffffffff16612eda565b611f3d838360000160009054906101000a900473ffffffffffffffffffffffffffffffffffffffff168360000160009054906101000a900473ffffffffffffffffffffffffffffffffffffffff16612f82565b8263ffffffff167f735ac8e4dde3032ae26b362ee588a0417b5b9546dd4840d3a5c7b9d74bf4193a60405160405180910390a25050611f7a612ebf565b50565b60046020528060005260406000206000915090508060000154908060010154908060020160009054906101000a90046fffffffffffffffffffffffffffffffff16905083565b611fcb613627565b600260008363ffffffff1663ffffffff1681526020019081526020016000206040518060800160405290816000820160009054906101000a900473ffffffffffffffffffffffffffffffffffffffff1673ffffffffffffffffffffffffffffffffffffffff1673ffffffffffffffffffffffffffffffffffffffff1681526020016000820160149054906101000a900460ff1660038111156120705761206f6138f5565b5b6003811115612082576120816138f5565b5b81526020016000820160159054906101000a90046affffffffffffffffffffff166affffffffffffffffffffff166affffffffffffffffffffff1681526020016001820154815250509050919050565b66b1a2bc2ec5000081565b6000600360008463ffffffff1663ffffffff16815260200190815260200160002090506000600260008360000160149054906101000a900463ffffffff1663ffffffff1663ffffffff16815260200190815260200160002090508060000160009054906101000a900473ffffffffffffffffffffffffffffffffffffffff1673ffffffffffffffffffffffffffffffffffffffff163373ffffffffffffffffffffffffffffffffffffffff16146121c0576040517f6b7809b900000000000000000000000000000000000000000000000000000000815260040160405180910390fd5b600060038111156121d4576121d36138f5565b5b8260000160189054906101000a900460ff1660038111156121f8576121f76138f5565b5b1461222f576040517f1a99ec7c00000000000000000000000000000000000000000000000000000000815260040160405180910390fd5b6000801b830361226b576040517f7cf64fe300000000000000000000000000000000000000000000000000000000815260040160405180910390fd5b60018260000160186101000a81548160ff02191690836003811115612293576122926138f5565b5b0217905550428260010160186101000a81548167ffffffffffffffff021916908367ffffffffffffffff1602179055508282600201819055508363ffffffff167fb9f9fff2a594bbac9c2407f11e62b2f80303f566b013f015eb5a77d1b5bb4540846040516123029190614144565b60405180910390a250505050565b612318613687565b600360008363ffffffff1663ffffffff1681526020019081526020016000206040518060e00160405290816000820160009054906101000a900473ffffffffffffffffffffffffffffffffffffffff1673ffffffffffffffffffffffffffffffffffffffff1673ffffffffffffffffffffffffffffffffffffffff1681526020016000820160149054906101000a900463ffffffff1663ffffffff1663ffffffff1681526020016000820160189054906101000a900460ff1660038111156123e3576123e26138f5565b5b60038111156123f5576123f46138f5565b5b81526020016001820160009054906101000a90046fffffffffffffffffffffffffffffffff166fffffffffffffffffffffffffffffffff166fffffffffffffffffffffffffffffffff1681526020016001820160109054906101000a900467ffffffffffffffff1667ffffffffffffffff1667ffffffffffffffff1681526020016001820160189054906101000a900467ffffffffffffffff1667ffffffffffffffff1667ffffffffffffffff1681526020016002820154815250509050919050565b600080600760008463ffffffff1681526020019081526020016000206000600281106124e7576124e6614093565b5b0154600760008563ffffffff16815260200190815260200160002060016002811061251557612514614093565b5b015491509150915091565b612528612e9c565b6000600360008363ffffffff1663ffffffff16815260200190815260200160002090506000600260008360000160149054906101000a900463ffffffff1663ffffffff1663ffffffff16815260200190815260200160002090508160000160009054906101000a900473ffffffffffffffffffffffffffffffffffffffff1673ffffffffffffffffffffffffffffffffffffffff163373ffffffffffffffffffffffffffffffffffffffff161461260b576040517fd6d90f8900000000000000000000000000000000000000000000000000000000815260040160405180910390fd5b6001600381111561261f5761261e6138f5565b5b8260000160189054906101000a900460ff166003811115612643576126426138f5565b5b1461267a576040517f18d5a0ce00000000000000000000000000000000000000000000000000000000815260040160405180910390fd5b60028260000160186101000a81548160ff021916908360038111156126a2576126a16138f5565b5b021790555060028160000160146101000a81548160ff021916908360038111156126cf576126ce6138f5565b5b02179055506127348160000160009054906101000a900473ffffffffffffffffffffffffffffffffffffffff168360010160009054906101000a90046fffffffffffffffffffffffffffffffff166fffffffffffffffffffffffffffffffff16612eda565b612787838360000160009054906101000a900473ffffffffffffffffffffffffffffffffffffffff168360000160009054906101000a900473ffffffffffffffffffffffffffffffffffffffff16612f82565b8263ffffffff167f735ac8e4dde3032ae26b362ee588a0417b5b9546dd4840d3a5c7b9d74bf4193a60405160405180910390a250506127c4612ebf565b50565b60006006600083815260200190815260200160002090508060010160149054906101000a900460ff16158061280a57508060010160159054906101000a900460ff165b156128155750612e16565b6000600360008360000160009054906101000a900463ffffffff1663ffffffff1663ffffffff16815260200190815260200160002090506000600260008360000160149054906101000a900463ffffffff1663ffffffff1663ffffffff168152602001908152602001600020905060018360010160156101000a81548160ff02191690831515021790555060006129148360010160009054906101000a90046fffffffffffffffffffffffffffffffff166fffffffffffffffffffffffffffffffff168460010160189054906101000a900467ffffffffffffffff168660010160169054906101000a900467ffffffffffffffff16876002015461347f565b90508160000160009054906101000a900473ffffffffffffffffffffffffffffffffffffffff1673ffffffffffffffffffffffffffffffffffffffff168460010160009054906101000a900473ffffffffffffffffffffffffffffffffffffffff1673ffffffffffffffffffffffffffffffffffffffff1603612b73578084600101601e9054906101000a900460ff1660ff166129b19190613fbd565b600460008660010160009054906101000a900473ffffffffffffffffffffffffffffffffffffffff1673ffffffffffffffffffffffffffffffffffffffff1673ffffffffffffffffffffffffffffffffffffffff1681526020019081526020016000206000016000828254612a26919061405f565b9250508190555080600460008660010160009054906101000a900473ffffffffffffffffffffffffffffffffffffffff1673ffffffffffffffffffffffffffffffffffffffff1673ffffffffffffffffffffffffffffffffffffffff1681526020019081526020016000206001016000828254612aa3919061405f565b92505081905550600460008560010160009054906101000a900473ffffffffffffffffffffffffffffffffffffffff1673ffffffffffffffffffffffffffffffffffffffff1673ffffffffffffffffffffffffffffffffffffffff168152602001908152602001600020600201600081819054906101000a90046fffffffffffffffffffffffffffffffff16612b389061419b565b91906101000a8154816fffffffffffffffffffffffffffffffff02191690836fffffffffffffffffffffffffffffffff160217905550612d51565b8084600101601e9054906101000a900460ff1660ff16612b939190613fbd565b600560008660010160009054906101000a900473ffffffffffffffffffffffffffffffffffffffff1673ffffffffffffffffffffffffffffffffffffffff1673ffffffffffffffffffffffffffffffffffffffff1681526020019081526020016000206000016000828254612c08919061405f565b9250508190555080600560008660010160009054906101000a900473ffffffffffffffffffffffffffffffffffffffff1673ffffffffffffffffffffffffffffffffffffffff1673ffffffffffffffffffffffffffffffffffffffff1681526020019081526020016000206001016000828254612c85919061405f565b92505081905550600560008560010160009054906101000a900473ffffffffffffffffffffffffffffffffffffffff1673ffffffffffffffffffffffffffffffffffffffff1673ffffffffffffffffffffffffffffffffffffffff168152602001908152602001600020600201600081819054906101000a90046fffffffffffffffffffffffffffffffff16612d1a9061419b565b91906101000a8154816fffffffffffffffffffffffffffffffff02191690836fffffffffffffffffffffffffffffffff1602179055505b8360010160009054906101000a900473ffffffffffffffffffffffffffffffffffffffff1673ffffffffffffffffffffffffffffffffffffffff168460000160049054906101000a900473ffffffffffffffffffffffffffffffffffffffff1673ffffffffffffffffffffffffffffffffffffffff167f846e7c60f8a40d0939121c546970f0fe070f449b6f35538cac9aeec2d8d88b2e86600101601e9054906101000a900460ff1684604051612e09929190614204565b60405180910390a3505050505b50565b66b1a2bc2ec50000600960008373ffffffffffffffffffffffffffffffffffffffff1673ffffffffffffffffffffffffffffffffffffffff168152602001908152602001600020541015612e99576040517ff1bc94d200000000000000000000000000000000000000000000000000000000815260040160405180910390fd5b50565b612ea4613593565b6002612eb6612eb16135d4565b6135ff565b60000181905550565b6001612ed1612ecc6135d4565b6135ff565b60000181905550565b60008273ffffffffffffffffffffffffffffffffffffffff1682604051612f009061425e565b60006040518083038185875af1925050503d8060008114612f3d576040519150601f19603f3d011682016040523d82523d6000602084013e612f42565b606091505b5050905080612f7d576040517f90b8ec1800000000000000000000000000000000000000000000000000000000815260040160405180910390fd5b505050565b600160008154612f9190614273565b919050819055506040518061010001604052808463ffffffff1681526020018373ffffffffffffffffffffffffffffffffffffffff1681526020018273ffffffffffffffffffffffffffffffffffffffff168152602001600015158152602001600015158152602001600067ffffffffffffffff168152602001600060ff16815260200162093a8042613024919061405f565b81525060066000600154815260200190815260200160002060008201518160000160006101000a81548163ffffffff021916908363ffffffff16021790555060208201518160000160046101000a81548173ffffffffffffffffffffffffffffffffffffffff021916908373ffffffffffffffffffffffffffffffffffffffff16021790555060408201518160010160006101000a81548173ffffffffffffffffffffffffffffffffffffffff021916908373ffffffffffffffffffffffffffffffffffffffff16021790555060608201518160010160146101000a81548160ff02191690831515021790555060808201518160010160156101000a81548160ff02191690831515021790555060a08201518160010160166101000a81548167ffffffffffffffff021916908367ffffffffffffffff16021790555060c082015181600101601e6101000a81548160ff021916908360ff16021790555060e08201518160020155905050600154600760008563ffffffff1681526020019081526020016000206000600281106131bd576131bc614093565b5b01819055506001547f988de847d31b0fe942aa43da2017020c82213a2bc10f17f436d97d39d2c68f7e83836040516131f69291906142bb565b60405180910390a260016000815461320d90614273565b919050819055506040518061010001604052808463ffffffff1681526020018273ffffffffffffffffffffffffffffffffffffffff1681526020018373ffffffffffffffffffffffffffffffffffffffff168152602001600015158152602001600015158152602001600067ffffffffffffffff168152602001600060ff16815260200162093a80426132a0919061405f565b81525060066000600154815260200190815260200160002060008201518160000160006101000a81548163ffffffff021916908363ffffffff16021790555060208201518160000160046101000a81548173ffffffffffffffffffffffffffffffffffffffff021916908373ffffffffffffffffffffffffffffffffffffffff16021790555060408201518160010160006101000a81548173ffffffffffffffffffffffffffffffffffffffff021916908373ffffffffffffffffffffffffffffffffffffffff16021790555060608201518160010160146101000a81548160ff02191690831515021790555060808201518160010160156101000a81548160ff02191690831515021790555060a08201518160010160166101000a81548167ffffffffffffffff021916908367ffffffffffffffff16021790555060c082015181600101601e6101000a81548160ff021916908360ff16021790555060e08201518160020155905050600154600760008563ffffffff16815260200190815260200160002060016002811061343957613438614093565b5b01819055506001547f988de847d31b0fe942aa43da2017020c82213a2bc10f17f436d97d39d2c68f7e82846040516134729291906142bb565b60405180910390a2505050565b600080620151808567ffffffffffffffff168567ffffffffffffffff166134a691906142e4565b6134b0919061402e565b90506000606482106134c35760016134d1565b8160646134d091906142e4565b5b9050600062093a80856134e491906142e4565b90506000818767ffffffffffffffff1611613500576000613525565b62015180828867ffffffffffffffff1661351a91906142e4565b613524919061402e565b5b9050600060078210613538576001613546565b81600761354591906142e4565b5b9050600066038d7ea4c680008b61355d919061402e565b90506000810361356c57600190505b8181866135799190613fbd565b6135839190613fbd565b9650505050505050949350505050565b61359b613609565b156135d2576040517f3ee5aeb500000000000000000000000000000000000000000000000000000000815260040160405180910390fd5b565b60007f9b779b17422d0df92223018b32b4d1fa46e071723d6817e2486d003becc55f0060001b905090565b6000819050919050565b6000600261361d6136186135d4565b6135ff565b6000015414905090565b6040518060800160405280600073ffffffffffffffffffffffffffffffffffffffff16815260200160006003811115613663576136626138f5565b5b815260200160006affffffffffffffffffffff168152602001600080191681525090565b6040518060e00160405280600073ffffffffffffffffffffffffffffffffffffffff168152602001600063ffffffff168152602001600060038111156136d0576136cf6138f5565b5b815260200160006fffffffffffffffffffffffffffffffff168152602001600067ffffffffffffffff168152602001600067ffffffffffffffff168152602001600080191681525090565b600080fd5b600073ffffffffffffffffffffffffffffffffffffffff82169050919050565b600061374b82613720565b9050919050565b61375b81613740565b811461376657600080fd5b50565b60008135905061377881613752565b92915050565b6000602082840312156137945761379361371b565b5b60006137a284828501613769565b91505092915050565b6000819050919050565b6137be816137ab565b82525050565b60006fffffffffffffffffffffffffffffffff82169050919050565b6137e9816137c4565b82525050565b600060608201905061380460008301866137b5565b61381160208301856137b5565b61381e60408301846137e0565b949350505050565b600063ffffffff82169050919050565b61383f81613826565b82525050565b600060208201905061385a6000830184613836565b92915050565b600060208201905061387560008301846137b5565b92915050565b61388481613826565b811461388f57600080fd5b50565b6000813590506138a18161387b565b92915050565b6000602082840312156138bd576138bc61371b565b5b60006138cb84828501613892565b91505092915050565b60006138df82613720565b9050919050565b6138ef816138d4565b82525050565b7f4e487b7100000000000000000000000000000000000000000000000000000000600052602160045260246000fd5b60048110613935576139346138f5565b5b50565b600081905061394682613924565b919050565b600061395682613938565b9050919050565b6139668161394b565b82525050565b60006affffffffffffffffffffff82169050919050565b61398c8161396c565b82525050565b6000819050919050565b6139a581613992565b82525050565b60006080820190506139c060008301876138e6565b6139cd602083018661395d565b6139da6040830185613983565b6139e7606083018461399c565b95945050505050565b6139f9816137ab565b8114613a0457600080fd5b50565b600081359050613a16816139f0565b92915050565b600060ff82169050919050565b613a3281613a1c565b8114613a3d57600080fd5b50565b600081359050613a4f81613a29565b92915050565b60008060408385031215613a6c57613a6b61371b565b5b6000613a7a85828601613a07565b9250506020613a8b85828601613a40565b9150509250929050565b600060208284031215613aab57613aaa61371b565b5b6000613ab984828501613a07565b91505092915050565b613acb81613740565b82525050565b60008115159050919050565b613ae681613ad1565b82525050565b600067ffffffffffffffff82169050919050565b613b0981613aec565b82525050565b613b1881613a1c565b82525050565b600061010082019050613b34600083018b613836565b613b41602083018a613ac2565b613b4e6040830189613ac2565b613b5b6060830188613add565b613b686080830187613add565b613b7560a0830186613b00565b613b8260c0830185613b0f565b613b8f60e08301846137b5565b9998505050505050505050565b60008060408385031215613bb357613bb261371b565b5b6000613bc185828601613a07565b9250506020613bd285828601613a07565b9150509250929050565b60008060408385031215613bf357613bf261371b565b5b6000613c0185828601613a07565b9250506020613c1285828601613769565b9150509250929050565b6000604082019050613c31600083018561399c565b613c3e6020830184613add565b9392505050565b613c4e8161396c565b8114613c5957600080fd5b50565b600081359050613c6b81613c45565b92915050565b613c7a81613992565b8114613c8557600080fd5b50565b600081359050613c9781613c71565b92915050565b60008060408385031215613cb457613cb361371b565b5b6000613cc285828601613c5c565b9250506020613cd385828601613c88565b9150509250929050565b60048110613cee57613ced6138f5565b5b50565b6000819050613cff82613cdd565b919050565b6000613d0f82613cf1565b9050919050565b613d1f81613d04565b82525050565b600060e082019050613d3a600083018a6138e6565b613d476020830189613836565b613d546040830188613d16565b613d6160608301876137e0565b613d6e6080830186613b00565b613d7b60a0830185613b00565b613d8860c083018461399c565b98975050505050505050565b613d9d816138d4565b82525050565b613dac8161394b565b82525050565b613dbb8161396c565b82525050565b613dca81613992565b82525050565b608082016000820151613de66000850182613d94565b506020820151613df96020850182613da3565b506040820151613e0c6040850182613db2565b506060820151613e1f6060850182613dc1565b50505050565b6000608082019050613e3a6000830184613dd0565b92915050565b60008060408385031215613e5757613e5661371b565b5b6000613e6585828601613892565b9250506020613e7685828601613c88565b9150509250929050565b613e8981613826565b82525050565b613e9881613d04565b82525050565b613ea7816137c4565b82525050565b613eb681613aec565b82525050565b60e082016000820151613ed26000850182613d94565b506020820151613ee56020850182613e80565b506040820151613ef86040850182613e8f565b506060820151613f0b6060850182613e9e565b506080820151613f1e6080850182613ead565b5060a0820151613f3160a0850182613ead565b5060c0820151613f4460c0850182613dc1565b50505050565b600060e082019050613f5f6000830184613ebc565b92915050565b6000604082019050613f7a60008301856137b5565b613f8760208301846137b5565b9392505050565b7f4e487b7100000000000000000000000000000000000000000000000000000000600052601160045260246000fd5b6000613fc8826137ab565b9150613fd3836137ab565b9250828202613fe1816137ab565b91508282048414831517613ff857613ff7613f8e565b5b5092915050565b7f4e487b7100000000000000000000000000000000000000000000000000000000600052601260045260246000fd5b6000614039826137ab565b9150614044836137ab565b92508261405457614053613fff565b5b828204905092915050565b600061406a826137ab565b9150614075836137ab565b925082820190508082111561408d5761408c613f8e565b5b92915050565b7f4e487b7100000000000000000000000000000000000000000000000000000000600052603260045260246000fd5b6000819050919050565b60006140e76140e26140dd84613826565b6140c2565b6137ab565b9050919050565b6140f7816140cc565b82525050565b600060208201905061411260008301846140ee565b92915050565b600061412382613826565b915063ffffffff820361413957614138613f8e565b5b600182019050919050565b6000602082019050614159600083018461399c565b92915050565b600061416a82613aec565b915061417583613aec565b9250828201905067ffffffffffffffff81111561419557614194613f8e565b5b92915050565b60006141a6826137c4565b91506fffffffffffffffffffffffffffffffff82036141c8576141c7613f8e565b5b600182019050919050565b60006141ee6141e96141e484613a1c565b6140c2565b6137ab565b9050919050565b6141fe816141d3565b82525050565b600060408201905061421960008301856141f5565b61422660208301846137b5565b9392505050565b600081905092915050565b50565b600061424860008361422d565b915061425382614238565b600082019050919050565b60006142698261423b565b9150819050919050565b600061427e826137ab565b91507fffffffffffffffffffffffffffffffffffffffffffffffffffffffffffffffff82036142b0576142af613f8e565b5b600182019050919050565b60006040820190506142d06000830185613ac2565b6142dd6020830184613ac2565b9392505050565b60006142ef826137ab565b91506142fa836137ab565b925082820390508181111561431257614311613f8e565b5b9291505056fea264697066735822122059bffa6ff71fac55e12ecd1963f1e7dbef3c70558a634dec73c5edb94d526dfd64736f6c634300081c0033",
  "linkReferences": {},
  "deployedLinkReferences": {}
}