{
  "_format": "hh-sol-artifact-1",
  "contractName": "FreelanceEscrow",
  "sourceName": "contracts/FreelancerEscrow.sol",
  "abi": [
    {
      "inputs": [],
      "name": "AlreadyRated",
      "type": "error"
    },
    {
      "inputs": [],
      "name": "AlreadyRevealed",
      "type": "error"
    },
    {
      "inputs": [],
      "name": "CannotHireYourself",
      "type": "error"
    },
    {
      "inputs": [],
      "name": "CommitNotFound",
      "type": "error"
    },
    {
      "inputs": [],
      "name": "FreelancerCannotCancelSubmitted",
      "type": "error"
    },
    {
      "inputs": [],
      "name": "IncorrectETH",
      "type": "error"
    },
    {
      "inputs": [],
      "name": "InsufficientStake",
      "type": "error"
    },
    {
      "inputs": [],
      "name": "InvalidJob",
      "type": "error"
    },
    {
      "inputs": [],
      "name": "InvalidJobState",
      "type": "error"
    },
    {
      "inputs": [],
      "name": "InvalidReveal",
      "type": "error"
    },
    {
      "inputs": [],
      "name": "InvalidScore",
      "type": "error"
    },
    {
      "inputs": [],
      "name": "InvalidService",
      "type": "error"
    },
    {
      "inputs": [],
      "name": "JobNotCancelled",
      "type": "error"
    },
    {
      "inputs": [],
      "name": "JobNotCompleted",
      "type": "error"
    },
    {
      "inputs": [],
      "name": "MetadataCidRequired",
      "type": "error"
    },
    {
      "inputs": [],
      "name": "NotAllowed",
      "type": "error"
    },
    {
      "inputs": [],
      "name": "NotReviewer",
      "type": "error"
    },
    {
      "inputs": [],
      "name": "NotSubmitted",
      "type": "error"
    },
    {
      "inputs": [],
      "name": "OnlyClient",
      "type": "error"
    },
    {
      "inputs": [],
      "name": "OnlyFreelancer",
      "type": "error"
    },
    {
      "inputs": [],
      "name": "PriceMustBePositive",
      "type": "error"
    },
    {
      "inputs": [],
      "name": "ReentrancyGuardReentrantCall",
      "type": "error"
    },
    {
      "inputs": [],
      "name": "ReviewWindowNotClosed",
      "type": "error"
    },
    {
      "inputs": [],
      "name": "ServiceNotAvailable",
      "type": "error"
    },
    {
      "inputs": [],
      "name": "TokenUsed",
      "type": "error"
    },
    {
      "inputs": [],
      "name": "TooEarlyForAutoRelease",
      "type": "error"
    },
    {
      "inputs": [],
      "name": "TransferFailed",
      "type": "error"
    },
    {
      "inputs": [],
      "name": "WorkCidRequired",
      "type": "error"
    },
    {
      "inputs": [],
      "name": "WorkNotSubmitted",
      "type": "error"
    },
    {
      "anonymous": false,
      "inputs": [
        {
          "indexed": true,
          "internalType": "address",
          "name": "reviewer",
          "type": "address"
        },
        {
          "indexed": true,
          "internalType": "address",
          "name": "reviewee",
          "type": "address"
        },
        {
          "indexed": false,
          "internalType": "uint256",
          "name": "score",
          "type": "uint256"
        },
        {
          "indexed": false,
          "internalType": "uint256",
          "name": "weight",
          "type": "uint256"
        }
      ],
      "name": "FeedbackApplied",
      "type": "event"
    },
    {
      "anonymous": false,
      "inputs": [
        {
          "indexed": true,
          "internalType": "address",
          "name": "reviewer",
          "type": "address"
        },
        {
          "indexed": false,
          "internalType": "uint256",
          "name": "jobId",
          "type": "uint256"
        }
      ],
      "name": "FeedbackSubmitted",
      "type": "event"
    },
    {
      "anonymous": false,
      "inputs": [
        {
          "indexed": true,
          "internalType": "uint256",
          "name": "tokenId",
          "type": "uint256"
        },
        {
          "indexed": false,
          "internalType": "address",
          "name": "reviewer",
          "type": "address"
        },
        {
          "indexed": false,
          "internalType": "address",
          "name": "reviewee",
          "type": "address"
        }
      ],
      "name": "FeedbackTokenIssued",
      "type": "event"
    },
    {
      "anonymous": false,
      "inputs": [
        {
          "indexed": true,
          "internalType": "uint32",
          "name": "jobId",
          "type": "uint32"
        }
      ],
      "name": "JobCancelled",
      "type": "event"
    },
    {
      "anonymous": false,
      "inputs": [
        {
          "indexed": true,
          "internalType": "uint32",
          "name": "jobId",
          "type": "uint32"
        }
      ],
      "name": "JobCompleted",
      "type": "event"
    },
    {
      "anonymous": false,
      "inputs": [
        {
          "indexed": true,
          "internalType": "uint32",
          "name": "jobId",
          "type": "uint32"
        }
      ],
      "name": "JobCreated",
      "type": "event"
    },
    {
      "anonymous": false,
      "inputs": [
        {
          "indexed": true,
          "internalType": "uint32",
          "name": "serviceId",
          "type": "uint32"
        },
        {
          "indexed": false,
          "internalType": "bytes32",
          "name": "metadataCid",
          "type": "bytes32"
        }
      ],
      "name": "ServiceListed",
      "type": "event"
    },
    {
      "anonymous": false,
      "inputs": [
        {
          "indexed": true,
          "internalType": "address",
          "name": "user",
          "type": "address"
        },
        {
          "indexed": false,
          "internalType": "uint256",
          "name": "amount",
          "type": "uint256"
        }
      ],
      "name": "StakeDeposited",
      "type": "event"
    },
    {
      "anonymous": false,
      "inputs": [
        {
          "indexed": true,
          "internalType": "uint32",
          "name": "jobId",
          "type": "uint32"
        }
      ],
      "name": "WorkCleared",
      "type": "event"
    },
    {
      "anonymous": false,
      "inputs": [
        {
          "indexed": true,
          "internalType": "uint32",
          "name": "jobId",
          "type": "uint32"
        },
        {
          "indexed": false,
          "internalType": "bytes32",
          "name": "workCid",
          "type": "bytes32"
        }
      ],
      "name": "WorkSubmitted",
      "type": "event"
    },
    {
      "inputs": [],
      "name": "MIN_STAKE",
      "outputs": [
        {
          "internalType": "uint256",
          "name": "",
          "type": "uint256"
        }
      ],
      "stateMutability": "view",
      "type": "function"
    },
    {
      "inputs": [
        {
          "internalType": "uint32",
          "name": "jobId",
          "type": "uint32"
        }
      ],
      "name": "autoRelease",
      "outputs": [],
      "stateMutability": "nonpayable",
      "type": "function"
    },
    {
      "inputs": [
        {
          "internalType": "uint32",
          "name": "jobId",
          "type": "uint32"
        }
      ],
      "name": "cancelJob",
      "outputs": [],
      "stateMutability": "nonpayable",
      "type": "function"
    },
    {
      "inputs": [
        {
          "internalType": "uint32",
          "name": "jobId",
          "type": "uint32"
        }
      ],
      "name": "clearWork",
      "outputs": [],
      "stateMutability": "nonpayable",
      "type": "function"
    },
    {
      "inputs": [
        {
          "internalType": "address",
          "name": "",
          "type": "address"
        }
      ],
      "name": "clientRep",
      "outputs": [
        {
          "internalType": "uint256",
          "name": "weightedScoreSum",
          "type": "uint256"
        },
        {
          "internalType": "uint256",
          "name": "weightSum",
          "type": "uint256"
        },
        {
          "internalType": "uint128",
          "name": "totalJobs",
          "type": "uint128"
        }
      ],
      "stateMutability": "view",
      "type": "function"
    },
    {
      "inputs": [
        {
          "internalType": "uint256",
          "name": "",
          "type": "uint256"
        },
        {
          "internalType": "address",
          "name": "",
          "type": "address"
        }
      ],
      "name": "commits",
      "outputs": [
        {
          "internalType": "bytes32",
          "name": "hash",
          "type": "bytes32"
        },
        {
          "internalType": "bool",
          "name": "revealed",
          "type": "bool"
        }
      ],
      "stateMutability": "view",
      "type": "function"
    },
    {
      "inputs": [
        {
          "internalType": "uint32",
          "name": "jobId",
          "type": "uint32"
        }
      ],
      "name": "confirmCompletion",
      "outputs": [],
      "stateMutability": "nonpayable",
      "type": "function"
    },
    {
      "inputs": [],
      "name": "depositStake",
      "outputs": [],
      "stateMutability": "payable",
      "type": "function"
    },
    {
      "inputs": [
        {
          "internalType": "uint32",
          "name": "jobId",
          "type": "uint32"
        }
      ],
      "name": "finalizeReview",
      "outputs": [],
      "stateMutability": "nonpayable",
      "type": "function"
    },
    {
      "inputs": [
        {
          "internalType": "address",
          "name": "",
          "type": "address"
        }
      ],
      "name": "freelancerRep",
      "outputs": [
        {
          "internalType": "uint256",
          "name": "weightedScoreSum",
          "type": "uint256"
        },
        {
          "internalType": "uint256",
          "name": "weightSum",
          "type": "uint256"
        },
        {
          "internalType": "uint128",
          "name": "totalJobs",
          "type": "uint128"
        }
      ],
      "stateMutability": "view",
      "type": "function"
    },
    {
      "inputs": [
        {
          "internalType": "address",
          "name": "client",
          "type": "address"
        }
      ],
      "name": "getClientReputation",
      "outputs": [
        {
          "internalType": "uint256",
          "name": "avgScoreScaled",
          "type": "uint256"
        },
        {
          "internalType": "uint256",
          "name": "totalWeight",
          "type": "uint256"
        },
        {
          "internalType": "uint128",
          "name": "totalJobs",
          "type": "uint128"
        }
      ],
      "stateMutability": "view",
      "type": "function"
    },
    {
      "inputs": [
        {
          "internalType": "address",
          "name": "freelancer",
          "type": "address"
        }
      ],
      "name": "getFreelancerReputation",
      "outputs": [
        {
          "internalType": "uint256",
          "name": "avgScoreScaled",
          "type": "uint256"
        },
        {
          "internalType": "uint256",
          "name": "totalWeight",
          "type": "uint256"
        },
        {
          "internalType": "uint128",
          "name": "totalJobs",
          "type": "uint128"
        }
      ],
      "stateMutability": "view",
      "type": "function"
    },
    {
      "inputs": [
        {
          "internalType": "uint32",
          "name": "id",
          "type": "uint32"
        }
      ],
      "name": "getJob",
      "outputs": [
        {
          "components": [
            {
              "internalType": "address payable",
              "name": "client",
              "type": "address"
            },
            {
              "internalType": "uint32",
              "name": "serviceId",
              "type": "uint32"
            },
            {
              "internalType": "enum FreelanceEscrow.JobStatus",
              "name": "status",
              "type": "uint8"
            },
            {
              "internalType": "uint128",
              "name": "amount",
              "type": "uint128"
            },
            {
              "internalType": "uint64",
              "name": "deadline",
              "type": "uint64"
            },
            {
              "internalType": "uint64",
              "name": "submittedAt",
              "type": "uint64"
            },
            {
              "internalType": "bytes32",
              "name": "workCid",
              "type": "bytes32"
            },
            {
              "internalType": "bytes32",
              "name": "descriptionCid",
              "type": "bytes32"
            }
          ],
          "internalType": "struct FreelanceEscrow.Job",
          "name": "",
          "type": "tuple"
        }
      ],
      "stateMutability": "view",
      "type": "function"
    },
    {
      "inputs": [
        {
          "internalType": "uint32",
          "name": "jobId",
          "type": "uint32"
        }
      ],
      "name": "getJobTokens",
      "outputs": [
        {
          "internalType": "uint256",
          "name": "clientToken",
          "type": "uint256"
        },
        {
          "internalType": "uint256",
          "name": "freelancerToken",
          "type": "uint256"
        }
      ],
      "stateMutability": "view",
      "type": "function"
    },
    {
      "inputs": [
        {
          "internalType": "uint32",
          "name": "id",
          "type": "uint32"
        }
      ],
      "name": "getService",
      "outputs": [
        {
          "components": [
            {
              "internalType": "address payable",
              "name": "freelancer",
              "type": "address"
            },
            {
              "internalType": "enum FreelanceEscrow.ServiceStatus",
              "name": "status",
              "type": "uint8"
            },
            {
              "internalType": "uint88",
              "name": "priceWei",
              "type": "uint88"
            },
            {
              "internalType": "bytes32",
              "name": "metadataCid",
              "type": "bytes32"
            }
          ],
          "internalType": "struct FreelanceEscrow.Service",
          "name": "",
          "type": "tuple"
        }
      ],
      "stateMutability": "view",
      "type": "function"
    },
    {
      "inputs": [
        {
          "internalType": "uint32",
          "name": "serviceId",
          "type": "uint32"
        },
        {
          "internalType": "bytes32",
          "name": "descriptionCid",
          "type": "bytes32"
        }
      ],
      "name": "hireFreelancer",
      "outputs": [],
      "stateMutability": "payable",
      "type": "function"
    },
    {
      "inputs": [],
      "name": "jobCount",
      "outputs": [
        {
          "internalType": "uint32",
          "name": "",
          "type": "uint32"
        }
      ],
      "stateMutability": "view",
      "type": "function"
    },
    {
      "inputs": [
        {
          "internalType": "uint256",
          "name": "",
          "type": "uint256"
        },
        {
          "internalType": "uint256",
          "name": "",
          "type": "uint256"
        }
      ],
      "name": "jobTokens",
      "outputs": [
        {
          "internalType": "uint256",
          "name": "",
          "type": "uint256"
        }
      ],
      "stateMutability": "view",
      "type": "function"
    },
    {
      "inputs": [
        {
          "internalType": "uint32",
          "name": "",
          "type": "uint32"
        }
      ],
      "name": "jobs",
      "outputs": [
        {
          "internalType": "address payable",
          "name": "client",
          "type": "address"
        },
        {
          "internalType": "uint32",
          "name": "serviceId",
          "type": "uint32"
        },
        {
          "internalType": "enum FreelanceEscrow.JobStatus",
          "name": "status",
          "type": "uint8"
        },
        {
          "internalType": "uint128",
          "name": "amount",
          "type": "uint128"
        },
        {
          "internalType": "uint64",
          "name": "deadline",
          "type": "uint64"
        },
        {
          "internalType": "uint64",
          "name": "submittedAt",
          "type": "uint64"
        },
        {
          "internalType": "bytes32",
          "name": "workCid",
          "type": "bytes32"
        },
        {
          "internalType": "bytes32",
          "name": "descriptionCid",
          "type": "bytes32"
        }
      ],
      "stateMutability": "view",
      "type": "function"
    },
    {
      "inputs": [
        {
          "internalType": "uint88",
          "name": "priceWei",
          "type": "uint88"
        },
        {
          "internalType": "bytes32",
          "name": "metadataCid",
          "type": "bytes32"
        }
      ],
      "name": "offerService",
      "outputs": [],
      "stateMutability": "nonpayable",
      "type": "function"
    },
    {
      "inputs": [],
      "name": "serviceCount",
      "outputs": [
        {
          "internalType": "uint32",
          "name": "",
          "type": "uint32"
        }
      ],
      "stateMutability": "view",
      "type": "function"
    },
    {
      "inputs": [
        {
          "internalType": "uint32",
          "name": "",
          "type": "uint32"
        }
      ],
      "name": "services",
      "outputs": [
        {
          "internalType": "address payable",
          "name": "freelancer",
          "type": "address"
        },
        {
          "internalType": "enum FreelanceEscrow.ServiceStatus",
          "name": "status",
          "type": "uint8"
        },
        {
          "internalType": "uint88",
          "name": "priceWei",
          "type": "uint88"
        },
        {
          "internalType": "bytes32",
          "name": "metadataCid",
          "type": "bytes32"
        }
      ],
      "stateMutability": "view",
      "type": "function"
    },
    {
      "inputs": [
        {
          "internalType": "address",
          "name": "",
          "type": "address"
        }
      ],
      "name": "stakes",
      "outputs": [
        {
          "internalType": "uint256",
          "name": "",
          "type": "uint256"
        }
      ],
      "stateMutability": "view",
      "type": "function"
    },
    {
      "inputs": [
        {
          "internalType": "uint256",
          "name": "tokenId",
          "type": "uint256"
        },
        {
          "internalType": "uint8",
          "name": "score",
          "type": "uint8"
        }
      ],
      "name": "submitFeedback",
      "outputs": [],
      "stateMutability": "nonpayable",
      "type": "function"
    },
    {
      "inputs": [
        {
          "internalType": "uint32",
          "name": "jobId",
          "type": "uint32"
        },
        {
          "internalType": "bytes32",
          "name": "workCid",
          "type": "bytes32"
        }
      ],
      "name": "submitWork",
      "outputs": [],
      "stateMutability": "nonpayable",
      "type": "function"
    },
    {
      "inputs": [],
      "name": "tokenCount",
      "outputs": [
        {
          "internalType": "uint256",
          "name": "",
          "type": "uint256"
        }
      ],
      "stateMutability": "view",
      "type": "function"
    },
    {
      "inputs": [
        {
          "internalType": "uint256",
          "name": "",
          "type": "uint256"
        }
      ],
      "name": "tokens",
      "outputs": [
        {
          "internalType": "uint32",
          "name": "jobId",
          "type": "uint32"
        },
        {
          "internalType": "address",
          "name": "reviewer",
          "type": "address"
        },
        {
          "internalType": "address",
          "name": "reviewee",
          "type": "address"
        },
        {
          "internalType": "bool",
          "name": "used",
          "type": "bool"
        },
        {
          "internalType": "bool",
          "name": "applied",
          "type": "bool"
        },
        {
          "internalType": "uint64",
          "name": "reviewedAt",
          "type": "uint64"
        },
        {
          "internalType": "uint8",
          "name": "score",
          "type": "uint8"
        },
        {
          "internalType": "uint256",
          "name": "expiry",
          "type": "uint256"
        }
      ],
      "stateMutability": "view",
      "type": "function"
    }
  ],
  "bytecode": "0x6080604052348015600f57600080fd5b506001602a6020603560201b60201c565b606060201b60201c565b60000181905550606a565b60007f9b779b17422d0df92223018b32b4d1fa46e071723d6817e2486d003becc55f0060001b905090565b6000819050919050565b61438e806100796000396000f3fe60806040526004361061019c5760003560e01c8063885d68a8116100ec578063c60f3e391161008a578063deb8e12a11610064578063deb8e12a14610622578063e21e6da01461064b578063fba0471a14610688578063fbdf715b146106c65761019c565b8063c60f3e391461059e578063cb1c2b5c146105db578063d3ebb3b8146106065761019c565b80639f181b5e116100c65780639f181b5e146104c7578063a85f5029146104f2578063b703a85314610536578063c0fdb0e91461055f5761019c565b8063885d68a8146104375780638eb533ef14610475578063980d871d1461049e5761019c565b806323735124116101595780634c5d8a0f116101335780634c5d8a0f146103625780634f64b2be1461038d5780636040b14d146103d15780636b2bb0c3146103fa5761019c565b806323735124146102d0578063247ed1aa146102f95780632a84f72f146103395761019c565b806304199ee7146101a157806306237526146101e05780630d2d76a21461020b57806316934fc4146102155780631efb3ba414610252578063211997ac14610291575b600080fd5b3480156101ad57600080fd5b506101c860048036038101906101c3919061379a565b6106ef565b6040516101d79392919061380b565b60405180910390f35b3480156101ec57600080fd5b506101f56107f5565b6040516102029190613861565b60405180910390f35b610213610809565b005b34801561022157600080fd5b5061023c6004803603810190610237919061379a565b6108f0565b604051610249919061387c565b60405180910390f35b34801561025e57600080fd5b506102796004803603810190610274919061379a565b610908565b6040516102889392919061380b565b60405180910390f35b34801561029d57600080fd5b506102b860048036038101906102b3919061379a565b610a0e565b6040516102c79392919061380b565b60405180910390f35b3480156102dc57600080fd5b506102f760048036038101906102f291906138c3565b610a54565b005b34801561030557600080fd5b50610320600480360381019061031b91906138c3565b610b1c565b60405161033094939291906139c7565b60405180910390f35b34801561034557600080fd5b50610360600480360381019061035b9190613a71565b610b90565b005b34801561036e57600080fd5b50610377610e5b565b6040516103849190613861565b60405180910390f35b34801561039957600080fd5b506103b460048036038101906103af9190613ab1565b610e71565b6040516103c8989796959493929190613b3a565b60405180910390f35b3480156103dd57600080fd5b506103f860048036038101906103f391906138c3565b610f44565b005b34801561040657600080fd5b50610421600480360381019061041c9190613bb8565b6110d9565b60405161042e919061387c565b60405180910390f35b34801561044357600080fd5b5061045e60048036038101906104599190613bf8565b611101565b60405161046c929190613c38565b60405180910390f35b34801561048157600080fd5b5061049c600480360381019061049791906138c3565b61113f565b005b3480156104aa57600080fd5b506104c560048036038101906104c09190613cb9565b61154d565b005b3480156104d357600080fd5b506104dc611780565b6040516104e9919061387c565b60405180910390f35b3480156104fe57600080fd5b50610519600480360381019061051491906138c3565b611786565b60405161052d989796959493929190613d41565b60405180910390f35b34801561054257600080fd5b5061055d600480360381019061055891906138c3565b61184f565b005b34801561056b57600080fd5b506105866004803603810190610581919061379a565b611ac4565b6040516105959392919061380b565b60405180910390f35b3480156105aa57600080fd5b506105c560048036038101906105c091906138c3565b611b0a565b6040516105d29190613e50565b60405180910390f35b3480156105e757600080fd5b506105f0611c19565b6040516105fd919061387c565b60405180910390f35b610620600480360381019061061b9190613e6b565b611c24565b005b34801561062e57600080fd5b5061064960048036038101906106449190613e6b565b6120f0565b005b34801561065757600080fd5b50610672600480360381019061066d91906138c3565b612323565b60405161067f9190613f89565b60405180910390f35b34801561069457600080fd5b506106af60048036038101906106aa91906138c3565b6124d6565b6040516106bd929190613fa5565b60405180910390f35b3480156106d257600080fd5b506106ed60048036038101906106e891906138c3565b61253e565b005b600080600080600460008673ffffffffffffffffffffffffffffffffffffffff1673ffffffffffffffffffffffffffffffffffffffff16815260200190815260200160002060405180606001604052908160008201548152602001600182015481526020016002820160009054906101000a90046fffffffffffffffffffffffffffffffff166fffffffffffffffffffffffffffffffff166fffffffffffffffffffffffffffffffff1681525050905060008160200151036107bc576000806000935093509350506107ee565b8060200151606482600001516107d29190613ffd565b6107dc919061406e565b81602001518260400151935093509350505b9193909250565b60008054906101000a900463ffffffff1681565b66b1a2bc2ec5000034101561084a576040517ff1bc94d200000000000000000000000000000000000000000000000000000000815260040160405180910390fd5b34600960003373ffffffffffffffffffffffffffffffffffffffff1673ffffffffffffffffffffffffffffffffffffffff1681526020019081526020016000206000828254610899919061409f565b925050819055503373ffffffffffffffffffffffffffffffffffffffff167f0a7bb2e28cc4698aac06db79cf9163bfcc20719286cf59fa7d492ceda1b8edc2346040516108e6919061387c565b60405180910390a2565b60096020528060005260406000206000915090505481565b600080600080600560008673ffffffffffffffffffffffffffffffffffffffff1673ffffffffffffffffffffffffffffffffffffffff16815260200190815260200160002060405180606001604052908160008201548152602001600182015481526020016002820160009054906101000a90046fffffffffffffffffffffffffffffffff166fffffffffffffffffffffffffffffffff166fffffffffffffffffffffffffffffffff1681525050905060008160200151036109d557600080600093509350935050610a07565b8060200151606482600001516109eb9190613ffd565b6109f5919061406e565b81602001518260400151935093509350505b9193909250565b60056020528060005260406000206000915090508060000154908060010154908060020160009054906101000a90046fffffffffffffffffffffffffffffffff16905083565b6000600760008363ffffffff168152602001908152602001600020905060006006600083600060028110610a8b57610a8a6140d3565b5b0154815260200190815260200160002090508060020154421015610adb576040517ffe2495d500000000000000000000000000000000000000000000000000000000815260040160405180910390fd5b610af982600060028110610af257610af16140d3565b5b01546127d3565b610b1782600160028110610b1057610b0f6140d3565b5b01546127d3565b505050565b60026020528060005260406000206000915090508060000160009054906101000a900473ffffffffffffffffffffffffffffffffffffffff16908060000160149054906101000a900460ff16908060000160159054906101000a90046affffffffffffffffffffff16908060010154905084565b60006006600084815260200190815260200160002090508060000160049054906101000a900473ffffffffffffffffffffffffffffffffffffffff1673ffffffffffffffffffffffffffffffffffffffff163373ffffffffffffffffffffffffffffffffffffffff1614610c30576040517f6fb5ffbc00000000000000000000000000000000000000000000000000000000815260040160405180910390fd5b8060010160149054906101000a900460ff1615610c79576040517f7f59bede00000000000000000000000000000000000000000000000000000000815260040160405180910390fd5b60018260ff161080610c8e575060058260ff16115b15610cc5576040517f1556136500000000000000000000000000000000000000000000000000000000815260040160405180910390fd5b610cce33612e25565b8181600101601e6101000a81548160ff021916908360ff16021790555060018160010160146101000a81548160ff021916908315150217905550428160010160166101000a81548167ffffffffffffffff021916908367ffffffffffffffff1602179055503373ffffffffffffffffffffffffffffffffffffffff167f3494da8299378c89270f3c8834caa828238425ae6ec329b573eb123c948e9d7d8260000160009054906101000a900463ffffffff16604051610d8d919061413d565b60405180910390a26000600760008360000160009054906101000a900463ffffffff1663ffffffff168152602001908152602001600020905060008482600060028110610ddd57610ddc6140d3565b5b015414610dff5781600060028110610df857610df76140d3565b5b0154610e16565b81600160028110610e1357610e126140d3565b5b01545b90506006600082815260200190815260200160002060010160149054906101000a900460ff1615610e5457610e4a856127d3565b610e53816127d3565b5b5050505050565b600060049054906101000a900463ffffffff1681565b60066020528060005260406000206000915090508060000160009054906101000a900463ffffffff16908060000160049054906101000a900473ffffffffffffffffffffffffffffffffffffffff16908060010160009054906101000a900473ffffffffffffffffffffffffffffffffffffffff16908060010160149054906101000a900460ff16908060010160159054906101000a900460ff16908060010160169054906101000a900467ffffffffffffffff169080600101601e9054906101000a900460ff16908060020154905088565b6000600360008363ffffffff1663ffffffff16815260200190815260200160002090506000600260008360000160149054906101000a900463ffffffff1663ffffffff1663ffffffff16815260200190815260200160002090508060000160009054906101000a900473ffffffffffffffffffffffffffffffffffffffff1673ffffffffffffffffffffffffffffffffffffffff163373ffffffffffffffffffffffffffffffffffffffff1614611027576040517f6b7809b900000000000000000000000000000000000000000000000000000000815260040160405180910390fd5b60038081111561103a57611039613911565b5b8260000160189054906101000a900460ff16600381111561105e5761105d613911565b5b14611095576040517f1f3b5f9300000000000000000000000000000000000000000000000000000000815260040160405180910390fd5b6000801b82600201819055508263ffffffff167f4dd9e91265ab49336afbb9eab0fdc5b4a36e65a6cdd5e19a93ab44565d6ebfc960405160405180910390a2505050565b600760205281600052604060002081600281106110f557600080fd5b01600091509150505481565b6008602052816000526040600020602052806000526040600020600091509150508060000154908060010160009054906101000a900460ff16905082565b611147612ea8565b6000600360008363ffffffff1663ffffffff16815260200190815260200160002090506000600260008360000160149054906101000a900463ffffffff1663ffffffff1663ffffffff1681526020019081526020016000209050600060038111156111b5576111b4613911565b5b8260000160189054906101000a900460ff1660038111156111d9576111d8613911565b5b1415801561121d5750600160038111156111f6576111f5613911565b5b8260000160189054906101000a900460ff16600381111561121a57611219613911565b5b14155b15611254576040517f71c8f46000000000000000000000000000000000000000000000000000000000815260040160405180910390fd5b60008260010160109054906101000a900467ffffffffffffffff1667ffffffffffffffff16421190506001600381111561129157611290613911565b5b8360000160189054906101000a900460ff1660038111156112b5576112b4613911565b5b03611354578260000160009054906101000a900473ffffffffffffffffffffffffffffffffffffffff1673ffffffffffffffffffffffffffffffffffffffff163373ffffffffffffffffffffffffffffffffffffffff1614158015611318575080155b1561134f576040517fb29ba3b900000000000000000000000000000000000000000000000000000000815260040160405180910390fd5b611446565b8260000160009054906101000a900473ffffffffffffffffffffffffffffffffffffffff1673ffffffffffffffffffffffffffffffffffffffff163373ffffffffffffffffffffffffffffffffffffffff161415801561140457508160000160009054906101000a900473ffffffffffffffffffffffffffffffffffffffff1673ffffffffffffffffffffffffffffffffffffffff163373ffffffffffffffffffffffffffffffffffffffff1614155b801561140e575080155b15611445576040517f3d693ada00000000000000000000000000000000000000000000000000000000815260040160405180910390fd5b5b60008360000160009054906101000a900473ffffffffffffffffffffffffffffffffffffffff16905060008460010160009054906101000a90046fffffffffffffffffffffffffffffffff166fffffffffffffffffffffffffffffffff16905060038560000160186101000a81548160ff021916908360038111156114ce576114cd613911565b5b021790555060038460000160146101000a81548160ff021916908360038111156114fb576114fa613911565b5b02179055508563ffffffff167fa6a2eb5c45aee3821a738c1beb0dade684d1189539bab9d4f634c00de2449e7a60405160405180910390a261153d8282612ecb565b505050505061154a612f73565b50565b6000826affffffffffffffffffffff1603611594576040517f1d25a35500000000000000000000000000000000000000000000000000000000815260040160405180910390fd5b6000801b81036115d0576040517f835103a300000000000000000000000000000000000000000000000000000000815260040160405180910390fd5b600080600081819054906101000a900463ffffffff166115ef90614158565b91906101000a81548163ffffffff021916908363ffffffff1602179055905060405180608001604052803373ffffffffffffffffffffffffffffffffffffffff1681526020016000600381111561164957611648613911565b5b8152602001846affffffffffffffffffffff16815260200183815250600260008363ffffffff1663ffffffff16815260200190815260200160002060008201518160000160006101000a81548173ffffffffffffffffffffffffffffffffffffffff021916908373ffffffffffffffffffffffffffffffffffffffff16021790555060208201518160000160146101000a81548160ff021916908360038111156116f6576116f5613911565b5b021790555060408201518160000160156101000a8154816affffffffffffffffffffff02191690836affffffffffffffffffffff160217905550606082015181600101559050508063ffffffff167f7845f789baa17703c3db3bf849155053cc12b41ec3717601321581d0420b4d7f836040516117739190614184565b60405180910390a2505050565b60015481565b60036020528060005260406000206000915090508060000160009054906101000a900473ffffffffffffffffffffffffffffffffffffffff16908060000160149054906101000a900463ffffffff16908060000160189054906101000a900460ff16908060010160009054906101000a90046fffffffffffffffffffffffffffffffff16908060010160109054906101000a900467ffffffffffffffff16908060010160189054906101000a900467ffffffffffffffff16908060020154908060030154905088565b611857612ea8565b6000600360008363ffffffff1663ffffffff16815260200190815260200160002090506000600260008360000160149054906101000a900463ffffffff1663ffffffff1663ffffffff1681526020019081526020016000209050600160038111156118c5576118c4613911565b5b8260000160189054906101000a900460ff1660038111156118e9576118e8613911565b5b14611920576040517f448ad72300000000000000000000000000000000000000000000000000000000815260040160405180910390fd5b6203f4808260010160189054906101000a900467ffffffffffffffff16611947919061419f565b67ffffffffffffffff164211611989576040517f6362f00c00000000000000000000000000000000000000000000000000000000815260040160405180910390fd5b60008160000160009054906101000a900473ffffffffffffffffffffffffffffffffffffffff16905060008360000160009054906101000a900473ffffffffffffffffffffffffffffffffffffffff16905060008460010160009054906101000a90046fffffffffffffffffffffffffffffffff166fffffffffffffffffffffffffffffffff16905060028560000160186101000a81548160ff02191690836003811115611a3a57611a39613911565b5b021790555060028460000160146101000a81548160ff02191690836003811115611a6757611a66613911565b5b0217905550611a77868385612f8e565b8563ffffffff167f735ac8e4dde3032ae26b362ee588a0417b5b9546dd4840d3a5c7b9d74bf4193a60405160405180910390a2611ab48382612ecb565b5050505050611ac1612f73565b50565b60046020528060005260406000206000915090508060000154908060010154908060020160009054906101000a90046fffffffffffffffffffffffffffffffff16905083565b611b12613638565b600260008363ffffffff1663ffffffff1681526020019081526020016000206040518060800160405290816000820160009054906101000a900473ffffffffffffffffffffffffffffffffffffffff1673ffffffffffffffffffffffffffffffffffffffff1673ffffffffffffffffffffffffffffffffffffffff1681526020016000820160149054906101000a900460ff166003811115611bb757611bb6613911565b5b6003811115611bc957611bc8613911565b5b81526020016000820160159054906101000a90046affffffffffffffffffffff166affffffffffffffffffffff166affffffffffffffffffffff1681526020016001820154815250509050919050565b66b1a2bc2ec5000081565b611c2c612ea8565b6000600260008463ffffffff1663ffffffff1681526020019081526020016000209050600073ffffffffffffffffffffffffffffffffffffffff168160000160009054906101000a900473ffffffffffffffffffffffffffffffffffffffff1673ffffffffffffffffffffffffffffffffffffffff1603611cd9576040517f8957d2fa00000000000000000000000000000000000000000000000000000000815260040160405180910390fd5b60006003811115611ced57611cec613911565b5b8160000160149054906101000a900460ff166003811115611d1157611d10613911565b5b14611d48576040517f5857de5800000000000000000000000000000000000000000000000000000000815260040160405180910390fd5b8060000160159054906101000a90046affffffffffffffffffffff166affffffffffffffffffffff163414611da9576040517fd183fe4300000000000000000000000000000000000000000000000000000000815260040160405180910390fd5b8060000160009054906101000a900473ffffffffffffffffffffffffffffffffffffffff1673ffffffffffffffffffffffffffffffffffffffff163373ffffffffffffffffffffffffffffffffffffffff1603611e32576040517f3377569700000000000000000000000000000000000000000000000000000000815260040160405180910390fd5b600080600481819054906101000a900463ffffffff16611e5190614158565b91906101000a81548163ffffffff021916908363ffffffff160217905590506040518061010001604052803373ffffffffffffffffffffffffffffffffffffffff1681526020018563ffffffff16815260200160006003811115611eb857611eb7613911565b5b8152602001346fffffffffffffffffffffffffffffffff16815260200162093a8042611ee4919061409f565b67ffffffffffffffff168152602001600067ffffffffffffffff1681526020016000801b815260200184815250600360008363ffffffff1663ffffffff16815260200190815260200160002060008201518160000160006101000a81548173ffffffffffffffffffffffffffffffffffffffff021916908373ffffffffffffffffffffffffffffffffffffffff16021790555060208201518160000160146101000a81548163ffffffff021916908363ffffffff16021790555060408201518160000160186101000a81548160ff02191690836003811115611fc957611fc8613911565b5b021790555060608201518160010160006101000a8154816fffffffffffffffffffffffffffffffff02191690836fffffffffffffffffffffffffffffffff16021790555060808201518160010160106101000a81548167ffffffffffffffff021916908367ffffffffffffffff16021790555060a08201518160010160186101000a81548167ffffffffffffffff021916908367ffffffffffffffff16021790555060c0820151816002015560e0820151816003015590505060018260000160146101000a81548160ff021916908360038111156120aa576120a9613911565b5b02179055508063ffffffff167f9a6364067673fbbe84fe5265fd47f18424db0db1cf0bc6f4989ef6a17d92dc0560405160405180910390a250506120ec612f73565b5050565b6000600360008463ffffffff1663ffffffff16815260200190815260200160002090506000600260008360000160149054906101000a900463ffffffff1663ffffffff1663ffffffff16815260200190815260200160002090508060000160009054906101000a900473ffffffffffffffffffffffffffffffffffffffff1673ffffffffffffffffffffffffffffffffffffffff163373ffffffffffffffffffffffffffffffffffffffff16146121d3576040517f6b7809b900000000000000000000000000000000000000000000000000000000815260040160405180910390fd5b600060038111156121e7576121e6613911565b5b8260000160189054906101000a900460ff16600381111561220b5761220a613911565b5b14612242576040517f1a99ec7c00000000000000000000000000000000000000000000000000000000815260040160405180910390fd5b6000801b830361227e576040517f7cf64fe300000000000000000000000000000000000000000000000000000000815260040160405180910390fd5b60018260000160186101000a81548160ff021916908360038111156122a6576122a5613911565b5b0217905550428260010160186101000a81548167ffffffffffffffff021916908367ffffffffffffffff1602179055508282600201819055508363ffffffff167fb9f9fff2a594bbac9c2407f11e62b2f80303f566b013f015eb5a77d1b5bb4540846040516123159190614184565b60405180910390a250505050565b61232b613698565b600360008363ffffffff1663ffffffff168152602001908152602001600020604051806101000160405290816000820160009054906101000a900473ffffffffffffffffffffffffffffffffffffffff1673ffffffffffffffffffffffffffffffffffffffff1673ffffffffffffffffffffffffffffffffffffffff1681526020016000820160149054906101000a900463ffffffff1663ffffffff1663ffffffff1681526020016000820160189054906101000a900460ff1660038111156123f7576123f6613911565b5b600381111561240957612408613911565b5b81526020016001820160009054906101000a90046fffffffffffffffffffffffffffffffff166fffffffffffffffffffffffffffffffff166fffffffffffffffffffffffffffffffff1681526020016001820160109054906101000a900467ffffffffffffffff1667ffffffffffffffff1667ffffffffffffffff1681526020016001820160189054906101000a900467ffffffffffffffff1667ffffffffffffffff1667ffffffffffffffff168152602001600282015481526020016003820154815250509050919050565b600080600760008463ffffffff168152602001908152602001600020600060028110612505576125046140d3565b5b0154600760008563ffffffff168152602001908152602001600020600160028110612533576125326140d3565b5b015491509150915091565b612546612ea8565b6000600360008363ffffffff1663ffffffff16815260200190815260200160002090506000600260008360000160149054906101000a900463ffffffff1663ffffffff1663ffffffff16815260200190815260200160002090508160000160009054906101000a900473ffffffffffffffffffffffffffffffffffffffff1673ffffffffffffffffffffffffffffffffffffffff163373ffffffffffffffffffffffffffffffffffffffff1614612629576040517fd6d90f8900000000000000000000000000000000000000000000000000000000815260040160405180910390fd5b6001600381111561263d5761263c613911565b5b8260000160189054906101000a900460ff16600381111561266157612660613911565b5b14612698576040517f18d5a0ce00000000000000000000000000000000000000000000000000000000815260040160405180910390fd5b60008160000160009054906101000a900473ffffffffffffffffffffffffffffffffffffffff16905060008360000160009054906101000a900473ffffffffffffffffffffffffffffffffffffffff16905060008460010160009054906101000a90046fffffffffffffffffffffffffffffffff166fffffffffffffffffffffffffffffffff16905060028560000160186101000a81548160ff0219169083600381111561274957612748613911565b5b021790555060028460000160146101000a81548160ff0219169083600381111561277657612775613911565b5b0217905550612786868385612f8e565b8563ffffffff167f735ac8e4dde3032ae26b362ee588a0417b5b9546dd4840d3a5c7b9d74bf4193a60405160405180910390a26127c38382612ecb565b50505050506127d0612f73565b50565b60006006600083815260200190815260200160002090508060010160149054906101000a900460ff16158061281657508060010160159054906101000a900460ff165b156128215750612e22565b6000600360008360000160009054906101000a900463ffffffff1663ffffffff1663ffffffff16815260200190815260200160002090506000600260008360000160149054906101000a900463ffffffff1663ffffffff1663ffffffff168152602001908152602001600020905060018360010160156101000a81548160ff02191690831515021790555060006129208360010160009054906101000a90046fffffffffffffffffffffffffffffffff166fffffffffffffffffffffffffffffffff168460010160189054906101000a900467ffffffffffffffff168660010160169054906101000a900467ffffffffffffffff16876002015461348b565b90508160000160009054906101000a900473ffffffffffffffffffffffffffffffffffffffff1673ffffffffffffffffffffffffffffffffffffffff168460010160009054906101000a900473ffffffffffffffffffffffffffffffffffffffff1673ffffffffffffffffffffffffffffffffffffffff1603612b7f578084600101601e9054906101000a900460ff1660ff166129bd9190613ffd565b600460008660010160009054906101000a900473ffffffffffffffffffffffffffffffffffffffff1673ffffffffffffffffffffffffffffffffffffffff1673ffffffffffffffffffffffffffffffffffffffff1681526020019081526020016000206000016000828254612a32919061409f565b9250508190555080600460008660010160009054906101000a900473ffffffffffffffffffffffffffffffffffffffff1673ffffffffffffffffffffffffffffffffffffffff1673ffffffffffffffffffffffffffffffffffffffff1681526020019081526020016000206001016000828254612aaf919061409f565b92505081905550600460008560010160009054906101000a900473ffffffffffffffffffffffffffffffffffffffff1673ffffffffffffffffffffffffffffffffffffffff1673ffffffffffffffffffffffffffffffffffffffff168152602001908152602001600020600201600081819054906101000a90046fffffffffffffffffffffffffffffffff16612b44906141db565b91906101000a8154816fffffffffffffffffffffffffffffffff02191690836fffffffffffffffffffffffffffffffff160217905550612d5d565b8084600101601e9054906101000a900460ff1660ff16612b9f9190613ffd565b600560008660010160009054906101000a900473ffffffffffffffffffffffffffffffffffffffff1673ffffffffffffffffffffffffffffffffffffffff1673ffffffffffffffffffffffffffffffffffffffff1681526020019081526020016000206000016000828254612c14919061409f565b9250508190555080600560008660010160009054906101000a900473ffffffffffffffffffffffffffffffffffffffff1673ffffffffffffffffffffffffffffffffffffffff1673ffffffffffffffffffffffffffffffffffffffff1681526020019081526020016000206001016000828254612c91919061409f565b92505081905550600560008560010160009054906101000a900473ffffffffffffffffffffffffffffffffffffffff1673ffffffffffffffffffffffffffffffffffffffff1673ffffffffffffffffffffffffffffffffffffffff168152602001908152602001600020600201600081819054906101000a90046fffffffffffffffffffffffffffffffff16612d26906141db565b91906101000a8154816fffffffffffffffffffffffffffffffff02191690836fffffffffffffffffffffffffffffffff1602179055505b8360010160009054906101000a900473ffffffffffffffffffffffffffffffffffffffff1673ffffffffffffffffffffffffffffffffffffffff168460000160049054906101000a900473ffffffffffffffffffffffffffffffffffffffff1673ffffffffffffffffffffffffffffffffffffffff167f846e7c60f8a40d0939121c546970f0fe070f449b6f35538cac9aeec2d8d88b2e86600101601e9054906101000a900460ff1684604051612e15929190614244565b60405180910390a3505050505b50565b66b1a2bc2ec50000600960008373ffffffffffffffffffffffffffffffffffffffff1673ffffffffffffffffffffffffffffffffffffffff168152602001908152602001600020541015612ea5576040517ff1bc94d200000000000000000000000000000000000000000000000000000000815260040160405180910390fd5b50565b612eb06135a4565b6002612ec2612ebd6135e5565b613610565b60000181905550565b60008273ffffffffffffffffffffffffffffffffffffffff1682604051612ef19061429e565b60006040518083038185875af1925050503d8060008114612f2e576040519150601f19603f3d011682016040523d82523d6000602084013e612f33565b606091505b5050905080612f6e576040517f90b8ec1800000000000000000000000000000000000000000000000000000000815260040160405180910390fd5b505050565b6001612f85612f806135e5565b613610565b60000181905550565b600160008154612f9d906142b3565b919050819055506040518061010001604052808463ffffffff1681526020018373ffffffffffffffffffffffffffffffffffffffff1681526020018273ffffffffffffffffffffffffffffffffffffffff168152602001600015158152602001600015158152602001600067ffffffffffffffff168152602001600060ff16815260200162093a8042613030919061409f565b81525060066000600154815260200190815260200160002060008201518160000160006101000a81548163ffffffff021916908363ffffffff16021790555060208201518160000160046101000a81548173ffffffffffffffffffffffffffffffffffffffff021916908373ffffffffffffffffffffffffffffffffffffffff16021790555060408201518160010160006101000a81548173ffffffffffffffffffffffffffffffffffffffff021916908373ffffffffffffffffffffffffffffffffffffffff16021790555060608201518160010160146101000a81548160ff02191690831515021790555060808201518160010160156101000a81548160ff02191690831515021790555060a08201518160010160166101000a81548167ffffffffffffffff021916908367ffffffffffffffff16021790555060c082015181600101601e6101000a81548160ff021916908360ff16021790555060e08201518160020155905050600154600760008563ffffffff1681526020019081526020016000206000600281106131c9576131c86140d3565b5b01819055506001547f988de847d31b0fe942aa43da2017020c82213a2bc10f17f436d97d39d2c68f7e83836040516132029291906142fb565b60405180910390a2600160008154613219906142b3565b919050819055506040518061010001604052808463ffffffff1681526020018273ffffffffffffffffffffffffffffffffffffffff1681526020018373ffffffffffffffffffffffffffffffffffffffff168152602001600015158152602001600015158152602001600067ffffffffffffffff168152602001600060ff16815260200162093a80426132ac919061409f565b81525060066000600154815260200190815260200160002060008201518160000160006101000a81548163ffffffff021916908363ffffffff16021790555060208201518160000160046101000a81548173ffffffffffffffffffffffffffffffffffffffff021916908373ffffffffffffffffffffffffffffffffffffffff16021790555060408201518160010160006101000a81548173ffffffffffffffffffffffffffffffffffffffff021916908373ffffffffffffffffffffffffffffffffffffffff16021790555060608201518160010160146101000a81548160ff02191690831515021790555060808201518160010160156101000a81548160ff02191690831515021790555060a08201518160010160166101000a81548167ffffffffffffffff021916908367ffffffffffffffff16021790555060c082015181600101601e6101000a81548160ff021916908360ff16021790555060e08201518160020155905050600154600760008563ffffffff168152602001908152602001600020600160028110613445576134446140d3565b5b01819055506001547f988de847d31b0fe942aa43da2017020c82213a2bc10f17f436d97d39d2c68f7e828460405161347e9291906142fb565b60405180910390a2505050565b600080620151808567ffffffffffffffff168567ffffffffffffffff166134b29190614324565b6134bc919061406e565b90506000606482106134cf5760016134dd565b8160646134dc9190614324565b5b9050600062093a80856134f09190614324565b90506000818767ffffffffffffffff161161350c576000613531565b62015180828867ffffffffffffffff166135269190614324565b613530919061406e565b5b9050600060078210613544576001613552565b8160076135519190614324565b5b9050600066038d7ea4c680008b10156135725766038d7ea4c68000613574565b8a5b905066038d7ea4c68000818361358a9190613ffd565b613594919061406e565b9650505050505050949350505050565b6135ac61361a565b156135e3576040517f3ee5aeb500000000000000000000000000000000000000000000000000000000815260040160405180910390fd5b565b60007f9b779b17422d0df92223018b32b4d1fa46e071723d6817e2486d003becc55f0060001b905090565b6000819050919050565b6000600261362e6136296135e5565b613610565b6000015414905090565b6040518060800160405280600073ffffffffffffffffffffffffffffffffffffffff1681526020016000600381111561367457613673613911565b5b815260200160006affffffffffffffffffffff168152602001600080191681525090565b604051806101000160405280600073ffffffffffffffffffffffffffffffffffffffff168152602001600063ffffffff168152602001600060038111156136e2576136e1613911565b5b815260200160006fffffffffffffffffffffffffffffffff168152602001600067ffffffffffffffff168152602001600067ffffffffffffffff16815260200160008019168152602001600080191681525090565b600080fd5b600073ffffffffffffffffffffffffffffffffffffffff82169050919050565b60006137678261373c565b9050919050565b6137778161375c565b811461378257600080fd5b50565b6000813590506137948161376e565b92915050565b6000602082840312156137b0576137af613737565b5b60006137be84828501613785565b91505092915050565b6000819050919050565b6137da816137c7565b82525050565b60006fffffffffffffffffffffffffffffffff82169050919050565b613805816137e0565b82525050565b600060608201905061382060008301866137d1565b61382d60208301856137d1565b61383a60408301846137fc565b949350505050565b600063ffffffff82169050919050565b61385b81613842565b82525050565b60006020820190506138766000830184613852565b92915050565b600060208201905061389160008301846137d1565b92915050565b6138a081613842565b81146138ab57600080fd5b50565b6000813590506138bd81613897565b92915050565b6000602082840312156138d9576138d8613737565b5b60006138e7848285016138ae565b91505092915050565b60006138fb8261373c565b9050919050565b61390b816138f0565b82525050565b7f4e487b7100000000000000000000000000000000000000000000000000000000600052602160045260246000fd5b6004811061395157613950613911565b5b50565b600081905061396282613940565b919050565b600061397282613954565b9050919050565b61398281613967565b82525050565b60006affffffffffffffffffffff82169050919050565b6139a881613988565b82525050565b6000819050919050565b6139c1816139ae565b82525050565b60006080820190506139dc6000830187613902565b6139e96020830186613979565b6139f6604083018561399f565b613a0360608301846139b8565b95945050505050565b613a15816137c7565b8114613a2057600080fd5b50565b600081359050613a3281613a0c565b92915050565b600060ff82169050919050565b613a4e81613a38565b8114613a5957600080fd5b50565b600081359050613a6b81613a45565b92915050565b60008060408385031215613a8857613a87613737565b5b6000613a9685828601613a23565b9250506020613aa785828601613a5c565b9150509250929050565b600060208284031215613ac757613ac6613737565b5b6000613ad584828501613a23565b91505092915050565b613ae78161375c565b82525050565b60008115159050919050565b613b0281613aed565b82525050565b600067ffffffffffffffff82169050919050565b613b2581613b08565b82525050565b613b3481613a38565b82525050565b600061010082019050613b50600083018b613852565b613b5d602083018a613ade565b613b6a6040830189613ade565b613b776060830188613af9565b613b846080830187613af9565b613b9160a0830186613b1c565b613b9e60c0830185613b2b565b613bab60e08301846137d1565b9998505050505050505050565b60008060408385031215613bcf57613bce613737565b5b6000613bdd85828601613a23565b9250506020613bee85828601613a23565b9150509250929050565b60008060408385031215613c0f57613c0e613737565b5b6000613c1d85828601613a23565b9250506020613c2e85828601613785565b9150509250929050565b6000604082019050613c4d60008301856139b8565b613c5a6020830184613af9565b9392505050565b613c6a81613988565b8114613c7557600080fd5b50565b600081359050613c8781613c61565b92915050565b613c96816139ae565b8114613ca157600080fd5b50565b600081359050613cb381613c8d565b92915050565b60008060408385031215613cd057613ccf613737565b5b6000613cde85828601613c78565b9250506020613cef85828601613ca4565b9150509250929050565b60048110613d0a57613d09613911565b5b50565b6000819050613d1b82613cf9565b919050565b6000613d2b82613d0d565b9050919050565b613d3b81613d20565b82525050565b600061010082019050613d57600083018b613902565b613d64602083018a613852565b613d716040830189613d32565b613d7e60608301886137fc565b613d8b6080830187613b1c565b613d9860a0830186613b1c565b613da560c08301856139b8565b613db260e08301846139b8565b9998505050505050505050565b613dc8816138f0565b82525050565b613dd781613967565b82525050565b613de681613988565b82525050565b613df5816139ae565b82525050565b608082016000820151613e116000850182613dbf565b506020820151613e246020850182613dce565b506040820151613e376040850182613ddd565b506060820151613e4a6060850182613dec565b50505050565b6000608082019050613e656000830184613dfb565b92915050565b60008060408385031215613e8257613e81613737565b5b6000613e90858286016138ae565b9250506020613ea185828601613ca4565b9150509250929050565b613eb481613842565b82525050565b613ec381613d20565b82525050565b613ed2816137e0565b82525050565b613ee181613b08565b82525050565b61010082016000820151613efe6000850182613dbf565b506020820151613f116020850182613eab565b506040820151613f246040850182613eba565b506060820151613f376060850182613ec9565b506080820151613f4a6080850182613ed8565b5060a0820151613f5d60a0850182613ed8565b5060c0820151613f7060c0850182613dec565b5060e0820151613f8360e0850182613dec565b50505050565b600061010082019050613f9f6000830184613ee7565b92915050565b6000604082019050613fba60008301856137d1565b613fc760208301846137d1565b9392505050565b7f4e487b7100000000000000000000000000000000000000000000000000000000600052601160045260246000fd5b6000614008826137c7565b9150614013836137c7565b9250828202614021816137c7565b9150828204841483151761403857614037613fce565b5b5092915050565b7f4e487b7100000000000000000000000000000000000000000000000000000000600052601260045260246000fd5b6000614079826137c7565b9150614084836137c7565b9250826140945761409361403f565b5b828204905092915050565b60006140aa826137c7565b91506140b5836137c7565b92508282019050808211156140cd576140cc613fce565b5b92915050565b7f4e487b7100000000000000000000000000000000000000000000000000000000600052603260045260246000fd5b6000819050919050565b600061412761412261411d84613842565b614102565b6137c7565b9050919050565b6141378161410c565b82525050565b6000602082019050614152600083018461412e565b92915050565b600061416382613842565b915063ffffffff820361417957614178613fce565b5b600182019050919050565b600060208201905061419960008301846139b8565b92915050565b60006141aa82613b08565b91506141b583613b08565b9250828201905067ffffffffffffffff8111156141d5576141d4613fce565b5b92915050565b60006141e6826137e0565b91506fffffffffffffffffffffffffffffffff820361420857614207613fce565b5b600182019050919050565b600061422e61422961422484613a38565b614102565b6137c7565b9050919050565b61423e81614213565b82525050565b60006040820190506142596000830185614235565b61426660208301846137d1565b9392505050565b600081905092915050565b50565b600061428860008361426d565b915061429382614278565b600082019050919050565b60006142a98261427b565b9150819050919050565b60006142be826137c7565b91507fffffffffffffffffffffffffffffffffffffffffffffffffffffffffffffffff82036142f0576142ef613fce565b5b600182019050919050565b60006040820190506143106000830185613ade565b61431d6020830184613ade565b9392505050565b600061432f826137c7565b915061433a836137c7565b925082820390508181111561435257614351613fce565b5b9291505056fea264697066735822122017b143c94f72e54333c67202f3074ef0a7f64d86e579840ebd3e15a4bb710c7064736f6c634300081c0033",
  "linkReferences": {},
  "deployedLinkReferences": {}
}