{
  "_format": "hh-sol-artifact-1",
  "contractName": "FreelanceEscrowV2",
  "sourceName": "contracts/FreelancerEscrow.sol",
  "abi": [
    {
      "inputs": [],
      "name": "AlreadyRated",
      "type": "error"
    },
    {
      "inputs": [],
      "name": "AlreadyRevealed",
      "type": "error"
    },
    {
      "inputs": [],
      "name": "CannotHireYourself",
      "type": "error"
    },
    {
      "inputs": [],
      "name": "CommitNotFound",
      "type": "error"
    },
    {
      "inputs": [],
      "name": "FreelancerCannotCancelSubmitted",
      "type": "error"
    },
    {
      "inputs": [],
      "name": "IncorrectETH",
      "type": "error"
    },
    {
      "inputs": [],
      "name": "InsufficientStake",
      "type": "error"
    },
    {
      "inputs": [],
      "name": "InvalidJob",
      "type": "error"
    },
    {
      "inputs": [],
      "name": "InvalidJobState",
      "type": "error"
    },
    {
      "inputs": [],
      "name": "InvalidReveal",
      "type": "error"
    },
    {
      "inputs": [],
      "name": "InvalidScore",
      "type": "error"
    },
    {
      "inputs": [],
      "name": "InvalidService",
      "type": "error"
    },
    {
      "inputs": [],
      "name": "JobNotCancelled",
      "type": "error"
    },
    {
      "inputs": [],
      "name": "JobNotCompleted",
      "type": "error"
    },
    {
      "inputs": [],
      "name": "MetadataCidRequired",
      "type": "error"
    },
    {
      "inputs": [],
      "name": "NotAllowed",
      "type": "error"
    },
    {
      "inputs": [],
      "name": "NotReviewer",
      "type": "error"
    },
    {
      "inputs": [],
      "name": "NotSubmitted",
      "type": "error"
    },
    {
      "inputs": [],
      "name": "OnlyClient",
      "type": "error"
    },
    {
      "inputs": [],
      "name": "OnlyFreelancer",
      "type": "error"
    },
    {
      "inputs": [],
      "name": "PriceMustBePositive",
      "type": "error"
    },
    {
      "inputs": [],
      "name": "ReentrancyGuardReentrantCall",
      "type": "error"
    },
    {
      "inputs": [],
      "name": "ReviewWindowNotClosed",
      "type": "error"
    },
    {
      "inputs": [],
      "name": "ServiceNotAvailable",
      "type": "error"
    },
    {
      "inputs": [],
      "name": "TokenUsed",
      "type": "error"
    },
    {
      "inputs": [],
      "name": "TooEarlyForAutoRelease",
      "type": "error"
    },
    {
      "inputs": [],
      "name": "TransferFailed",
      "type": "error"
    },
    {
      "inputs": [],
      "name": "WorkCidRequired",
      "type": "error"
    },
    {
      "inputs": [],
      "name": "WorkNotSubmitted",
      "type": "error"
    },
    {
      "anonymous": false,
      "inputs": [
        {
          "indexed": true,
          "internalType": "address",
          "name": "reviewer",
          "type": "address"
        },
        {
          "indexed": true,
          "internalType": "address",
          "name": "reviewee",
          "type": "address"
        },
        {
          "indexed": false,
          "internalType": "uint256",
          "name": "score",
          "type": "uint256"
        },
        {
          "indexed": false,
          "internalType": "uint256",
          "name": "weight",
          "type": "uint256"
        }
      ],
      "name": "FeedbackApplied",
      "type": "event"
    },
    {
      "anonymous": false,
      "inputs": [
        {
          "indexed": true,
          "internalType": "address",
          "name": "reviewer",
          "type": "address"
        },
        {
          "indexed": false,
          "internalType": "uint256",
          "name": "jobId",
          "type": "uint256"
        }
      ],
      "name": "FeedbackSubmitted",
      "type": "event"
    },
    {
      "anonymous": false,
      "inputs": [
        {
          "indexed": true,
          "internalType": "uint256",
          "name": "tokenId",
          "type": "uint256"
        },
        {
          "indexed": false,
          "internalType": "address",
          "name": "reviewer",
          "type": "address"
        },
        {
          "indexed": false,
          "internalType": "address",
          "name": "reviewee",
          "type": "address"
        }
      ],
      "name": "FeedbackTokenIssued",
      "type": "event"
    },
    {
      "anonymous": false,
      "inputs": [
        {
          "indexed": true,
          "internalType": "uint32",
          "name": "jobId",
          "type": "uint32"
        }
      ],
      "name": "JobCancelled",
      "type": "event"
    },
    {
      "anonymous": false,
      "inputs": [
        {
          "indexed": true,
          "internalType": "uint32",
          "name": "jobId",
          "type": "uint32"
        }
      ],
      "name": "JobCompleted",
      "type": "event"
    },
    {
      "anonymous": false,
      "inputs": [
        {
          "indexed": true,
          "internalType": "uint32",
          "name": "jobId",
          "type": "uint32"
        }
      ],
      "name": "JobCreated",
      "type": "event"
    },
    {
      "anonymous": false,
      "inputs": [
        {
          "indexed": true,
          "internalType": "uint32",
          "name": "serviceId",
          "type": "uint32"
        },
        {
          "indexed": false,
          "internalType": "bytes32",
          "name": "metadataCid",
          "type": "bytes32"
        }
      ],
      "name": "ServiceListed",
      "type": "event"
    },
    {
      "anonymous": false,
      "inputs": [
        {
          "indexed": true,
          "internalType": "address",
          "name": "user",
          "type": "address"
        },
        {
          "indexed": false,
          "internalType": "uint256",
          "name": "amount",
          "type": "uint256"
        }
      ],
      "name": "StakeDeposited",
      "type": "event"
    },
    {
      "anonymous": false,
      "inputs": [
        {
          "indexed": true,
          "internalType": "uint32",
          "name": "jobId",
          "type": "uint32"
        }
      ],
      "name": "WorkCleared",
      "type": "event"
    },
    {
      "anonymous": false,
      "inputs": [
        {
          "indexed": true,
          "internalType": "uint32",
          "name": "jobId",
          "type": "uint32"
        },
        {
          "indexed": false,
          "internalType": "bytes32",
          "name": "workCid",
          "type": "bytes32"
        }
      ],
      "name": "WorkSubmitted",
      "type": "event"
    },
    {
      "inputs": [],
      "name": "MIN_STAKE",
      "outputs": [
        {
          "internalType": "uint256",
          "name": "",
          "type": "uint256"
        }
      ],
      "stateMutability": "view",
      "type": "function"
    },
    {
      "inputs": [
        {
          "internalType": "uint32",
          "name": "jobId",
          "type": "uint32"
        }
      ],
      "name": "autoRelease",
      "outputs": [],
      "stateMutability": "nonpayable",
      "type": "function"
    },
    {
      "inputs": [
        {
          "internalType": "uint32",
          "name": "jobId",
          "type": "uint32"
        }
      ],
      "name": "cancelJob",
      "outputs": [],
      "stateMutability": "nonpayable",
      "type": "function"
    },
    {
      "inputs": [
        {
          "internalType": "uint32",
          "name": "jobId",
          "type": "uint32"
        }
      ],
      "name": "clearWork",
      "outputs": [],
      "stateMutability": "nonpayable",
      "type": "function"
    },
    {
      "inputs": [
        {
          "internalType": "address",
          "name": "",
          "type": "address"
        }
      ],
      "name": "clientRep",
      "outputs": [
        {
          "internalType": "uint256",
          "name": "weightedScoreSum",
          "type": "uint256"
        },
        {
          "internalType": "uint256",
          "name": "weightSum",
          "type": "uint256"
        },
        {
          "internalType": "uint128",
          "name": "totalJobs",
          "type": "uint128"
        }
      ],
      "stateMutability": "view",
      "type": "function"
    },
    {
      "inputs": [
        {
          "internalType": "uint256",
          "name": "",
          "type": "uint256"
        },
        {
          "internalType": "address",
          "name": "",
          "type": "address"
        }
      ],
      "name": "commits",
      "outputs": [
        {
          "internalType": "bytes32",
          "name": "hash",
          "type": "bytes32"
        },
        {
          "internalType": "bool",
          "name": "revealed",
          "type": "bool"
        }
      ],
      "stateMutability": "view",
      "type": "function"
    },
    {
      "inputs": [
        {
          "internalType": "uint32",
          "name": "jobId",
          "type": "uint32"
        }
      ],
      "name": "confirmCompletion",
      "outputs": [],
      "stateMutability": "nonpayable",
      "type": "function"
    },
    {
      "inputs": [],
      "name": "depositStake",
      "outputs": [],
      "stateMutability": "payable",
      "type": "function"
    },
    {
      "inputs": [
        {
          "internalType": "uint32",
          "name": "jobId",
          "type": "uint32"
        }
      ],
      "name": "finalizeReview",
      "outputs": [],
      "stateMutability": "nonpayable",
      "type": "function"
    },
    {
      "inputs": [
        {
          "internalType": "address",
          "name": "",
          "type": "address"
        }
      ],
      "name": "freelancerRep",
      "outputs": [
        {
          "internalType": "uint256",
          "name": "weightedScoreSum",
          "type": "uint256"
        },
        {
          "internalType": "uint256",
          "name": "weightSum",
          "type": "uint256"
        },
        {
          "internalType": "uint128",
          "name": "totalJobs",
          "type": "uint128"
        }
      ],
      "stateMutability": "view",
      "type": "function"
    },
    {
      "inputs": [
        {
          "internalType": "address",
          "name": "client",
          "type": "address"
        }
      ],
      "name": "getClientReputation",
      "outputs": [
        {
          "internalType": "uint256",
          "name": "avgScoreScaled",
          "type": "uint256"
        },
        {
          "internalType": "uint256",
          "name": "totalWeight",
          "type": "uint256"
        },
        {
          "internalType": "uint128",
          "name": "totalJobs",
          "type": "uint128"
        }
      ],
      "stateMutability": "view",
      "type": "function"
    },
    {
      "inputs": [
        {
          "internalType": "address",
          "name": "freelancer",
          "type": "address"
        }
      ],
      "name": "getFreelancerReputation",
      "outputs": [
        {
          "internalType": "uint256",
          "name": "avgScoreScaled",
          "type": "uint256"
        },
        {
          "internalType": "uint256",
          "name": "totalWeight",
          "type": "uint256"
        },
        {
          "internalType": "uint128",
          "name": "totalJobs",
          "type": "uint128"
        }
      ],
      "stateMutability": "view",
      "type": "function"
    },
    {
      "inputs": [
        {
          "internalType": "uint32",
          "name": "id",
          "type": "uint32"
        }
      ],
      "name": "getJob",
      "outputs": [
        {
          "components": [
            {
              "internalType": "address payable",
              "name": "client",
              "type": "address"
            },
            {
              "internalType": "uint32",
              "name": "serviceId",
              "type": "uint32"
            },
            {
              "internalType": "enum FreelanceEscrowV2.JobStatus",
              "name": "status",
              "type": "uint8"
            },
            {
              "internalType": "uint128",
              "name": "amount",
              "type": "uint128"
            },
            {
              "internalType": "uint64",
              "name": "deadline",
              "type": "uint64"
            },
            {
              "internalType": "uint64",
              "name": "submittedAt",
              "type": "uint64"
            },
            {
              "internalType": "bytes32",
              "name": "workCid",
              "type": "bytes32"
            }
          ],
          "internalType": "struct FreelanceEscrowV2.Job",
          "name": "",
          "type": "tuple"
        }
      ],
      "stateMutability": "view",
      "type": "function"
    },
    {
      "inputs": [
        {
          "internalType": "uint32",
          "name": "jobId",
          "type": "uint32"
        }
      ],
      "name": "getJobTokens",
      "outputs": [
        {
          "internalType": "uint256",
          "name": "clientToken",
          "type": "uint256"
        },
        {
          "internalType": "uint256",
          "name": "freelancerToken",
          "type": "uint256"
        }
      ],
      "stateMutability": "view",
      "type": "function"
    },
    {
      "inputs": [
        {
          "internalType": "uint32",
          "name": "id",
          "type": "uint32"
        }
      ],
      "name": "getService",
      "outputs": [
        {
          "components": [
            {
              "internalType": "address payable",
              "name": "freelancer",
              "type": "address"
            },
            {
              "internalType": "enum FreelanceEscrowV2.ServiceStatus",
              "name": "status",
              "type": "uint8"
            },
            {
              "internalType": "uint88",
              "name": "priceWei",
              "type": "uint88"
            },
            {
              "internalType": "bytes32",
              "name": "metadataCid",
              "type": "bytes32"
            }
          ],
          "internalType": "struct FreelanceEscrowV2.Service",
          "name": "",
          "type": "tuple"
        }
      ],
      "stateMutability": "view",
      "type": "function"
    },
    {
      "inputs": [
        {
          "internalType": "uint32",
          "name": "serviceId",
          "type": "uint32"
        }
      ],
      "name": "hireFreelancer",
      "outputs": [],
      "stateMutability": "payable",
      "type": "function"
    },
    {
      "inputs": [],
      "name": "jobCount",
      "outputs": [
        {
          "internalType": "uint32",
          "name": "",
          "type": "uint32"
        }
      ],
      "stateMutability": "view",
      "type": "function"
    },
    {
      "inputs": [
        {
          "internalType": "uint256",
          "name": "",
          "type": "uint256"
        },
        {
          "internalType": "uint256",
          "name": "",
          "type": "uint256"
        }
      ],
      "name": "jobTokens",
      "outputs": [
        {
          "internalType": "uint256",
          "name": "",
          "type": "uint256"
        }
      ],
      "stateMutability": "view",
      "type": "function"
    },
    {
      "inputs": [
        {
          "internalType": "uint32",
          "name": "",
          "type": "uint32"
        }
      ],
      "name": "jobs",
      "outputs": [
        {
          "internalType": "address payable",
          "name": "client",
          "type": "address"
        },
        {
          "internalType": "uint32",
          "name": "serviceId",
          "type": "uint32"
        },
        {
          "internalType": "enum FreelanceEscrowV2.JobStatus",
          "name": "status",
          "type": "uint8"
        },
        {
          "internalType": "uint128",
          "name": "amount",
          "type": "uint128"
        },
        {
          "internalType": "uint64",
          "name": "deadline",
          "type": "uint64"
        },
        {
          "internalType": "uint64",
          "name": "submittedAt",
          "type": "uint64"
        },
        {
          "internalType": "bytes32",
          "name": "workCid",
          "type": "bytes32"
        }
      ],
      "stateMutability": "view",
      "type": "function"
    },
    {
      "inputs": [
        {
          "internalType": "uint88",
          "name": "priceWei",
          "type": "uint88"
        },
        {
          "internalType": "bytes32",
          "name": "metadataCid",
          "type": "bytes32"
        }
      ],
      "name": "offerService",
      "outputs": [],
      "stateMutability": "nonpayable",
      "type": "function"
    },
    {
      "inputs": [],
      "name": "serviceCount",
      "outputs": [
        {
          "internalType": "uint32",
          "name": "",
          "type": "uint32"
        }
      ],
      "stateMutability": "view",
      "type": "function"
    },
    {
      "inputs": [
        {
          "internalType": "uint32",
          "name": "",
          "type": "uint32"
        }
      ],
      "name": "services",
      "outputs": [
        {
          "internalType": "address payable",
          "name": "freelancer",
          "type": "address"
        },
        {
          "internalType": "enum FreelanceEscrowV2.ServiceStatus",
          "name": "status",
          "type": "uint8"
        },
        {
          "internalType": "uint88",
          "name": "priceWei",
          "type": "uint88"
        },
        {
          "internalType": "bytes32",
          "name": "metadataCid",
          "type": "bytes32"
        }
      ],
      "stateMutability": "view",
      "type": "function"
    },
    {
      "inputs": [
        {
          "internalType": "address",
          "name": "",
          "type": "address"
        }
      ],
      "name": "stakes",
      "outputs": [
        {
          "internalType": "uint256",
          "name": "",
          "type": "uint256"
        }
      ],
      "stateMutability": "view",
      "type": "function"
    },
    {
      "inputs": [
        {
          "internalType": "uint256",
          "name": "tokenId",
          "type": "uint256"
        },
        {
          "internalType": "uint8",
          "name": "score",
          "type": "uint8"
        }
      ],
      "name": "submitFeedback",
      "outputs": [],
      "stateMutability": "nonpayable",
      "type": "function"
    },
    {
      "inputs": [
        {
          "internalType": "uint32",
          "name": "jobId",
          "type": "uint32"
        },
        {
          "internalType": "bytes32",
          "name": "workCid",
          "type": "bytes32"
        }
      ],
      "name": "submitWork",
      "outputs": [],
      "stateMutability": "nonpayable",
      "type": "function"
    },
    {
      "inputs": [],
      "name": "tokenCount",
      "outputs": [
        {
          "internalType": "uint256",
          "name": "",
          "type": "uint256"
        }
      ],
      "stateMutability": "view",
      "type": "function"
    },
    {
      "inputs": [
        {
          "internalType": "uint256",
          "name": "",
          "type": "uint256"
        }
      ],
      "name": "tokens",
      "outputs": [
        {
          "internalType": "uint32",
          "name": "jobId",
          "type": "uint32"
        },
        {
          "internalType": "address",
          "name": "reviewer",
          "type": "address"
        },
        {
          "internalType": "address",
          "name": "reviewee",
          "type": "address"
        },
        {
          "internalType": "bool",
          "name": "used",
          "type": "bool"
        },
        {
          "internalType": "bool",
          "name": "applied",
          "type": "bool"
        },
        {
          "internalType": "uint64",
          "name": "reviewedAt",
          "type": "uint64"
        },
        {
          "internalType": "uint8",
          "name": "score",
          "type": "uint8"
        },
        {
          "internalType": "uint256",
          "name": "expiry",
          "type": "uint256"
        }
      ],
      "stateMutability": "view",
      "type": "function"
    }
  ],
  "bytecode": "0x6080604052348015600f57600080fd5b506001602a6020603560201b60201c565b606060201b60201c565b60000181905550606a565b60007f9b779b17422d0df92223018b32b4d1fa46e071723d6817e2486d003becc55f0060001b905090565b6000819050919050565b614346806100796000396000f3fe60806040526004361061019c5760003560e01c80636b2bb0c3116100ec578063c0fdb0e91161008a578063deb8e12a11610064578063deb8e12a14610621578063e21e6da01461064a578063fba0471a14610687578063fbdf715b146106c55761019c565b8063c0fdb0e91461057a578063c60f3e39146105b9578063cb1c2b5c146105f65761019c565b8063980d871d116100c6578063980d871d146104ba5780639f181b5e146104e3578063a85f50291461050e578063b703a853146105515761019c565b80636b2bb0c314610416578063885d68a8146104535780638eb533ef146104915761019c565b806323735124116101595780634c5d8a0f116101335780634c5d8a0f146103625780634f64b2be1461038d57806351a119cd146103d15780636040b14d146103ed5761019c565b806323735124146102d0578063247ed1aa146102f95780632a84f72f146103395761019c565b806304199ee7146101a157806306237526146101e05780630d2d76a21461020b57806316934fc4146102155780631efb3ba414610252578063211997ac14610291575b600080fd5b3480156101ad57600080fd5b506101c860048036038101906101c39190613776565b6106ee565b6040516101d7939291906137e7565b60405180910390f35b3480156101ec57600080fd5b506101f56107f4565b604051610202919061383d565b60405180910390f35b610213610808565b005b34801561022157600080fd5b5061023c60048036038101906102379190613776565b6108ef565b6040516102499190613858565b60405180910390f35b34801561025e57600080fd5b5061027960048036038101906102749190613776565b610907565b604051610288939291906137e7565b60405180910390f35b34801561029d57600080fd5b506102b860048036038101906102b39190613776565b610a0d565b6040516102c7939291906137e7565b60405180910390f35b3480156102dc57600080fd5b506102f760048036038101906102f2919061389f565b610a53565b005b34801561030557600080fd5b50610320600480360381019061031b919061389f565b610b1b565b60405161033094939291906139a3565b60405180910390f35b34801561034557600080fd5b50610360600480360381019061035b9190613a4d565b610b8f565b005b34801561036e57600080fd5b50610377610e5a565b604051610384919061383d565b60405180910390f35b34801561039957600080fd5b506103b460048036038101906103af9190613a8d565b610e70565b6040516103c8989796959493929190613b16565b60405180910390f35b6103eb60048036038101906103e6919061389f565b610f43565b005b3480156103f957600080fd5b50610414600480360381019061040f919061389f565b6113fd565b005b34801561042257600080fd5b5061043d60048036038101906104389190613b94565b611592565b60405161044a9190613858565b60405180910390f35b34801561045f57600080fd5b5061047a60048036038101906104759190613bd4565b6115ba565b604051610488929190613c14565b60405180910390f35b34801561049d57600080fd5b506104b860048036038101906104b3919061389f565b6115f8565b005b3480156104c657600080fd5b506104e160048036038101906104dc9190613c95565b611a06565b005b3480156104ef57600080fd5b506104f8611c39565b6040516105059190613858565b60405180910390f35b34801561051a57600080fd5b506105356004803603810190610530919061389f565b611c3f565b6040516105489796959493929190613d1d565b60405180910390f35b34801561055d57600080fd5b506105786004803603810190610573919061389f565b611d02565b005b34801561058657600080fd5b506105a1600480360381019061059c9190613776565b611f77565b6040516105b0939291906137e7565b60405180910390f35b3480156105c557600080fd5b506105e060048036038101906105db919061389f565b611fbd565b6040516105ed9190613e1d565b60405180910390f35b34801561060257600080fd5b5061060b6120cc565b6040516106189190613858565b60405180910390f35b34801561062d57600080fd5b5061064860048036038101906106439190613e38565b6120d7565b005b34801561065657600080fd5b50610671600480360381019061066c919061389f565b61230a565b60405161067e9190613f42565b60405180910390f35b34801561069357600080fd5b506106ae60048036038101906106a9919061389f565b6124b2565b6040516106bc929190613f5d565b60405180910390f35b3480156106d157600080fd5b506106ec60048036038101906106e7919061389f565b61251a565b005b600080600080600460008673ffffffffffffffffffffffffffffffffffffffff1673ffffffffffffffffffffffffffffffffffffffff16815260200190815260200160002060405180606001604052908160008201548152602001600182015481526020016002820160009054906101000a90046fffffffffffffffffffffffffffffffff166fffffffffffffffffffffffffffffffff166fffffffffffffffffffffffffffffffff1681525050905060008160200151036107bb576000806000935093509350506107ed565b8060200151606482600001516107d19190613fb5565b6107db9190614026565b81602001518260400151935093509350505b9193909250565b60008054906101000a900463ffffffff1681565b66b1a2bc2ec50000341015610849576040517ff1bc94d200000000000000000000000000000000000000000000000000000000815260040160405180910390fd5b34600960003373ffffffffffffffffffffffffffffffffffffffff1673ffffffffffffffffffffffffffffffffffffffff16815260200190815260200160002060008282546108989190614057565b925050819055503373ffffffffffffffffffffffffffffffffffffffff167f0a7bb2e28cc4698aac06db79cf9163bfcc20719286cf59fa7d492ceda1b8edc2346040516108e59190613858565b60405180910390a2565b60096020528060005260406000206000915090505481565b600080600080600560008673ffffffffffffffffffffffffffffffffffffffff1673ffffffffffffffffffffffffffffffffffffffff16815260200190815260200160002060405180606001604052908160008201548152602001600182015481526020016002820160009054906101000a90046fffffffffffffffffffffffffffffffff166fffffffffffffffffffffffffffffffff166fffffffffffffffffffffffffffffffff1681525050905060008160200151036109d457600080600093509350935050610a06565b8060200151606482600001516109ea9190613fb5565b6109f49190614026565b81602001518260400151935093509350505b9193909250565b60056020528060005260406000206000915090508060000154908060010154908060020160009054906101000a90046fffffffffffffffffffffffffffffffff16905083565b6000600760008363ffffffff168152602001908152602001600020905060006006600083600060028110610a8a57610a8961408b565b5b0154815260200190815260200160002090508060020154421015610ada576040517ffe2495d500000000000000000000000000000000000000000000000000000000815260040160405180910390fd5b610af882600060028110610af157610af061408b565b5b01546127af565b610b1682600160028110610b0f57610b0e61408b565b5b01546127af565b505050565b60026020528060005260406000206000915090508060000160009054906101000a900473ffffffffffffffffffffffffffffffffffffffff16908060000160149054906101000a900460ff16908060000160159054906101000a90046affffffffffffffffffffff16908060010154905084565b60006006600084815260200190815260200160002090508060000160049054906101000a900473ffffffffffffffffffffffffffffffffffffffff1673ffffffffffffffffffffffffffffffffffffffff163373ffffffffffffffffffffffffffffffffffffffff1614610c2f576040517f6fb5ffbc00000000000000000000000000000000000000000000000000000000815260040160405180910390fd5b8060010160149054906101000a900460ff1615610c78576040517f7f59bede00000000000000000000000000000000000000000000000000000000815260040160405180910390fd5b60018260ff161080610c8d575060058260ff16115b15610cc4576040517f1556136500000000000000000000000000000000000000000000000000000000815260040160405180910390fd5b610ccd33612e01565b8181600101601e6101000a81548160ff021916908360ff16021790555060018160010160146101000a81548160ff021916908315150217905550428160010160166101000a81548167ffffffffffffffff021916908367ffffffffffffffff1602179055503373ffffffffffffffffffffffffffffffffffffffff167f3494da8299378c89270f3c8834caa828238425ae6ec329b573eb123c948e9d7d8260000160009054906101000a900463ffffffff16604051610d8c91906140f5565b60405180910390a26000600760008360000160009054906101000a900463ffffffff1663ffffffff168152602001908152602001600020905060008482600060028110610ddc57610ddb61408b565b5b015414610dfe5781600060028110610df757610df661408b565b5b0154610e15565b81600160028110610e1257610e1161408b565b5b01545b90506006600082815260200190815260200160002060010160149054906101000a900460ff1615610e5357610e49856127af565b610e52816127af565b5b5050505050565b600060049054906101000a900463ffffffff1681565b60066020528060005260406000206000915090508060000160009054906101000a900463ffffffff16908060000160049054906101000a900473ffffffffffffffffffffffffffffffffffffffff16908060010160009054906101000a900473ffffffffffffffffffffffffffffffffffffffff16908060010160149054906101000a900460ff16908060010160159054906101000a900460ff16908060010160169054906101000a900467ffffffffffffffff169080600101601e9054906101000a900460ff16908060020154905088565b610f4b612e84565b6000600260008363ffffffff1663ffffffff1681526020019081526020016000209050600073ffffffffffffffffffffffffffffffffffffffff168160000160009054906101000a900473ffffffffffffffffffffffffffffffffffffffff1673ffffffffffffffffffffffffffffffffffffffff1603610ff8576040517f8957d2fa00000000000000000000000000000000000000000000000000000000815260040160405180910390fd5b6000600381111561100c5761100b6138ed565b5b8160000160149054906101000a900460ff1660038111156110305761102f6138ed565b5b14611067576040517f5857de5800000000000000000000000000000000000000000000000000000000815260040160405180910390fd5b8060000160159054906101000a90046affffffffffffffffffffff166affffffffffffffffffffff1634146110c8576040517fd183fe4300000000000000000000000000000000000000000000000000000000815260040160405180910390fd5b8060000160009054906101000a900473ffffffffffffffffffffffffffffffffffffffff1673ffffffffffffffffffffffffffffffffffffffff163373ffffffffffffffffffffffffffffffffffffffff1603611151576040517f3377569700000000000000000000000000000000000000000000000000000000815260040160405180910390fd5b600080600481819054906101000a900463ffffffff1661117090614110565b91906101000a81548163ffffffff021916908363ffffffff160217905590506040518060e001604052803373ffffffffffffffffffffffffffffffffffffffff1681526020018463ffffffff168152602001600060038111156111d6576111d56138ed565b5b8152602001346fffffffffffffffffffffffffffffffff16815260200162093a80426112029190614057565b67ffffffffffffffff168152602001600067ffffffffffffffff1681526020016000801b815250600360008363ffffffff1663ffffffff16815260200190815260200160002060008201518160000160006101000a81548173ffffffffffffffffffffffffffffffffffffffff021916908373ffffffffffffffffffffffffffffffffffffffff16021790555060208201518160000160146101000a81548163ffffffff021916908363ffffffff16021790555060408201518160000160186101000a81548160ff021916908360038111156112e1576112e06138ed565b5b021790555060608201518160010160006101000a8154816fffffffffffffffffffffffffffffffff02191690836fffffffffffffffffffffffffffffffff16021790555060808201518160010160106101000a81548167ffffffffffffffff021916908367ffffffffffffffff16021790555060a08201518160010160186101000a81548167ffffffffffffffff021916908367ffffffffffffffff16021790555060c0820151816002015590505060018260000160146101000a81548160ff021916908360038111156113b8576113b76138ed565b5b02179055508063ffffffff167f9a6364067673fbbe84fe5265fd47f18424db0db1cf0bc6f4989ef6a17d92dc0560405160405180910390a250506113fa612ea7565b50565b6000600360008363ffffffff1663ffffffff16815260200190815260200160002090506000600260008360000160149054906101000a900463ffffffff1663ffffffff1663ffffffff16815260200190815260200160002090508060000160009054906101000a900473ffffffffffffffffffffffffffffffffffffffff1673ffffffffffffffffffffffffffffffffffffffff163373ffffffffffffffffffffffffffffffffffffffff16146114e0576040517f6b7809b900000000000000000000000000000000000000000000000000000000815260040160405180910390fd5b6003808111156114f3576114f26138ed565b5b8260000160189054906101000a900460ff166003811115611517576115166138ed565b5b1461154e576040517f1f3b5f9300000000000000000000000000000000000000000000000000000000815260040160405180910390fd5b6000801b82600201819055508263ffffffff167f4dd9e91265ab49336afbb9eab0fdc5b4a36e65a6cdd5e19a93ab44565d6ebfc960405160405180910390a2505050565b600760205281600052604060002081600281106115ae57600080fd5b01600091509150505481565b6008602052816000526040600020602052806000526040600020600091509150508060000154908060010160009054906101000a900460ff16905082565b611600612e84565b6000600360008363ffffffff1663ffffffff16815260200190815260200160002090506000600260008360000160149054906101000a900463ffffffff1663ffffffff1663ffffffff16815260200190815260200160002090506000600381111561166e5761166d6138ed565b5b8260000160189054906101000a900460ff166003811115611692576116916138ed565b5b141580156116d65750600160038111156116af576116ae6138ed565b5b8260000160189054906101000a900460ff1660038111156116d3576116d26138ed565b5b14155b1561170d576040517f71c8f46000000000000000000000000000000000000000000000000000000000815260040160405180910390fd5b60008260010160109054906101000a900467ffffffffffffffff1667ffffffffffffffff16421190506001600381111561174a576117496138ed565b5b8360000160189054906101000a900460ff16600381111561176e5761176d6138ed565b5b0361180d578260000160009054906101000a900473ffffffffffffffffffffffffffffffffffffffff1673ffffffffffffffffffffffffffffffffffffffff163373ffffffffffffffffffffffffffffffffffffffff16141580156117d1575080155b15611808576040517fb29ba3b900000000000000000000000000000000000000000000000000000000815260040160405180910390fd5b6118ff565b8260000160009054906101000a900473ffffffffffffffffffffffffffffffffffffffff1673ffffffffffffffffffffffffffffffffffffffff163373ffffffffffffffffffffffffffffffffffffffff16141580156118bd57508160000160009054906101000a900473ffffffffffffffffffffffffffffffffffffffff1673ffffffffffffffffffffffffffffffffffffffff163373ffffffffffffffffffffffffffffffffffffffff1614155b80156118c7575080155b156118fe576040517f3d693ada00000000000000000000000000000000000000000000000000000000815260040160405180910390fd5b5b60008360000160009054906101000a900473ffffffffffffffffffffffffffffffffffffffff16905060008460010160009054906101000a90046fffffffffffffffffffffffffffffffff166fffffffffffffffffffffffffffffffff16905060038560000160186101000a81548160ff02191690836003811115611987576119866138ed565b5b021790555060038460000160146101000a81548160ff021916908360038111156119b4576119b36138ed565b5b02179055508563ffffffff167fa6a2eb5c45aee3821a738c1beb0dade684d1189539bab9d4f634c00de2449e7a60405160405180910390a26119f68282612ec2565b5050505050611a03612ea7565b50565b6000826affffffffffffffffffffff1603611a4d576040517f1d25a35500000000000000000000000000000000000000000000000000000000815260040160405180910390fd5b6000801b8103611a89576040517f835103a300000000000000000000000000000000000000000000000000000000815260040160405180910390fd5b600080600081819054906101000a900463ffffffff16611aa890614110565b91906101000a81548163ffffffff021916908363ffffffff1602179055905060405180608001604052803373ffffffffffffffffffffffffffffffffffffffff16815260200160006003811115611b0257611b016138ed565b5b8152602001846affffffffffffffffffffff16815260200183815250600260008363ffffffff1663ffffffff16815260200190815260200160002060008201518160000160006101000a81548173ffffffffffffffffffffffffffffffffffffffff021916908373ffffffffffffffffffffffffffffffffffffffff16021790555060208201518160000160146101000a81548160ff02191690836003811115611baf57611bae6138ed565b5b021790555060408201518160000160156101000a8154816affffffffffffffffffffff02191690836affffffffffffffffffffff160217905550606082015181600101559050508063ffffffff167f7845f789baa17703c3db3bf849155053cc12b41ec3717601321581d0420b4d7f83604051611c2c919061413c565b60405180910390a2505050565b60015481565b60036020528060005260406000206000915090508060000160009054906101000a900473ffffffffffffffffffffffffffffffffffffffff16908060000160149054906101000a900463ffffffff16908060000160189054906101000a900460ff16908060010160009054906101000a90046fffffffffffffffffffffffffffffffff16908060010160109054906101000a900467ffffffffffffffff16908060010160189054906101000a900467ffffffffffffffff16908060020154905087565b611d0a612e84565b6000600360008363ffffffff1663ffffffff16815260200190815260200160002090506000600260008360000160149054906101000a900463ffffffff1663ffffffff1663ffffffff168152602001908152602001600020905060016003811115611d7857611d776138ed565b5b8260000160189054906101000a900460ff166003811115611d9c57611d9b6138ed565b5b14611dd3576040517f448ad72300000000000000000000000000000000000000000000000000000000815260040160405180910390fd5b6203f4808260010160189054906101000a900467ffffffffffffffff16611dfa9190614157565b67ffffffffffffffff164211611e3c576040517f6362f00c00000000000000000000000000000000000000000000000000000000815260040160405180910390fd5b60008160000160009054906101000a900473ffffffffffffffffffffffffffffffffffffffff16905060008360000160009054906101000a900473ffffffffffffffffffffffffffffffffffffffff16905060008460010160009054906101000a90046fffffffffffffffffffffffffffffffff166fffffffffffffffffffffffffffffffff16905060028560000160186101000a81548160ff02191690836003811115611eed57611eec6138ed565b5b021790555060028460000160146101000a81548160ff02191690836003811115611f1a57611f196138ed565b5b0217905550611f2a868385612f6a565b8563ffffffff167f735ac8e4dde3032ae26b362ee588a0417b5b9546dd4840d3a5c7b9d74bf4193a60405160405180910390a2611f678382612ec2565b5050505050611f74612ea7565b50565b60046020528060005260406000206000915090508060000154908060010154908060020160009054906101000a90046fffffffffffffffffffffffffffffffff16905083565b611fc561361f565b600260008363ffffffff1663ffffffff1681526020019081526020016000206040518060800160405290816000820160009054906101000a900473ffffffffffffffffffffffffffffffffffffffff1673ffffffffffffffffffffffffffffffffffffffff1673ffffffffffffffffffffffffffffffffffffffff1681526020016000820160149054906101000a900460ff16600381111561206a576120696138ed565b5b600381111561207c5761207b6138ed565b5b81526020016000820160159054906101000a90046affffffffffffffffffffff166affffffffffffffffffffff166affffffffffffffffffffff1681526020016001820154815250509050919050565b66b1a2bc2ec5000081565b6000600360008463ffffffff1663ffffffff16815260200190815260200160002090506000600260008360000160149054906101000a900463ffffffff1663ffffffff1663ffffffff16815260200190815260200160002090508060000160009054906101000a900473ffffffffffffffffffffffffffffffffffffffff1673ffffffffffffffffffffffffffffffffffffffff163373ffffffffffffffffffffffffffffffffffffffff16146121ba576040517f6b7809b900000000000000000000000000000000000000000000000000000000815260040160405180910390fd5b600060038111156121ce576121cd6138ed565b5b8260000160189054906101000a900460ff1660038111156121f2576121f16138ed565b5b14612229576040517f1a99ec7c00000000000000000000000000000000000000000000000000000000815260040160405180910390fd5b6000801b8303612265576040517f7cf64fe300000000000000000000000000000000000000000000000000000000815260040160405180910390fd5b60018260000160186101000a81548160ff0219169083600381111561228d5761228c6138ed565b5b0217905550428260010160186101000a81548167ffffffffffffffff021916908367ffffffffffffffff1602179055508282600201819055508363ffffffff167fb9f9fff2a594bbac9c2407f11e62b2f80303f566b013f015eb5a77d1b5bb4540846040516122fc919061413c565b60405180910390a250505050565b61231261367f565b600360008363ffffffff1663ffffffff1681526020019081526020016000206040518060e00160405290816000820160009054906101000a900473ffffffffffffffffffffffffffffffffffffffff1673ffffffffffffffffffffffffffffffffffffffff1673ffffffffffffffffffffffffffffffffffffffff1681526020016000820160149054906101000a900463ffffffff1663ffffffff1663ffffffff1681526020016000820160189054906101000a900460ff1660038111156123dd576123dc6138ed565b5b60038111156123ef576123ee6138ed565b5b81526020016001820160009054906101000a90046fffffffffffffffffffffffffffffffff166fffffffffffffffffffffffffffffffff166fffffffffffffffffffffffffffffffff1681526020016001820160109054906101000a900467ffffffffffffffff1667ffffffffffffffff1667ffffffffffffffff1681526020016001820160189054906101000a900467ffffffffffffffff1667ffffffffffffffff1667ffffffffffffffff1681526020016002820154815250509050919050565b600080600760008463ffffffff1681526020019081526020016000206000600281106124e1576124e061408b565b5b0154600760008563ffffffff16815260200190815260200160002060016002811061250f5761250e61408b565b5b015491509150915091565b612522612e84565b6000600360008363ffffffff1663ffffffff16815260200190815260200160002090506000600260008360000160149054906101000a900463ffffffff1663ffffffff1663ffffffff16815260200190815260200160002090508160000160009054906101000a900473ffffffffffffffffffffffffffffffffffffffff1673ffffffffffffffffffffffffffffffffffffffff163373ffffffffffffffffffffffffffffffffffffffff1614612605576040517fd6d90f8900000000000000000000000000000000000000000000000000000000815260040160405180910390fd5b60016003811115612619576126186138ed565b5b8260000160189054906101000a900460ff16600381111561263d5761263c6138ed565b5b14612674576040517f18d5a0ce00000000000000000000000000000000000000000000000000000000815260040160405180910390fd5b60008160000160009054906101000a900473ffffffffffffffffffffffffffffffffffffffff16905060008360000160009054906101000a900473ffffffffffffffffffffffffffffffffffffffff16905060008460010160009054906101000a90046fffffffffffffffffffffffffffffffff166fffffffffffffffffffffffffffffffff16905060028560000160186101000a81548160ff02191690836003811115612725576127246138ed565b5b021790555060028460000160146101000a81548160ff02191690836003811115612752576127516138ed565b5b0217905550612762868385612f6a565b8563ffffffff167f735ac8e4dde3032ae26b362ee588a0417b5b9546dd4840d3a5c7b9d74bf4193a60405160405180910390a261279f8382612ec2565b50505050506127ac612ea7565b50565b60006006600083815260200190815260200160002090508060010160149054906101000a900460ff1615806127f257508060010160159054906101000a900460ff165b156127fd5750612dfe565b6000600360008360000160009054906101000a900463ffffffff1663ffffffff1663ffffffff16815260200190815260200160002090506000600260008360000160149054906101000a900463ffffffff1663ffffffff1663ffffffff168152602001908152602001600020905060018360010160156101000a81548160ff02191690831515021790555060006128fc8360010160009054906101000a90046fffffffffffffffffffffffffffffffff166fffffffffffffffffffffffffffffffff168460010160189054906101000a900467ffffffffffffffff168660010160169054906101000a900467ffffffffffffffff168760020154613467565b90508160000160009054906101000a900473ffffffffffffffffffffffffffffffffffffffff1673ffffffffffffffffffffffffffffffffffffffff168460010160009054906101000a900473ffffffffffffffffffffffffffffffffffffffff1673ffffffffffffffffffffffffffffffffffffffff1603612b5b578084600101601e9054906101000a900460ff1660ff166129999190613fb5565b600460008660010160009054906101000a900473ffffffffffffffffffffffffffffffffffffffff1673ffffffffffffffffffffffffffffffffffffffff1673ffffffffffffffffffffffffffffffffffffffff1681526020019081526020016000206000016000828254612a0e9190614057565b9250508190555080600460008660010160009054906101000a900473ffffffffffffffffffffffffffffffffffffffff1673ffffffffffffffffffffffffffffffffffffffff1673ffffffffffffffffffffffffffffffffffffffff1681526020019081526020016000206001016000828254612a8b9190614057565b92505081905550600460008560010160009054906101000a900473ffffffffffffffffffffffffffffffffffffffff1673ffffffffffffffffffffffffffffffffffffffff1673ffffffffffffffffffffffffffffffffffffffff168152602001908152602001600020600201600081819054906101000a90046fffffffffffffffffffffffffffffffff16612b2090614193565b91906101000a8154816fffffffffffffffffffffffffffffffff02191690836fffffffffffffffffffffffffffffffff160217905550612d39565b8084600101601e9054906101000a900460ff1660ff16612b7b9190613fb5565b600560008660010160009054906101000a900473ffffffffffffffffffffffffffffffffffffffff1673ffffffffffffffffffffffffffffffffffffffff1673ffffffffffffffffffffffffffffffffffffffff1681526020019081526020016000206000016000828254612bf09190614057565b9250508190555080600560008660010160009054906101000a900473ffffffffffffffffffffffffffffffffffffffff1673ffffffffffffffffffffffffffffffffffffffff1673ffffffffffffffffffffffffffffffffffffffff1681526020019081526020016000206001016000828254612c6d9190614057565b92505081905550600560008560010160009054906101000a900473ffffffffffffffffffffffffffffffffffffffff1673ffffffffffffffffffffffffffffffffffffffff1673ffffffffffffffffffffffffffffffffffffffff168152602001908152602001600020600201600081819054906101000a90046fffffffffffffffffffffffffffffffff16612d0290614193565b91906101000a8154816fffffffffffffffffffffffffffffffff02191690836fffffffffffffffffffffffffffffffff1602179055505b8360010160009054906101000a900473ffffffffffffffffffffffffffffffffffffffff1673ffffffffffffffffffffffffffffffffffffffff168460000160049054906101000a900473ffffffffffffffffffffffffffffffffffffffff1673ffffffffffffffffffffffffffffffffffffffff167f846e7c60f8a40d0939121c546970f0fe070f449b6f35538cac9aeec2d8d88b2e86600101601e9054906101000a900460ff1684604051612df19291906141fc565b60405180910390a3505050505b50565b66b1a2bc2ec50000600960008373ffffffffffffffffffffffffffffffffffffffff1673ffffffffffffffffffffffffffffffffffffffff168152602001908152602001600020541015612e81576040517ff1bc94d200000000000000000000000000000000000000000000000000000000815260040160405180910390fd5b50565b612e8c61358b565b6002612e9e612e996135cc565b6135f7565b60000181905550565b6001612eb9612eb46135cc565b6135f7565b60000181905550565b60008273ffffffffffffffffffffffffffffffffffffffff1682604051612ee890614256565b60006040518083038185875af1925050503d8060008114612f25576040519150601f19603f3d011682016040523d82523d6000602084013e612f2a565b606091505b5050905080612f65576040517f90b8ec1800000000000000000000000000000000000000000000000000000000815260040160405180910390fd5b505050565b600160008154612f799061426b565b919050819055506040518061010001604052808463ffffffff1681526020018373ffffffffffffffffffffffffffffffffffffffff1681526020018273ffffffffffffffffffffffffffffffffffffffff168152602001600015158152602001600015158152602001600067ffffffffffffffff168152602001600060ff16815260200162093a804261300c9190614057565b81525060066000600154815260200190815260200160002060008201518160000160006101000a81548163ffffffff021916908363ffffffff16021790555060208201518160000160046101000a81548173ffffffffffffffffffffffffffffffffffffffff021916908373ffffffffffffffffffffffffffffffffffffffff16021790555060408201518160010160006101000a81548173ffffffffffffffffffffffffffffffffffffffff021916908373ffffffffffffffffffffffffffffffffffffffff16021790555060608201518160010160146101000a81548160ff02191690831515021790555060808201518160010160156101000a81548160ff02191690831515021790555060a08201518160010160166101000a81548167ffffffffffffffff021916908367ffffffffffffffff16021790555060c082015181600101601e6101000a81548160ff021916908360ff16021790555060e08201518160020155905050600154600760008563ffffffff1681526020019081526020016000206000600281106131a5576131a461408b565b5b01819055506001547f988de847d31b0fe942aa43da2017020c82213a2bc10f17f436d97d39d2c68f7e83836040516131de9291906142b3565b60405180910390a26001600081546131f59061426b565b919050819055506040518061010001604052808463ffffffff1681526020018273ffffffffffffffffffffffffffffffffffffffff1681526020018373ffffffffffffffffffffffffffffffffffffffff168152602001600015158152602001600015158152602001600067ffffffffffffffff168152602001600060ff16815260200162093a80426132889190614057565b81525060066000600154815260200190815260200160002060008201518160000160006101000a81548163ffffffff021916908363ffffffff16021790555060208201518160000160046101000a81548173ffffffffffffffffffffffffffffffffffffffff021916908373ffffffffffffffffffffffffffffffffffffffff16021790555060408201518160010160006101000a81548173ffffffffffffffffffffffffffffffffffffffff021916908373ffffffffffffffffffffffffffffffffffffffff16021790555060608201518160010160146101000a81548160ff02191690831515021790555060808201518160010160156101000a81548160ff02191690831515021790555060a08201518160010160166101000a81548167ffffffffffffffff021916908367ffffffffffffffff16021790555060c082015181600101601e6101000a81548160ff021916908360ff16021790555060e08201518160020155905050600154600760008563ffffffff1681526020019081526020016000206001600281106134215761342061408b565b5b01819055506001547f988de847d31b0fe942aa43da2017020c82213a2bc10f17f436d97d39d2c68f7e828460405161345a9291906142b3565b60405180910390a2505050565b600080620151808567ffffffffffffffff168567ffffffffffffffff1661348e91906142dc565b6134989190614026565b90506000606482106134ab5760016134b9565b8160646134b891906142dc565b5b9050600062093a80856134cc91906142dc565b90506000818767ffffffffffffffff16116134e857600061350d565b62015180828867ffffffffffffffff1661350291906142dc565b61350c9190614026565b5b905060006007821061352057600161352e565b81600761352d91906142dc565b5b9050600066038d7ea4c680008b101561354e5766038d7ea4c68000613550565b8a5b905066038d7ea4c680008183876135679190613fb5565b6135719190613fb5565b61357b9190614026565b9650505050505050949350505050565b613593613601565b156135ca576040517f3ee5aeb500000000000000000000000000000000000000000000000000000000815260040160405180910390fd5b565b60007f9b779b17422d0df92223018b32b4d1fa46e071723d6817e2486d003becc55f0060001b905090565b6000819050919050565b600060026136156136106135cc565b6135f7565b6000015414905090565b6040518060800160405280600073ffffffffffffffffffffffffffffffffffffffff1681526020016000600381111561365b5761365a6138ed565b5b815260200160006affffffffffffffffffffff168152602001600080191681525090565b6040518060e00160405280600073ffffffffffffffffffffffffffffffffffffffff168152602001600063ffffffff168152602001600060038111156136c8576136c76138ed565b5b815260200160006fffffffffffffffffffffffffffffffff168152602001600067ffffffffffffffff168152602001600067ffffffffffffffff168152602001600080191681525090565b600080fd5b600073ffffffffffffffffffffffffffffffffffffffff82169050919050565b600061374382613718565b9050919050565b61375381613738565b811461375e57600080fd5b50565b6000813590506137708161374a565b92915050565b60006020828403121561378c5761378b613713565b5b600061379a84828501613761565b91505092915050565b6000819050919050565b6137b6816137a3565b82525050565b60006fffffffffffffffffffffffffffffffff82169050919050565b6137e1816137bc565b82525050565b60006060820190506137fc60008301866137ad565b61380960208301856137ad565b61381660408301846137d8565b949350505050565b600063ffffffff82169050919050565b6138378161381e565b82525050565b6000602082019050613852600083018461382e565b92915050565b600060208201905061386d60008301846137ad565b92915050565b61387c8161381e565b811461388757600080fd5b50565b60008135905061389981613873565b92915050565b6000602082840312156138b5576138b4613713565b5b60006138c38482850161388a565b91505092915050565b60006138d782613718565b9050919050565b6138e7816138cc565b82525050565b7f4e487b7100000000000000000000000000000000000000000000000000000000600052602160045260246000fd5b6004811061392d5761392c6138ed565b5b50565b600081905061393e8261391c565b919050565b600061394e82613930565b9050919050565b61395e81613943565b82525050565b60006affffffffffffffffffffff82169050919050565b61398481613964565b82525050565b6000819050919050565b61399d8161398a565b82525050565b60006080820190506139b860008301876138de565b6139c56020830186613955565b6139d2604083018561397b565b6139df6060830184613994565b95945050505050565b6139f1816137a3565b81146139fc57600080fd5b50565b600081359050613a0e816139e8565b92915050565b600060ff82169050919050565b613a2a81613a14565b8114613a3557600080fd5b50565b600081359050613a4781613a21565b92915050565b60008060408385031215613a6457613a63613713565b5b6000613a72858286016139ff565b9250506020613a8385828601613a38565b9150509250929050565b600060208284031215613aa357613aa2613713565b5b6000613ab1848285016139ff565b91505092915050565b613ac381613738565b82525050565b60008115159050919050565b613ade81613ac9565b82525050565b600067ffffffffffffffff82169050919050565b613b0181613ae4565b82525050565b613b1081613a14565b82525050565b600061010082019050613b2c600083018b61382e565b613b39602083018a613aba565b613b466040830189613aba565b613b536060830188613ad5565b613b606080830187613ad5565b613b6d60a0830186613af8565b613b7a60c0830185613b07565b613b8760e08301846137ad565b9998505050505050505050565b60008060408385031215613bab57613baa613713565b5b6000613bb9858286016139ff565b9250506020613bca858286016139ff565b9150509250929050565b60008060408385031215613beb57613bea613713565b5b6000613bf9858286016139ff565b9250506020613c0a85828601613761565b9150509250929050565b6000604082019050613c296000830185613994565b613c366020830184613ad5565b9392505050565b613c4681613964565b8114613c5157600080fd5b50565b600081359050613c6381613c3d565b92915050565b613c728161398a565b8114613c7d57600080fd5b50565b600081359050613c8f81613c69565b92915050565b60008060408385031215613cac57613cab613713565b5b6000613cba85828601613c54565b9250506020613ccb85828601613c80565b9150509250929050565b60048110613ce657613ce56138ed565b5b50565b6000819050613cf782613cd5565b919050565b6000613d0782613ce9565b9050919050565b613d1781613cfc565b82525050565b600060e082019050613d32600083018a6138de565b613d3f602083018961382e565b613d4c6040830188613d0e565b613d5960608301876137d8565b613d666080830186613af8565b613d7360a0830185613af8565b613d8060c0830184613994565b98975050505050505050565b613d95816138cc565b82525050565b613da481613943565b82525050565b613db381613964565b82525050565b613dc28161398a565b82525050565b608082016000820151613dde6000850182613d8c565b506020820151613df16020850182613d9b565b506040820151613e046040850182613daa565b506060820151613e176060850182613db9565b50505050565b6000608082019050613e326000830184613dc8565b92915050565b60008060408385031215613e4f57613e4e613713565b5b6000613e5d8582860161388a565b9250506020613e6e85828601613c80565b9150509250929050565b613e818161381e565b82525050565b613e9081613cfc565b82525050565b613e9f816137bc565b82525050565b613eae81613ae4565b82525050565b60e082016000820151613eca6000850182613d8c565b506020820151613edd6020850182613e78565b506040820151613ef06040850182613e87565b506060820151613f036060850182613e96565b506080820151613f166080850182613ea5565b5060a0820151613f2960a0850182613ea5565b5060c0820151613f3c60c0850182613db9565b50505050565b600060e082019050613f576000830184613eb4565b92915050565b6000604082019050613f7260008301856137ad565b613f7f60208301846137ad565b9392505050565b7f4e487b7100000000000000000000000000000000000000000000000000000000600052601160045260246000fd5b6000613fc0826137a3565b9150613fcb836137a3565b9250828202613fd9816137a3565b91508282048414831517613ff057613fef613f86565b5b5092915050565b7f4e487b7100000000000000000000000000000000000000000000000000000000600052601260045260246000fd5b6000614031826137a3565b915061403c836137a3565b92508261404c5761404b613ff7565b5b828204905092915050565b6000614062826137a3565b915061406d836137a3565b925082820190508082111561408557614084613f86565b5b92915050565b7f4e487b7100000000000000000000000000000000000000000000000000000000600052603260045260246000fd5b6000819050919050565b60006140df6140da6140d58461381e565b6140ba565b6137a3565b9050919050565b6140ef816140c4565b82525050565b600060208201905061410a60008301846140e6565b92915050565b600061411b8261381e565b915063ffffffff820361413157614130613f86565b5b600182019050919050565b60006020820190506141516000830184613994565b92915050565b600061416282613ae4565b915061416d83613ae4565b9250828201905067ffffffffffffffff81111561418d5761418c613f86565b5b92915050565b600061419e826137bc565b91506fffffffffffffffffffffffffffffffff82036141c0576141bf613f86565b5b600182019050919050565b60006141e66141e16141dc84613a14565b6140ba565b6137a3565b9050919050565b6141f6816141cb565b82525050565b600060408201905061421160008301856141ed565b61421e60208301846137ad565b9392505050565b600081905092915050565b50565b6000614240600083614225565b915061424b82614230565b600082019050919050565b600061426182614233565b9150819050919050565b6000614276826137a3565b91507fffffffffffffffffffffffffffffffffffffffffffffffffffffffffffffffff82036142a8576142a7613f86565b5b600182019050919050565b60006040820190506142c86000830185613aba565b6142d56020830184613aba565b9392505050565b60006142e7826137a3565b91506142f2836137a3565b925082820390508181111561430a57614309613f86565b5b9291505056fea264697066735822122099079c3f61e24c42591c1321b623e4d49c14db7308a9f45af41fbeceabcc210b64736f6c634300081c0033",
  "linkReferences": {},
  "deployedLinkReferences": {}
}