{
  "_format": "hh-sol-artifact-1",
  "contractName": "FreelanceEscrow",
  "sourceName": "contracts/FreelancerEscrow.sol",
  "abi": [
    {
      "inputs": [],
      "name": "AlreadyRated",
      "type": "error"
    },
    {
      "inputs": [],
      "name": "AlreadyRevealed",
      "type": "error"
    },
    {
      "inputs": [],
      "name": "CannotHireYourself",
      "type": "error"
    },
    {
      "inputs": [],
      "name": "CommitNotFound",
      "type": "error"
    },
    {
      "inputs": [],
      "name": "DeadlineTooFar",
      "type": "error"
    },
    {
      "inputs": [],
      "name": "DeadlineTooSoon",
      "type": "error"
    },
    {
      "inputs": [],
      "name": "FreelancerCannotCancelSubmitted",
      "type": "error"
    },
    {
      "inputs": [],
      "name": "IncorrectETH",
      "type": "error"
    },
    {
      "inputs": [],
      "name": "InsufficientStake",
      "type": "error"
    },
    {
      "inputs": [],
      "name": "InvalidJob",
      "type": "error"
    },
    {
      "inputs": [],
      "name": "InvalidJobState",
      "type": "error"
    },
    {
      "inputs": [],
      "name": "InvalidReveal",
      "type": "error"
    },
    {
      "inputs": [],
      "name": "InvalidScore",
      "type": "error"
    },
    {
      "inputs": [],
      "name": "InvalidService",
      "type": "error"
    },
    {
      "inputs": [],
      "name": "JobNotCancelled",
      "type": "error"
    },
    {
      "inputs": [],
      "name": "JobNotCompleted",
      "type": "error"
    },
    {
      "inputs": [],
      "name": "MetadataCidRequired",
      "type": "error"
    },
    {
      "inputs": [],
      "name": "NotAllowed",
      "type": "error"
    },
    {
      "inputs": [],
      "name": "NotReviewer",
      "type": "error"
    },
    {
      "inputs": [],
      "name": "NotSubmitted",
      "type": "error"
    },
    {
      "inputs": [],
      "name": "OnlyClient",
      "type": "error"
    },
    {
      "inputs": [],
      "name": "OnlyFreelancer",
      "type": "error"
    },
    {
      "inputs": [],
      "name": "PriceMustBePositive",
      "type": "error"
    },
    {
      "inputs": [],
      "name": "ReentrancyGuardReentrantCall",
      "type": "error"
    },
    {
      "inputs": [],
      "name": "ReviewWindowNotClosed",
      "type": "error"
    },
    {
      "inputs": [],
      "name": "ServiceNotAvailable",
      "type": "error"
    },
    {
      "inputs": [],
      "name": "TokenUsed",
      "type": "error"
    },
    {
      "inputs": [],
      "name": "TooEarlyForAutoRelease",
      "type": "error"
    },
    {
      "inputs": [],
      "name": "TransferFailed",
      "type": "error"
    },
    {
      "inputs": [],
      "name": "WorkCidRequired",
      "type": "error"
    },
    {
      "inputs": [],
      "name": "WorkNotSubmitted",
      "type": "error"
    },
    {
      "anonymous": false,
      "inputs": [
        {
          "indexed": true,
          "internalType": "address",
          "name": "reviewer",
          "type": "address"
        },
        {
          "indexed": true,
          "internalType": "address",
          "name": "reviewee",
          "type": "address"
        },
        {
          "indexed": false,
          "internalType": "uint256",
          "name": "score",
          "type": "uint256"
        },
        {
          "indexed": false,
          "internalType": "uint256",
          "name": "weight",
          "type": "uint256"
        }
      ],
      "name": "FeedbackApplied",
      "type": "event"
    },
    {
      "anonymous": false,
      "inputs": [
        {
          "indexed": true,
          "internalType": "address",
          "name": "reviewer",
          "type": "address"
        },
        {
          "indexed": false,
          "internalType": "uint256",
          "name": "jobId",
          "type": "uint256"
        }
      ],
      "name": "FeedbackSubmitted",
      "type": "event"
    },
    {
      "anonymous": false,
      "inputs": [
        {
          "indexed": true,
          "internalType": "uint256",
          "name": "tokenId",
          "type": "uint256"
        },
        {
          "indexed": false,
          "internalType": "address",
          "name": "reviewer",
          "type": "address"
        },
        {
          "indexed": false,
          "internalType": "address",
          "name": "reviewee",
          "type": "address"
        }
      ],
      "name": "FeedbackTokenIssued",
      "type": "event"
    },
    {
      "anonymous": false,
      "inputs": [
        {
          "indexed": true,
          "internalType": "uint32",
          "name": "jobId",
          "type": "uint32"
        }
      ],
      "name": "JobCancelled",
      "type": "event"
    },
    {
      "anonymous": false,
      "inputs": [
        {
          "indexed": true,
          "internalType": "uint32",
          "name": "jobId",
          "type": "uint32"
        }
      ],
      "name": "JobCompleted",
      "type": "event"
    },
    {
      "anonymous": false,
      "inputs": [
        {
          "indexed": true,
          "internalType": "uint32",
          "name": "jobId",
          "type": "uint32"
        }
      ],
      "name": "JobCreated",
      "type": "event"
    },
    {
      "anonymous": false,
      "inputs": [
        {
          "indexed": true,
          "internalType": "uint32",
          "name": "serviceId",
          "type": "uint32"
        },
        {
          "indexed": false,
          "internalType": "bytes32",
          "name": "metadataCid",
          "type": "bytes32"
        }
      ],
      "name": "ServiceListed",
      "type": "event"
    },
    {
      "anonymous": false,
      "inputs": [
        {
          "indexed": true,
          "internalType": "address",
          "name": "user",
          "type": "address"
        },
        {
          "indexed": false,
          "internalType": "uint256",
          "name": "amount",
          "type": "uint256"
        }
      ],
      "name": "StakeDeposited",
      "type": "event"
    },
    {
      "anonymous": false,
      "inputs": [
        {
          "indexed": true,
          "internalType": "uint32",
          "name": "jobId",
          "type": "uint32"
        }
      ],
      "name": "WorkCleared",
      "type": "event"
    },
    {
      "anonymous": false,
      "inputs": [
        {
          "indexed": true,
          "internalType": "uint32",
          "name": "jobId",
          "type": "uint32"
        },
        {
          "indexed": false,
          "internalType": "bytes32",
          "name": "workCid",
          "type": "bytes32"
        }
      ],
      "name": "WorkSubmitted",
      "type": "event"
    },
    {
      "inputs": [],
      "name": "MIN_STAKE",
      "outputs": [
        {
          "internalType": "uint256",
          "name": "",
          "type": "uint256"
        }
      ],
      "stateMutability": "view",
      "type": "function"
    },
    {
      "inputs": [
        {
          "internalType": "uint32",
          "name": "jobId",
          "type": "uint32"
        }
      ],
      "name": "autoRelease",
      "outputs": [],
      "stateMutability": "nonpayable",
      "type": "function"
    },
    {
      "inputs": [
        {
          "internalType": "uint32",
          "name": "jobId",
          "type": "uint32"
        }
      ],
      "name": "cancelJob",
      "outputs": [],
      "stateMutability": "nonpayable",
      "type": "function"
    },
    {
      "inputs": [
        {
          "internalType": "uint32",
          "name": "jobId",
          "type": "uint32"
        }
      ],
      "name": "clearWork",
      "outputs": [],
      "stateMutability": "nonpayable",
      "type": "function"
    },
    {
      "inputs": [
        {
          "internalType": "address",
          "name": "",
          "type": "address"
        }
      ],
      "name": "clientRep",
      "outputs": [
        {
          "internalType": "uint256",
          "name": "weightedScoreSum",
          "type": "uint256"
        },
        {
          "internalType": "uint256",
          "name": "weightSum",
          "type": "uint256"
        },
        {
          "internalType": "uint128",
          "name": "totalJobs",
          "type": "uint128"
        }
      ],
      "stateMutability": "view",
      "type": "function"
    },
    {
      "inputs": [
        {
          "internalType": "uint256",
          "name": "",
          "type": "uint256"
        },
        {
          "internalType": "address",
          "name": "",
          "type": "address"
        }
      ],
      "name": "commits",
      "outputs": [
        {
          "internalType": "bytes32",
          "name": "hash",
          "type": "bytes32"
        },
        {
          "internalType": "bool",
          "name": "revealed",
          "type": "bool"
        }
      ],
      "stateMutability": "view",
      "type": "function"
    },
    {
      "inputs": [
        {
          "internalType": "uint32",
          "name": "jobId",
          "type": "uint32"
        }
      ],
      "name": "confirmCompletion",
      "outputs": [],
      "stateMutability": "nonpayable",
      "type": "function"
    },
    {
      "inputs": [],
      "name": "depositStake",
      "outputs": [],
      "stateMutability": "payable",
      "type": "function"
    },
    {
      "inputs": [
        {
          "internalType": "uint32",
          "name": "jobId",
          "type": "uint32"
        }
      ],
      "name": "finalizeReview",
      "outputs": [],
      "stateMutability": "nonpayable",
      "type": "function"
    },
    {
      "inputs": [
        {
          "internalType": "address",
          "name": "",
          "type": "address"
        }
      ],
      "name": "freelancerRep",
      "outputs": [
        {
          "internalType": "uint256",
          "name": "weightedScoreSum",
          "type": "uint256"
        },
        {
          "internalType": "uint256",
          "name": "weightSum",
          "type": "uint256"
        },
        {
          "internalType": "uint128",
          "name": "totalJobs",
          "type": "uint128"
        }
      ],
      "stateMutability": "view",
      "type": "function"
    },
    {
      "inputs": [
        {
          "internalType": "address",
          "name": "client",
          "type": "address"
        }
      ],
      "name": "getClientReputation",
      "outputs": [
        {
          "internalType": "uint256",
          "name": "avgScoreScaled",
          "type": "uint256"
        },
        {
          "internalType": "uint256",
          "name": "totalWeight",
          "type": "uint256"
        },
        {
          "internalType": "uint128",
          "name": "totalJobs",
          "type": "uint128"
        }
      ],
      "stateMutability": "view",
      "type": "function"
    },
    {
      "inputs": [
        {
          "internalType": "address",
          "name": "freelancer",
          "type": "address"
        }
      ],
      "name": "getFreelancerReputation",
      "outputs": [
        {
          "internalType": "uint256",
          "name": "avgScoreScaled",
          "type": "uint256"
        },
        {
          "internalType": "uint256",
          "name": "totalWeight",
          "type": "uint256"
        },
        {
          "internalType": "uint128",
          "name": "totalJobs",
          "type": "uint128"
        }
      ],
      "stateMutability": "view",
      "type": "function"
    },
    {
      "inputs": [
        {
          "internalType": "uint32",
          "name": "id",
          "type": "uint32"
        }
      ],
      "name": "getJob",
      "outputs": [
        {
          "components": [
            {
              "internalType": "address payable",
              "name": "client",
              "type": "address"
            },
            {
              "internalType": "uint32",
              "name": "serviceId",
              "type": "uint32"
            },
            {
              "internalType": "enum FreelanceEscrow.JobStatus",
              "name": "status",
              "type": "uint8"
            },
            {
              "internalType": "uint128",
              "name": "amount",
              "type": "uint128"
            },
            {
              "internalType": "uint64",
              "name": "deadline",
              "type": "uint64"
            },
            {
              "internalType": "uint64",
              "name": "submittedAt",
              "type": "uint64"
            },
            {
              "internalType": "bytes32",
              "name": "workCid",
              "type": "bytes32"
            },
            {
              "internalType": "bytes32",
              "name": "jobDescription",
              "type": "bytes32"
            }
          ],
          "internalType": "struct FreelanceEscrow.Job",
          "name": "",
          "type": "tuple"
        }
      ],
      "stateMutability": "view",
      "type": "function"
    },
    {
      "inputs": [
        {
          "internalType": "uint32",
          "name": "jobId",
          "type": "uint32"
        }
      ],
      "name": "getJobTokens",
      "outputs": [
        {
          "internalType": "uint256",
          "name": "clientToken",
          "type": "uint256"
        },
        {
          "internalType": "uint256",
          "name": "freelancerToken",
          "type": "uint256"
        }
      ],
      "stateMutability": "view",
      "type": "function"
    },
    {
      "inputs": [
        {
          "internalType": "uint32",
          "name": "id",
          "type": "uint32"
        }
      ],
      "name": "getService",
      "outputs": [
        {
          "components": [
            {
              "internalType": "address payable",
              "name": "freelancer",
              "type": "address"
            },
            {
              "internalType": "enum FreelanceEscrow.ServiceStatus",
              "name": "status",
              "type": "uint8"
            },
            {
              "internalType": "uint88",
              "name": "priceWei",
              "type": "uint88"
            },
            {
              "internalType": "bytes32",
              "name": "metadataCid",
              "type": "bytes32"
            }
          ],
          "internalType": "struct FreelanceEscrow.Service",
          "name": "",
          "type": "tuple"
        }
      ],
      "stateMutability": "view",
      "type": "function"
    },
    {
      "inputs": [
        {
          "internalType": "uint32",
          "name": "serviceId",
          "type": "uint32"
        },
        {
          "internalType": "uint64",
          "name": "deadline",
          "type": "uint64"
        },
        {
          "internalType": "bytes32",
          "name": "jobDescription",
          "type": "bytes32"
        }
      ],
      "name": "hireFreelancer",
      "outputs": [],
      "stateMutability": "payable",
      "type": "function"
    },
    {
      "inputs": [],
      "name": "jobCount",
      "outputs": [
        {
          "internalType": "uint32",
          "name": "",
          "type": "uint32"
        }
      ],
      "stateMutability": "view",
      "type": "function"
    },
    {
      "inputs": [
        {
          "internalType": "uint256",
          "name": "",
          "type": "uint256"
        },
        {
          "internalType": "uint256",
          "name": "",
          "type": "uint256"
        }
      ],
      "name": "jobTokens",
      "outputs": [
        {
          "internalType": "uint256",
          "name": "",
          "type": "uint256"
        }
      ],
      "stateMutability": "view",
      "type": "function"
    },
    {
      "inputs": [
        {
          "internalType": "uint32",
          "name": "",
          "type": "uint32"
        }
      ],
      "name": "jobs",
      "outputs": [
        {
          "internalType": "address payable",
          "name": "client",
          "type": "address"
        },
        {
          "internalType": "uint32",
          "name": "serviceId",
          "type": "uint32"
        },
        {
          "internalType": "enum FreelanceEscrow.JobStatus",
          "name": "status",
          "type": "uint8"
        },
        {
          "internalType": "uint128",
          "name": "amount",
          "type": "uint128"
        },
        {
          "internalType": "uint64",
          "name": "deadline",
          "type": "uint64"
        },
        {
          "internalType": "uint64",
          "name": "submittedAt",
          "type": "uint64"
        },
        {
          "internalType": "bytes32",
          "name": "workCid",
          "type": "bytes32"
        },
        {
          "internalType": "bytes32",
          "name": "jobDescription",
          "type": "bytes32"
        }
      ],
      "stateMutability": "view",
      "type": "function"
    },
    {
      "inputs": [
        {
          "internalType": "uint88",
          "name": "priceWei",
          "type": "uint88"
        },
        {
          "internalType": "bytes32",
          "name": "metadataCid",
          "type": "bytes32"
        }
      ],
      "name": "offerService",
      "outputs": [],
      "stateMutability": "nonpayable",
      "type": "function"
    },
    {
      "inputs": [],
      "name": "serviceCount",
      "outputs": [
        {
          "internalType": "uint32",
          "name": "",
          "type": "uint32"
        }
      ],
      "stateMutability": "view",
      "type": "function"
    },
    {
      "inputs": [
        {
          "internalType": "uint32",
          "name": "",
          "type": "uint32"
        }
      ],
      "name": "services",
      "outputs": [
        {
          "internalType": "address payable",
          "name": "freelancer",
          "type": "address"
        },
        {
          "internalType": "enum FreelanceEscrow.ServiceStatus",
          "name": "status",
          "type": "uint8"
        },
        {
          "internalType": "uint88",
          "name": "priceWei",
          "type": "uint88"
        },
        {
          "internalType": "bytes32",
          "name": "metadataCid",
          "type": "bytes32"
        }
      ],
      "stateMutability": "view",
      "type": "function"
    },
    {
      "inputs": [
        {
          "internalType": "address",
          "name": "",
          "type": "address"
        }
      ],
      "name": "stakes",
      "outputs": [
        {
          "internalType": "uint256",
          "name": "",
          "type": "uint256"
        }
      ],
      "stateMutability": "view",
      "type": "function"
    },
    {
      "inputs": [
        {
          "internalType": "uint256",
          "name": "tokenId",
          "type": "uint256"
        },
        {
          "internalType": "uint8",
          "name": "score",
          "type": "uint8"
        }
      ],
      "name": "submitFeedback",
      "outputs": [],
      "stateMutability": "nonpayable",
      "type": "function"
    },
    {
      "inputs": [
        {
          "internalType": "uint32",
          "name": "jobId",
          "type": "uint32"
        },
        {
          "internalType": "bytes32",
          "name": "workCid",
          "type": "bytes32"
        }
      ],
      "name": "submitWork",
      "outputs": [],
      "stateMutability": "nonpayable",
      "type": "function"
    },
    {
      "inputs": [],
      "name": "tokenCount",
      "outputs": [
        {
          "internalType": "uint256",
          "name": "",
          "type": "uint256"
        }
      ],
      "stateMutability": "view",
      "type": "function"
    },
    {
      "inputs": [
        {
          "internalType": "uint256",
          "name": "",
          "type": "uint256"
        }
      ],
      "name": "tokens",
      "outputs": [
        {
          "internalType": "uint32",
          "name": "jobId",
          "type": "uint32"
        },
        {
          "internalType": "address",
          "name": "reviewer",
          "type": "address"
        },
        {
          "internalType": "address",
          "name": "reviewee",
          "type": "address"
        },
        {
          "internalType": "bool",
          "name": "used",
          "type": "bool"
        },
        {
          "internalType": "bool",
          "name": "applied",
          "type": "bool"
        },
        {
          "internalType": "uint64",
          "name": "reviewedAt",
          "type": "uint64"
        },
        {
          "internalType": "uint8",
          "name": "score",
          "type": "uint8"
        },
        {
          "internalType": "uint256",
          "name": "expiry",
          "type": "uint256"
        }
      ],
      "stateMutability": "view",
      "type": "function"
    }
  ],
  "bytecode": "0x6080604052348015600f57600080fd5b506001602a6020603560201b60201c565b606060201b60201c565b60000181905550606a565b60007f9b779b17422d0df92223018b32b4d1fa46e071723d6817e2486d003becc55f0060001b905090565b6000819050919050565b6144a5806100796000396000f3fe60806040526004361061019c5760003560e01c80636b2bb0c3116100ec578063c0fdb0e91161008a578063deb8e12a11610064578063deb8e12a14610622578063e21e6da01461064b578063fba0471a14610688578063fbdf715b146106c65761019c565b8063c0fdb0e91461057b578063c60f3e39146105ba578063cb1c2b5c146105f75761019c565b8063980d871d116100c6578063980d871d146104ba5780639f181b5e146104e3578063a85f50291461050e578063b703a853146105525761019c565b80636b2bb0c314610416578063885d68a8146104535780638eb533ef146104915761019c565b8063211997ac116101595780632a84f72f116101335780632a84f72f146103555780634c5d8a0f1461037e5780634f64b2be146103a95780636040b14d146103ed5761019c565b8063211997ac146102ad57806323735124146102ec578063247ed1aa146103155761019c565b806304199ee7146101a157806306237526146101e05780630d2d76a21461020b57806314c759da1461021557806316934fc4146102315780631efb3ba41461026e575b600080fd5b3480156101ad57600080fd5b506101c860048036038101906101c39190613832565b6106ef565b6040516101d7939291906138a3565b60405180910390f35b3480156101ec57600080fd5b506101f56107f5565b60405161020291906138f9565b60405180910390f35b610213610809565b005b61022f600480360381019061022a91906139b6565b6108f0565b005b34801561023d57600080fd5b5061025860048036038101906102539190613832565b610e54565b6040516102659190613a09565b60405180910390f35b34801561027a57600080fd5b5061029560048036038101906102909190613832565b610e6c565b6040516102a4939291906138a3565b60405180910390f35b3480156102b957600080fd5b506102d460048036038101906102cf9190613832565b610f72565b6040516102e3939291906138a3565b60405180910390f35b3480156102f857600080fd5b50610313600480360381019061030e9190613a24565b610fb8565b005b34801561032157600080fd5b5061033c60048036038101906103379190613a24565b611080565b60405161034c9493929190613b1e565b60405180910390f35b34801561036157600080fd5b5061037c60048036038101906103779190613bc8565b6110f4565b005b34801561038a57600080fd5b506103936113bf565b6040516103a091906138f9565b60405180910390f35b3480156103b557600080fd5b506103d060048036038101906103cb9190613c08565b6113d5565b6040516103e4989796959493929190613c7d565b60405180910390f35b3480156103f957600080fd5b50610414600480360381019061040f9190613a24565b6114a8565b005b34801561042257600080fd5b5061043d60048036038101906104389190613cfb565b61163d565b60405161044a9190613a09565b60405180910390f35b34801561045f57600080fd5b5061047a60048036038101906104759190613d3b565b611665565b604051610488929190613d7b565b60405180910390f35b34801561049d57600080fd5b506104b860048036038101906104b39190613a24565b6116a3565b005b3480156104c657600080fd5b506104e160048036038101906104dc9190613dd0565b611ab1565b005b3480156104ef57600080fd5b506104f8611ce4565b6040516105059190613a09565b60405180910390f35b34801561051a57600080fd5b5061053560048036038101906105309190613a24565b611cea565b604051610549989796959493929190613e58565b60405180910390f35b34801561055e57600080fd5b5061057960048036038101906105749190613a24565b611db3565b005b34801561058757600080fd5b506105a2600480360381019061059d9190613832565b612028565b6040516105b1939291906138a3565b60405180910390f35b3480156105c657600080fd5b506105e160048036038101906105dc9190613a24565b61206e565b6040516105ee9190613f67565b60405180910390f35b34801561060357600080fd5b5061060c61217d565b6040516106199190613a09565b60405180910390f35b34801561062e57600080fd5b5061064960048036038101906106449190613f82565b612188565b005b34801561065757600080fd5b50610672600480360381019061066d9190613a24565b6123bb565b60405161067f91906140a0565b60405180910390f35b34801561069457600080fd5b506106af60048036038101906106aa9190613a24565b61256e565b6040516106bd9291906140bc565b60405180910390f35b3480156106d257600080fd5b506106ed60048036038101906106e89190613a24565b6125d6565b005b600080600080600460008673ffffffffffffffffffffffffffffffffffffffff1673ffffffffffffffffffffffffffffffffffffffff16815260200190815260200160002060405180606001604052908160008201548152602001600182015481526020016002820160009054906101000a90046fffffffffffffffffffffffffffffffff166fffffffffffffffffffffffffffffffff166fffffffffffffffffffffffffffffffff1681525050905060008160200151036107bc576000806000935093509350506107ee565b8060200151606482600001516107d29190614114565b6107dc9190614185565b81602001518260400151935093509350505b9193909250565b60008054906101000a900463ffffffff1681565b66b1a2bc2ec5000034101561084a576040517ff1bc94d200000000000000000000000000000000000000000000000000000000815260040160405180910390fd5b34600960003373ffffffffffffffffffffffffffffffffffffffff1673ffffffffffffffffffffffffffffffffffffffff168152602001908152602001600020600082825461089991906141b6565b925050819055503373ffffffffffffffffffffffffffffffffffffffff167f0a7bb2e28cc4698aac06db79cf9163bfcc20719286cf59fa7d492ceda1b8edc2346040516108e69190613a09565b60405180910390a2565b6108f861286b565b6000600260008563ffffffff1663ffffffff1681526020019081526020016000209050600073ffffffffffffffffffffffffffffffffffffffff168160000160009054906101000a900473ffffffffffffffffffffffffffffffffffffffff1673ffffffffffffffffffffffffffffffffffffffff16036109a5576040517f8957d2fa00000000000000000000000000000000000000000000000000000000815260040160405180910390fd5b600060038111156109b9576109b8613a72565b5b8160000160149054906101000a900460ff1660038111156109dd576109dc613a72565b5b14610a14576040517f5857de5800000000000000000000000000000000000000000000000000000000815260040160405180910390fd5b8060000160159054906101000a90046affffffffffffffffffffff166affffffffffffffffffffff163414610a75576040517fd183fe4300000000000000000000000000000000000000000000000000000000815260040160405180910390fd5b8060000160009054906101000a900473ffffffffffffffffffffffffffffffffffffffff1673ffffffffffffffffffffffffffffffffffffffff163373ffffffffffffffffffffffffffffffffffffffff1603610afe576040517f3377569700000000000000000000000000000000000000000000000000000000815260040160405180910390fd5b6201518042610b0d91906141b6565b8367ffffffffffffffff161015610b50576040517f96a18df400000000000000000000000000000000000000000000000000000000815260040160405180910390fd5b6301e1338042610b6091906141b6565b8367ffffffffffffffff161115610ba3576040517f48f0fae600000000000000000000000000000000000000000000000000000000815260040160405180910390fd5b600080600481819054906101000a900463ffffffff16610bc2906141ea565b91906101000a81548163ffffffff021916908363ffffffff160217905590506040518061010001604052803373ffffffffffffffffffffffffffffffffffffffff1681526020018663ffffffff16815260200160006003811115610c2957610c28613a72565b5b8152602001346fffffffffffffffffffffffffffffffff1681526020018567ffffffffffffffff168152602001600067ffffffffffffffff1681526020016000801b815260200184815250600360008363ffffffff1663ffffffff16815260200190815260200160002060008201518160000160006101000a81548173ffffffffffffffffffffffffffffffffffffffff021916908373ffffffffffffffffffffffffffffffffffffffff16021790555060208201518160000160146101000a81548163ffffffff021916908363ffffffff16021790555060408201518160000160186101000a81548160ff02191690836003811115610d2c57610d2b613a72565b5b021790555060608201518160010160006101000a8154816fffffffffffffffffffffffffffffffff02191690836fffffffffffffffffffffffffffffffff16021790555060808201518160010160106101000a81548167ffffffffffffffff021916908367ffffffffffffffff16021790555060a08201518160010160186101000a81548167ffffffffffffffff021916908367ffffffffffffffff16021790555060c0820151816002015560e0820151816003015590505060018260000160146101000a81548160ff02191690836003811115610e0d57610e0c613a72565b5b02179055508063ffffffff167f9a6364067673fbbe84fe5265fd47f18424db0db1cf0bc6f4989ef6a17d92dc0560405160405180910390a25050610e4f61288e565b505050565b60096020528060005260406000206000915090505481565b600080600080600560008673ffffffffffffffffffffffffffffffffffffffff1673ffffffffffffffffffffffffffffffffffffffff16815260200190815260200160002060405180606001604052908160008201548152602001600182015481526020016002820160009054906101000a90046fffffffffffffffffffffffffffffffff166fffffffffffffffffffffffffffffffff166fffffffffffffffffffffffffffffffff168152505090506000816020015103610f3957600080600093509350935050610f6b565b806020015160648260000151610f4f9190614114565b610f599190614185565b81602001518260400151935093509350505b9193909250565b60056020528060005260406000206000915090508060000154908060010154908060020160009054906101000a90046fffffffffffffffffffffffffffffffff16905083565b6000600760008363ffffffff168152602001908152602001600020905060006006600083600060028110610fef57610fee614216565b5b015481526020019081526020016000209050806002015442101561103f576040517ffe2495d500000000000000000000000000000000000000000000000000000000815260040160405180910390fd5b61105d8260006002811061105657611055614216565b5b01546128a9565b61107b8260016002811061107457611073614216565b5b01546128a9565b505050565b60026020528060005260406000206000915090508060000160009054906101000a900473ffffffffffffffffffffffffffffffffffffffff16908060000160149054906101000a900460ff16908060000160159054906101000a90046affffffffffffffffffffff16908060010154905084565b60006006600084815260200190815260200160002090508060000160049054906101000a900473ffffffffffffffffffffffffffffffffffffffff1673ffffffffffffffffffffffffffffffffffffffff163373ffffffffffffffffffffffffffffffffffffffff1614611194576040517f6fb5ffbc00000000000000000000000000000000000000000000000000000000815260040160405180910390fd5b8060010160149054906101000a900460ff16156111dd576040517f7f59bede00000000000000000000000000000000000000000000000000000000815260040160405180910390fd5b60018260ff1610806111f2575060058260ff16115b15611229576040517f1556136500000000000000000000000000000000000000000000000000000000815260040160405180910390fd5b61123233612efb565b8181600101601e6101000a81548160ff021916908360ff16021790555060018160010160146101000a81548160ff021916908315150217905550428160010160166101000a81548167ffffffffffffffff021916908367ffffffffffffffff1602179055503373ffffffffffffffffffffffffffffffffffffffff167f3494da8299378c89270f3c8834caa828238425ae6ec329b573eb123c948e9d7d8260000160009054906101000a900463ffffffff166040516112f19190614280565b60405180910390a26000600760008360000160009054906101000a900463ffffffff1663ffffffff16815260200190815260200160002090506000848260006002811061134157611340614216565b5b015414611363578160006002811061135c5761135b614216565b5b015461137a565b8160016002811061137757611376614216565b5b01545b90506006600082815260200190815260200160002060010160149054906101000a900460ff16156113b8576113ae856128a9565b6113b7816128a9565b5b5050505050565b600060049054906101000a900463ffffffff1681565b60066020528060005260406000206000915090508060000160009054906101000a900463ffffffff16908060000160049054906101000a900473ffffffffffffffffffffffffffffffffffffffff16908060010160009054906101000a900473ffffffffffffffffffffffffffffffffffffffff16908060010160149054906101000a900460ff16908060010160159054906101000a900460ff16908060010160169054906101000a900467ffffffffffffffff169080600101601e9054906101000a900460ff16908060020154905088565b6000600360008363ffffffff1663ffffffff16815260200190815260200160002090506000600260008360000160149054906101000a900463ffffffff1663ffffffff1663ffffffff16815260200190815260200160002090508060000160009054906101000a900473ffffffffffffffffffffffffffffffffffffffff1673ffffffffffffffffffffffffffffffffffffffff163373ffffffffffffffffffffffffffffffffffffffff161461158b576040517f6b7809b900000000000000000000000000000000000000000000000000000000815260040160405180910390fd5b60038081111561159e5761159d613a72565b5b8260000160189054906101000a900460ff1660038111156115c2576115c1613a72565b5b146115f9576040517f1f3b5f9300000000000000000000000000000000000000000000000000000000815260040160405180910390fd5b6000801b82600201819055508263ffffffff167f4dd9e91265ab49336afbb9eab0fdc5b4a36e65a6cdd5e19a93ab44565d6ebfc960405160405180910390a2505050565b6007602052816000526040600020816002811061165957600080fd5b01600091509150505481565b6008602052816000526040600020602052806000526040600020600091509150508060000154908060010160009054906101000a900460ff16905082565b6116ab61286b565b6000600360008363ffffffff1663ffffffff16815260200190815260200160002090506000600260008360000160149054906101000a900463ffffffff1663ffffffff1663ffffffff16815260200190815260200160002090506000600381111561171957611718613a72565b5b8260000160189054906101000a900460ff16600381111561173d5761173c613a72565b5b1415801561178157506001600381111561175a57611759613a72565b5b8260000160189054906101000a900460ff16600381111561177e5761177d613a72565b5b14155b156117b8576040517f71c8f46000000000000000000000000000000000000000000000000000000000815260040160405180910390fd5b60008260010160109054906101000a900467ffffffffffffffff1667ffffffffffffffff1642119050600160038111156117f5576117f4613a72565b5b8360000160189054906101000a900460ff16600381111561181957611818613a72565b5b036118b8578260000160009054906101000a900473ffffffffffffffffffffffffffffffffffffffff1673ffffffffffffffffffffffffffffffffffffffff163373ffffffffffffffffffffffffffffffffffffffff161415801561187c575080155b156118b3576040517fb29ba3b900000000000000000000000000000000000000000000000000000000815260040160405180910390fd5b6119aa565b8260000160009054906101000a900473ffffffffffffffffffffffffffffffffffffffff1673ffffffffffffffffffffffffffffffffffffffff163373ffffffffffffffffffffffffffffffffffffffff161415801561196857508160000160009054906101000a900473ffffffffffffffffffffffffffffffffffffffff1673ffffffffffffffffffffffffffffffffffffffff163373ffffffffffffffffffffffffffffffffffffffff1614155b8015611972575080155b156119a9576040517f3d693ada00000000000000000000000000000000000000000000000000000000815260040160405180910390fd5b5b60008360000160009054906101000a900473ffffffffffffffffffffffffffffffffffffffff16905060008460010160009054906101000a90046fffffffffffffffffffffffffffffffff166fffffffffffffffffffffffffffffffff16905060038560000160186101000a81548160ff02191690836003811115611a3257611a31613a72565b5b021790555060038460000160146101000a81548160ff02191690836003811115611a5f57611a5e613a72565b5b02179055508563ffffffff167fa6a2eb5c45aee3821a738c1beb0dade684d1189539bab9d4f634c00de2449e7a60405160405180910390a2611aa18282612f7e565b5050505050611aae61288e565b50565b6000826affffffffffffffffffffff1603611af8576040517f1d25a35500000000000000000000000000000000000000000000000000000000815260040160405180910390fd5b6000801b8103611b34576040517f835103a300000000000000000000000000000000000000000000000000000000815260040160405180910390fd5b600080600081819054906101000a900463ffffffff16611b53906141ea565b91906101000a81548163ffffffff021916908363ffffffff1602179055905060405180608001604052803373ffffffffffffffffffffffffffffffffffffffff16815260200160006003811115611bad57611bac613a72565b5b8152602001846affffffffffffffffffffff16815260200183815250600260008363ffffffff1663ffffffff16815260200190815260200160002060008201518160000160006101000a81548173ffffffffffffffffffffffffffffffffffffffff021916908373ffffffffffffffffffffffffffffffffffffffff16021790555060208201518160000160146101000a81548160ff02191690836003811115611c5a57611c59613a72565b5b021790555060408201518160000160156101000a8154816affffffffffffffffffffff02191690836affffffffffffffffffffff160217905550606082015181600101559050508063ffffffff167f7845f789baa17703c3db3bf849155053cc12b41ec3717601321581d0420b4d7f83604051611cd7919061429b565b60405180910390a2505050565b60015481565b60036020528060005260406000206000915090508060000160009054906101000a900473ffffffffffffffffffffffffffffffffffffffff16908060000160149054906101000a900463ffffffff16908060000160189054906101000a900460ff16908060010160009054906101000a90046fffffffffffffffffffffffffffffffff16908060010160109054906101000a900467ffffffffffffffff16908060010160189054906101000a900467ffffffffffffffff16908060020154908060030154905088565b611dbb61286b565b6000600360008363ffffffff1663ffffffff16815260200190815260200160002090506000600260008360000160149054906101000a900463ffffffff1663ffffffff1663ffffffff168152602001908152602001600020905060016003811115611e2957611e28613a72565b5b8260000160189054906101000a900460ff166003811115611e4d57611e4c613a72565b5b14611e84576040517f448ad72300000000000000000000000000000000000000000000000000000000815260040160405180910390fd5b6203f4808260010160189054906101000a900467ffffffffffffffff16611eab91906142b6565b67ffffffffffffffff164211611eed576040517f6362f00c00000000000000000000000000000000000000000000000000000000815260040160405180910390fd5b60008160000160009054906101000a900473ffffffffffffffffffffffffffffffffffffffff16905060008360000160009054906101000a900473ffffffffffffffffffffffffffffffffffffffff16905060008460010160009054906101000a90046fffffffffffffffffffffffffffffffff166fffffffffffffffffffffffffffffffff16905060028560000160186101000a81548160ff02191690836003811115611f9e57611f9d613a72565b5b021790555060028460000160146101000a81548160ff02191690836003811115611fcb57611fca613a72565b5b0217905550611fdb868385613026565b8563ffffffff167f735ac8e4dde3032ae26b362ee588a0417b5b9546dd4840d3a5c7b9d74bf4193a60405160405180910390a26120188382612f7e565b505050505061202561288e565b50565b60046020528060005260406000206000915090508060000154908060010154908060020160009054906101000a90046fffffffffffffffffffffffffffffffff16905083565b6120766136d0565b600260008363ffffffff1663ffffffff1681526020019081526020016000206040518060800160405290816000820160009054906101000a900473ffffffffffffffffffffffffffffffffffffffff1673ffffffffffffffffffffffffffffffffffffffff1673ffffffffffffffffffffffffffffffffffffffff1681526020016000820160149054906101000a900460ff16600381111561211b5761211a613a72565b5b600381111561212d5761212c613a72565b5b81526020016000820160159054906101000a90046affffffffffffffffffffff166affffffffffffffffffffff166affffffffffffffffffffff1681526020016001820154815250509050919050565b66b1a2bc2ec5000081565b6000600360008463ffffffff1663ffffffff16815260200190815260200160002090506000600260008360000160149054906101000a900463ffffffff1663ffffffff1663ffffffff16815260200190815260200160002090508060000160009054906101000a900473ffffffffffffffffffffffffffffffffffffffff1673ffffffffffffffffffffffffffffffffffffffff163373ffffffffffffffffffffffffffffffffffffffff161461226b576040517f6b7809b900000000000000000000000000000000000000000000000000000000815260040160405180910390fd5b6000600381111561227f5761227e613a72565b5b8260000160189054906101000a900460ff1660038111156122a3576122a2613a72565b5b146122da576040517f1a99ec7c00000000000000000000000000000000000000000000000000000000815260040160405180910390fd5b6000801b8303612316576040517f7cf64fe300000000000000000000000000000000000000000000000000000000815260040160405180910390fd5b60018260000160186101000a81548160ff0219169083600381111561233e5761233d613a72565b5b0217905550428260010160186101000a81548167ffffffffffffffff021916908367ffffffffffffffff1602179055508282600201819055508363ffffffff167fb9f9fff2a594bbac9c2407f11e62b2f80303f566b013f015eb5a77d1b5bb4540846040516123ad919061429b565b60405180910390a250505050565b6123c3613730565b600360008363ffffffff1663ffffffff168152602001908152602001600020604051806101000160405290816000820160009054906101000a900473ffffffffffffffffffffffffffffffffffffffff1673ffffffffffffffffffffffffffffffffffffffff1673ffffffffffffffffffffffffffffffffffffffff1681526020016000820160149054906101000a900463ffffffff1663ffffffff1663ffffffff1681526020016000820160189054906101000a900460ff16600381111561248f5761248e613a72565b5b60038111156124a1576124a0613a72565b5b81526020016001820160009054906101000a90046fffffffffffffffffffffffffffffffff166fffffffffffffffffffffffffffffffff166fffffffffffffffffffffffffffffffff1681526020016001820160109054906101000a900467ffffffffffffffff1667ffffffffffffffff1667ffffffffffffffff1681526020016001820160189054906101000a900467ffffffffffffffff1667ffffffffffffffff1667ffffffffffffffff168152602001600282015481526020016003820154815250509050919050565b600080600760008463ffffffff16815260200190815260200160002060006002811061259d5761259c614216565b5b0154600760008563ffffffff1681526020019081526020016000206001600281106125cb576125ca614216565b5b015491509150915091565b6125de61286b565b6000600360008363ffffffff1663ffffffff16815260200190815260200160002090506000600260008360000160149054906101000a900463ffffffff1663ffffffff1663ffffffff16815260200190815260200160002090508160000160009054906101000a900473ffffffffffffffffffffffffffffffffffffffff1673ffffffffffffffffffffffffffffffffffffffff163373ffffffffffffffffffffffffffffffffffffffff16146126c1576040517fd6d90f8900000000000000000000000000000000000000000000000000000000815260040160405180910390fd5b600160038111156126d5576126d4613a72565b5b8260000160189054906101000a900460ff1660038111156126f9576126f8613a72565b5b14612730576040517f18d5a0ce00000000000000000000000000000000000000000000000000000000815260040160405180910390fd5b60008160000160009054906101000a900473ffffffffffffffffffffffffffffffffffffffff16905060008360000160009054906101000a900473ffffffffffffffffffffffffffffffffffffffff16905060008460010160009054906101000a90046fffffffffffffffffffffffffffffffff166fffffffffffffffffffffffffffffffff16905060028560000160186101000a81548160ff021916908360038111156127e1576127e0613a72565b5b021790555060028460000160146101000a81548160ff0219169083600381111561280e5761280d613a72565b5b021790555061281e868385613026565b8563ffffffff167f735ac8e4dde3032ae26b362ee588a0417b5b9546dd4840d3a5c7b9d74bf4193a60405160405180910390a261285b8382612f7e565b505050505061286861288e565b50565b612873613523565b6002612885612880613564565b61358f565b60000181905550565b60016128a061289b613564565b61358f565b60000181905550565b60006006600083815260200190815260200160002090508060010160149054906101000a900460ff1615806128ec57508060010160159054906101000a900460ff165b156128f75750612ef8565b6000600360008360000160009054906101000a900463ffffffff1663ffffffff1663ffffffff16815260200190815260200160002090506000600260008360000160149054906101000a900463ffffffff1663ffffffff1663ffffffff168152602001908152602001600020905060018360010160156101000a81548160ff02191690831515021790555060006129f68360010160009054906101000a90046fffffffffffffffffffffffffffffffff166fffffffffffffffffffffffffffffffff168460010160189054906101000a900467ffffffffffffffff168660010160169054906101000a900467ffffffffffffffff168760020154613599565b90508160000160009054906101000a900473ffffffffffffffffffffffffffffffffffffffff1673ffffffffffffffffffffffffffffffffffffffff168460010160009054906101000a900473ffffffffffffffffffffffffffffffffffffffff1673ffffffffffffffffffffffffffffffffffffffff1603612c55578084600101601e9054906101000a900460ff1660ff16612a939190614114565b600460008660010160009054906101000a900473ffffffffffffffffffffffffffffffffffffffff1673ffffffffffffffffffffffffffffffffffffffff1673ffffffffffffffffffffffffffffffffffffffff1681526020019081526020016000206000016000828254612b0891906141b6565b9250508190555080600460008660010160009054906101000a900473ffffffffffffffffffffffffffffffffffffffff1673ffffffffffffffffffffffffffffffffffffffff1673ffffffffffffffffffffffffffffffffffffffff1681526020019081526020016000206001016000828254612b8591906141b6565b92505081905550600460008560010160009054906101000a900473ffffffffffffffffffffffffffffffffffffffff1673ffffffffffffffffffffffffffffffffffffffff1673ffffffffffffffffffffffffffffffffffffffff168152602001908152602001600020600201600081819054906101000a90046fffffffffffffffffffffffffffffffff16612c1a906142f2565b91906101000a8154816fffffffffffffffffffffffffffffffff02191690836fffffffffffffffffffffffffffffffff160217905550612e33565b8084600101601e9054906101000a900460ff1660ff16612c759190614114565b600560008660010160009054906101000a900473ffffffffffffffffffffffffffffffffffffffff1673ffffffffffffffffffffffffffffffffffffffff1673ffffffffffffffffffffffffffffffffffffffff1681526020019081526020016000206000016000828254612cea91906141b6565b9250508190555080600560008660010160009054906101000a900473ffffffffffffffffffffffffffffffffffffffff1673ffffffffffffffffffffffffffffffffffffffff1673ffffffffffffffffffffffffffffffffffffffff1681526020019081526020016000206001016000828254612d6791906141b6565b92505081905550600560008560010160009054906101000a900473ffffffffffffffffffffffffffffffffffffffff1673ffffffffffffffffffffffffffffffffffffffff1673ffffffffffffffffffffffffffffffffffffffff168152602001908152602001600020600201600081819054906101000a90046fffffffffffffffffffffffffffffffff16612dfc906142f2565b91906101000a8154816fffffffffffffffffffffffffffffffff02191690836fffffffffffffffffffffffffffffffff1602179055505b8360010160009054906101000a900473ffffffffffffffffffffffffffffffffffffffff1673ffffffffffffffffffffffffffffffffffffffff168460000160049054906101000a900473ffffffffffffffffffffffffffffffffffffffff1673ffffffffffffffffffffffffffffffffffffffff167f846e7c60f8a40d0939121c546970f0fe070f449b6f35538cac9aeec2d8d88b2e86600101601e9054906101000a900460ff1684604051612eeb92919061435b565b60405180910390a3505050505b50565b66b1a2bc2ec50000600960008373ffffffffffffffffffffffffffffffffffffffff1673ffffffffffffffffffffffffffffffffffffffff168152602001908152602001600020541015612f7b576040517ff1bc94d200000000000000000000000000000000000000000000000000000000815260040160405180910390fd5b50565b60008273ffffffffffffffffffffffffffffffffffffffff1682604051612fa4906143b5565b60006040518083038185875af1925050503d8060008114612fe1576040519150601f19603f3d011682016040523d82523d6000602084013e612fe6565b606091505b5050905080613021576040517f90b8ec1800000000000000000000000000000000000000000000000000000000815260040160405180910390fd5b505050565b600160008154613035906143ca565b919050819055506040518061010001604052808463ffffffff1681526020018373ffffffffffffffffffffffffffffffffffffffff1681526020018273ffffffffffffffffffffffffffffffffffffffff168152602001600015158152602001600015158152602001600067ffffffffffffffff168152602001600060ff16815260200162093a80426130c891906141b6565b81525060066000600154815260200190815260200160002060008201518160000160006101000a81548163ffffffff021916908363ffffffff16021790555060208201518160000160046101000a81548173ffffffffffffffffffffffffffffffffffffffff021916908373ffffffffffffffffffffffffffffffffffffffff16021790555060408201518160010160006101000a81548173ffffffffffffffffffffffffffffffffffffffff021916908373ffffffffffffffffffffffffffffffffffffffff16021790555060608201518160010160146101000a81548160ff02191690831515021790555060808201518160010160156101000a81548160ff02191690831515021790555060a08201518160010160166101000a81548167ffffffffffffffff021916908367ffffffffffffffff16021790555060c082015181600101601e6101000a81548160ff021916908360ff16021790555060e08201518160020155905050600154600760008563ffffffff16815260200190815260200160002060006002811061326157613260614216565b5b01819055506001547f988de847d31b0fe942aa43da2017020c82213a2bc10f17f436d97d39d2c68f7e838360405161329a929190614412565b60405180910390a26001600081546132b1906143ca565b919050819055506040518061010001604052808463ffffffff1681526020018273ffffffffffffffffffffffffffffffffffffffff1681526020018373ffffffffffffffffffffffffffffffffffffffff168152602001600015158152602001600015158152602001600067ffffffffffffffff168152602001600060ff16815260200162093a804261334491906141b6565b81525060066000600154815260200190815260200160002060008201518160000160006101000a81548163ffffffff021916908363ffffffff16021790555060208201518160000160046101000a81548173ffffffffffffffffffffffffffffffffffffffff021916908373ffffffffffffffffffffffffffffffffffffffff16021790555060408201518160010160006101000a81548173ffffffffffffffffffffffffffffffffffffffff021916908373ffffffffffffffffffffffffffffffffffffffff16021790555060608201518160010160146101000a81548160ff02191690831515021790555060808201518160010160156101000a81548160ff02191690831515021790555060a08201518160010160166101000a81548167ffffffffffffffff021916908367ffffffffffffffff16021790555060c082015181600101601e6101000a81548160ff021916908360ff16021790555060e08201518160020155905050600154600760008563ffffffff1681526020019081526020016000206001600281106134dd576134dc614216565b5b01819055506001547f988de847d31b0fe942aa43da2017020c82213a2bc10f17f436d97d39d2c68f7e8284604051613516929190614412565b60405180910390a2505050565b61352b6136b2565b15613562576040517f3ee5aeb500000000000000000000000000000000000000000000000000000000815260040160405180910390fd5b565b60007f9b779b17422d0df92223018b32b4d1fa46e071723d6817e2486d003becc55f0060001b905090565b6000819050919050565b600080620151808567ffffffffffffffff168567ffffffffffffffff166135c0919061443b565b6135ca9190614185565b90506000606482106135dd5760016135eb565b8160646135ea919061443b565b5b9050600062093a80856135fe919061443b565b90506000818767ffffffffffffffff161161361a57600061363f565b62015180828867ffffffffffffffff16613634919061443b565b61363e9190614185565b5b9050600060078210613652576001613660565b81600761365f919061443b565b5b9050600066038d7ea4c680008b10156136805766038d7ea4c68000613682565b8a5b905066038d7ea4c6800081836136989190614114565b6136a29190614185565b9650505050505050949350505050565b600060026136c66136c1613564565b61358f565b6000015414905090565b6040518060800160405280600073ffffffffffffffffffffffffffffffffffffffff1681526020016000600381111561370c5761370b613a72565b5b815260200160006affffffffffffffffffffff168152602001600080191681525090565b604051806101000160405280600073ffffffffffffffffffffffffffffffffffffffff168152602001600063ffffffff1681526020016000600381111561377a57613779613a72565b5b815260200160006fffffffffffffffffffffffffffffffff168152602001600067ffffffffffffffff168152602001600067ffffffffffffffff16815260200160008019168152602001600080191681525090565b600080fd5b600073ffffffffffffffffffffffffffffffffffffffff82169050919050565b60006137ff826137d4565b9050919050565b61380f816137f4565b811461381a57600080fd5b50565b60008135905061382c81613806565b92915050565b600060208284031215613848576138476137cf565b5b60006138568482850161381d565b91505092915050565b6000819050919050565b6138728161385f565b82525050565b60006fffffffffffffffffffffffffffffffff82169050919050565b61389d81613878565b82525050565b60006060820190506138b86000830186613869565b6138c56020830185613869565b6138d26040830184613894565b949350505050565b600063ffffffff82169050919050565b6138f3816138da565b82525050565b600060208201905061390e60008301846138ea565b92915050565b61391d816138da565b811461392857600080fd5b50565b60008135905061393a81613914565b92915050565b600067ffffffffffffffff82169050919050565b61395d81613940565b811461396857600080fd5b50565b60008135905061397a81613954565b92915050565b6000819050919050565b61399381613980565b811461399e57600080fd5b50565b6000813590506139b08161398a565b92915050565b6000806000606084860312156139cf576139ce6137cf565b5b60006139dd8682870161392b565b93505060206139ee8682870161396b565b92505060406139ff868287016139a1565b9150509250925092565b6000602082019050613a1e6000830184613869565b92915050565b600060208284031215613a3a57613a396137cf565b5b6000613a488482850161392b565b91505092915050565b6000613a5c826137d4565b9050919050565b613a6c81613a51565b82525050565b7f4e487b7100000000000000000000000000000000000000000000000000000000600052602160045260246000fd5b60048110613ab257613ab1613a72565b5b50565b6000819050613ac382613aa1565b919050565b6000613ad382613ab5565b9050919050565b613ae381613ac8565b82525050565b60006affffffffffffffffffffff82169050919050565b613b0981613ae9565b82525050565b613b1881613980565b82525050565b6000608082019050613b336000830187613a63565b613b406020830186613ada565b613b4d6040830185613b00565b613b5a6060830184613b0f565b95945050505050565b613b6c8161385f565b8114613b7757600080fd5b50565b600081359050613b8981613b63565b92915050565b600060ff82169050919050565b613ba581613b8f565b8114613bb057600080fd5b50565b600081359050613bc281613b9c565b92915050565b60008060408385031215613bdf57613bde6137cf565b5b6000613bed85828601613b7a565b9250506020613bfe85828601613bb3565b9150509250929050565b600060208284031215613c1e57613c1d6137cf565b5b6000613c2c84828501613b7a565b91505092915050565b613c3e816137f4565b82525050565b60008115159050919050565b613c5981613c44565b82525050565b613c6881613940565b82525050565b613c7781613b8f565b82525050565b600061010082019050613c93600083018b6138ea565b613ca0602083018a613c35565b613cad6040830189613c35565b613cba6060830188613c50565b613cc76080830187613c50565b613cd460a0830186613c5f565b613ce160c0830185613c6e565b613cee60e0830184613869565b9998505050505050505050565b60008060408385031215613d1257613d116137cf565b5b6000613d2085828601613b7a565b9250506020613d3185828601613b7a565b9150509250929050565b60008060408385031215613d5257613d516137cf565b5b6000613d6085828601613b7a565b9250506020613d718582860161381d565b9150509250929050565b6000604082019050613d906000830185613b0f565b613d9d6020830184613c50565b9392505050565b613dad81613ae9565b8114613db857600080fd5b50565b600081359050613dca81613da4565b92915050565b60008060408385031215613de757613de66137cf565b5b6000613df585828601613dbb565b9250506020613e06858286016139a1565b9150509250929050565b60048110613e2157613e20613a72565b5b50565b6000819050613e3282613e10565b919050565b6000613e4282613e24565b9050919050565b613e5281613e37565b82525050565b600061010082019050613e6e600083018b613a63565b613e7b602083018a6138ea565b613e886040830189613e49565b613e956060830188613894565b613ea26080830187613c5f565b613eaf60a0830186613c5f565b613ebc60c0830185613b0f565b613ec960e0830184613b0f565b9998505050505050505050565b613edf81613a51565b82525050565b613eee81613ac8565b82525050565b613efd81613ae9565b82525050565b613f0c81613980565b82525050565b608082016000820151613f286000850182613ed6565b506020820151613f3b6020850182613ee5565b506040820151613f4e6040850182613ef4565b506060820151613f616060850182613f03565b50505050565b6000608082019050613f7c6000830184613f12565b92915050565b60008060408385031215613f9957613f986137cf565b5b6000613fa78582860161392b565b9250506020613fb8858286016139a1565b9150509250929050565b613fcb816138da565b82525050565b613fda81613e37565b82525050565b613fe981613878565b82525050565b613ff881613940565b82525050565b610100820160008201516140156000850182613ed6565b5060208201516140286020850182613fc2565b50604082015161403b6040850182613fd1565b50606082015161404e6060850182613fe0565b5060808201516140616080850182613fef565b5060a082015161407460a0850182613fef565b5060c082015161408760c0850182613f03565b5060e082015161409a60e0850182613f03565b50505050565b6000610100820190506140b66000830184613ffe565b92915050565b60006040820190506140d16000830185613869565b6140de6020830184613869565b9392505050565b7f4e487b7100000000000000000000000000000000000000000000000000000000600052601160045260246000fd5b600061411f8261385f565b915061412a8361385f565b92508282026141388161385f565b9150828204841483151761414f5761414e6140e5565b5b5092915050565b7f4e487b7100000000000000000000000000000000000000000000000000000000600052601260045260246000fd5b60006141908261385f565b915061419b8361385f565b9250826141ab576141aa614156565b5b828204905092915050565b60006141c18261385f565b91506141cc8361385f565b92508282019050808211156141e4576141e36140e5565b5b92915050565b60006141f5826138da565b915063ffffffff820361420b5761420a6140e5565b5b600182019050919050565b7f4e487b7100000000000000000000000000000000000000000000000000000000600052603260045260246000fd5b6000819050919050565b600061426a614265614260846138da565b614245565b61385f565b9050919050565b61427a8161424f565b82525050565b60006020820190506142956000830184614271565b92915050565b60006020820190506142b06000830184613b0f565b92915050565b60006142c182613940565b91506142cc83613940565b9250828201905067ffffffffffffffff8111156142ec576142eb6140e5565b5b92915050565b60006142fd82613878565b91506fffffffffffffffffffffffffffffffff820361431f5761431e6140e5565b5b600182019050919050565b600061434561434061433b84613b8f565b614245565b61385f565b9050919050565b6143558161432a565b82525050565b6000604082019050614370600083018561434c565b61437d6020830184613869565b9392505050565b600081905092915050565b50565b600061439f600083614384565b91506143aa8261438f565b600082019050919050565b60006143c082614392565b9150819050919050565b60006143d58261385f565b91507fffffffffffffffffffffffffffffffffffffffffffffffffffffffffffffffff8203614407576144066140e5565b5b600182019050919050565b60006040820190506144276000830185613c35565b6144346020830184613c35565b9392505050565b60006144468261385f565b91506144518361385f565b9250828203905081811115614469576144686140e5565b5b9291505056fea26469706673582212206b9a53f520cc6f0920a3d3ed3bfeb06379c077bc5e900d521f75fb9dcace864e64736f6c634300081c0033",
  "linkReferences": {},
  "deployedLinkReferences": {}
}