{
  "_format": "hh-sol-artifact-1",
  "contractName": "FreelanceEscrow",
  "sourceName": "contracts/FreelancerEscrow.sol",
  "abi": [
    {
      "inputs": [],
      "name": "AlreadyRated",
      "type": "error"
    },
    {
      "inputs": [],
      "name": "AlreadyRevealed",
      "type": "error"
    },
    {
      "inputs": [],
      "name": "CancellationFeeExceedsAmount",
      "type": "error"
    },
    {
      "inputs": [],
      "name": "CannotHireYourself",
      "type": "error"
    },
    {
      "inputs": [],
      "name": "CommitNotFound",
      "type": "error"
    },
    {
      "inputs": [],
      "name": "DeadlineTooFar",
      "type": "error"
    },
    {
      "inputs": [],
      "name": "DeadlineTooSoon",
      "type": "error"
    },
    {
      "inputs": [],
      "name": "DiscountTokenAlreadyRedeemed",
      "type": "error"
    },
    {
      "inputs": [],
      "name": "DiscountTokenExpired",
      "type": "error"
    },
    {
      "inputs": [],
      "name": "FreelancerCannotCancelSubmitted",
      "type": "error"
    },
    {
      "inputs": [],
      "name": "IncorrectETH",
      "type": "error"
    },
    {
      "inputs": [],
      "name": "InsufficientStake",
      "type": "error"
    },
    {
      "inputs": [],
      "name": "InvalidJob",
      "type": "error"
    },
    {
      "inputs": [],
      "name": "InvalidJobState",
      "type": "error"
    },
    {
      "inputs": [],
      "name": "InvalidReveal",
      "type": "error"
    },
    {
      "inputs": [],
      "name": "InvalidScore",
      "type": "error"
    },
    {
      "inputs": [],
      "name": "InvalidService",
      "type": "error"
    },
    {
      "inputs": [],
      "name": "JobNotCancelled",
      "type": "error"
    },
    {
      "inputs": [],
      "name": "JobNotCompleted",
      "type": "error"
    },
    {
      "inputs": [],
      "name": "MetadataCidRequired",
      "type": "error"
    },
    {
      "inputs": [],
      "name": "NotAllowed",
      "type": "error"
    },
    {
      "inputs": [],
      "name": "NotDiscountOwner",
      "type": "error"
    },
    {
      "inputs": [],
      "name": "NotReviewer",
      "type": "error"
    },
    {
      "inputs": [],
      "name": "NotSubmitted",
      "type": "error"
    },
    {
      "inputs": [],
      "name": "OnlyClient",
      "type": "error"
    },
    {
      "inputs": [],
      "name": "OnlyFreelancer",
      "type": "error"
    },
    {
      "inputs": [],
      "name": "PriceMustBePositive",
      "type": "error"
    },
    {
      "inputs": [],
      "name": "ReentrancyGuardReentrantCall",
      "type": "error"
    },
    {
      "inputs": [],
      "name": "ReviewWindowNotClosed",
      "type": "error"
    },
    {
      "inputs": [],
      "name": "ServiceNotAvailable",
      "type": "error"
    },
    {
      "inputs": [],
      "name": "TokenUsed",
      "type": "error"
    },
    {
      "inputs": [],
      "name": "TooEarlyForAutoRelease",
      "type": "error"
    },
    {
      "inputs": [],
      "name": "TransferFailed",
      "type": "error"
    },
    {
      "inputs": [],
      "name": "WorkCidRequired",
      "type": "error"
    },
    {
      "inputs": [],
      "name": "WorkNotSubmitted",
      "type": "error"
    },
    {
      "anonymous": false,
      "inputs": [
        {
          "indexed": true,
          "internalType": "uint256",
          "name": "discountId",
          "type": "uint256"
        },
        {
          "indexed": true,
          "internalType": "address",
          "name": "reviewer",
          "type": "address"
        },
        {
          "indexed": false,
          "internalType": "uint32",
          "name": "jobId",
          "type": "uint32"
        },
        {
          "indexed": false,
          "internalType": "uint256",
          "name": "discountWei",
          "type": "uint256"
        },
        {
          "indexed": false,
          "internalType": "uint256",
          "name": "expiry",
          "type": "uint256"
        }
      ],
      "name": "DiscountTokenIssued",
      "type": "event"
    },
    {
      "anonymous": false,
      "inputs": [
        {
          "indexed": true,
          "internalType": "uint256",
          "name": "discountId",
          "type": "uint256"
        },
        {
          "indexed": true,
          "internalType": "address",
          "name": "reviewer",
          "type": "address"
        }
      ],
      "name": "DiscountTokenUsed",
      "type": "event"
    },
    {
      "anonymous": false,
      "inputs": [
        {
          "indexed": true,
          "internalType": "address",
          "name": "reviewer",
          "type": "address"
        },
        {
          "indexed": true,
          "internalType": "address",
          "name": "reviewee",
          "type": "address"
        },
        {
          "indexed": false,
          "internalType": "uint256",
          "name": "score",
          "type": "uint256"
        },
        {
          "indexed": false,
          "internalType": "uint256",
          "name": "weight",
          "type": "uint256"
        }
      ],
      "name": "FeedbackApplied",
      "type": "event"
    },
    {
      "anonymous": false,
      "inputs": [
        {
          "indexed": true,
          "internalType": "address",
          "name": "reviewer",
          "type": "address"
        },
        {
          "indexed": false,
          "internalType": "uint256",
          "name": "jobId",
          "type": "uint256"
        }
      ],
      "name": "FeedbackSubmitted",
      "type": "event"
    },
    {
      "anonymous": false,
      "inputs": [
        {
          "indexed": true,
          "internalType": "uint256",
          "name": "tokenId",
          "type": "uint256"
        },
        {
          "indexed": false,
          "internalType": "address",
          "name": "reviewer",
          "type": "address"
        },
        {
          "indexed": false,
          "internalType": "address",
          "name": "reviewee",
          "type": "address"
        }
      ],
      "name": "FeedbackTokenIssued",
      "type": "event"
    },
    {
      "anonymous": false,
      "inputs": [
        {
          "indexed": true,
          "internalType": "uint32",
          "name": "jobId",
          "type": "uint32"
        }
      ],
      "name": "JobCancelled",
      "type": "event"
    },
    {
      "anonymous": false,
      "inputs": [
        {
          "indexed": true,
          "internalType": "uint32",
          "name": "jobId",
          "type": "uint32"
        }
      ],
      "name": "JobCompleted",
      "type": "event"
    },
    {
      "anonymous": false,
      "inputs": [
        {
          "indexed": true,
          "internalType": "uint32",
          "name": "jobId",
          "type": "uint32"
        }
      ],
      "name": "JobCreated",
      "type": "event"
    },
    {
      "anonymous": false,
      "inputs": [
        {
          "indexed": true,
          "internalType": "uint32",
          "name": "serviceId",
          "type": "uint32"
        },
        {
          "indexed": false,
          "internalType": "bytes32",
          "name": "metadataCid",
          "type": "bytes32"
        }
      ],
      "name": "ServiceListed",
      "type": "event"
    },
    {
      "anonymous": false,
      "inputs": [
        {
          "indexed": true,
          "internalType": "address",
          "name": "user",
          "type": "address"
        },
        {
          "indexed": false,
          "internalType": "uint256",
          "name": "amount",
          "type": "uint256"
        }
      ],
      "name": "StakeDeposited",
      "type": "event"
    },
    {
      "anonymous": false,
      "inputs": [
        {
          "indexed": true,
          "internalType": "uint32",
          "name": "jobId",
          "type": "uint32"
        }
      ],
      "name": "WorkCleared",
      "type": "event"
    },
    {
      "anonymous": false,
      "inputs": [
        {
          "indexed": true,
          "internalType": "uint32",
          "name": "jobId",
          "type": "uint32"
        },
        {
          "indexed": false,
          "internalType": "bytes32",
          "name": "workCid",
          "type": "bytes32"
        }
      ],
      "name": "WorkSubmitted",
      "type": "event"
    },
    {
      "inputs": [],
      "name": "DISCOUNT_RATIO_BPS",
      "outputs": [
        {
          "internalType": "uint16",
          "name": "",
          "type": "uint16"
        }
      ],
      "stateMutability": "view",
      "type": "function"
    },
    {
      "inputs": [],
      "name": "DISCOUNT_VALIDITY_PERIOD",
      "outputs": [
        {
          "internalType": "uint256",
          "name": "",
          "type": "uint256"
        }
      ],
      "stateMutability": "view",
      "type": "function"
    },
    {
      "inputs": [],
      "name": "MIN_STAKE",
      "outputs": [
        {
          "internalType": "uint256",
          "name": "",
          "type": "uint256"
        }
      ],
      "stateMutability": "view",
      "type": "function"
    },
    {
      "inputs": [
        {
          "internalType": "uint32",
          "name": "jobId",
          "type": "uint32"
        }
      ],
      "name": "autoRelease",
      "outputs": [],
      "stateMutability": "nonpayable",
      "type": "function"
    },
    {
      "inputs": [
        {
          "internalType": "uint32",
          "name": "jobId",
          "type": "uint32"
        }
      ],
      "name": "cancelJob",
      "outputs": [],
      "stateMutability": "nonpayable",
      "type": "function"
    },
    {
      "inputs": [
        {
          "internalType": "uint32",
          "name": "jobId",
          "type": "uint32"
        }
      ],
      "name": "clearWork",
      "outputs": [],
      "stateMutability": "nonpayable",
      "type": "function"
    },
    {
      "inputs": [
        {
          "internalType": "address",
          "name": "",
          "type": "address"
        }
      ],
      "name": "clientRep",
      "outputs": [
        {
          "internalType": "uint256",
          "name": "weightedScoreSum",
          "type": "uint256"
        },
        {
          "internalType": "uint256",
          "name": "weightSum",
          "type": "uint256"
        },
        {
          "internalType": "uint128",
          "name": "totalJobs",
          "type": "uint128"
        }
      ],
      "stateMutability": "view",
      "type": "function"
    },
    {
      "inputs": [
        {
          "internalType": "uint256",
          "name": "",
          "type": "uint256"
        },
        {
          "internalType": "address",
          "name": "",
          "type": "address"
        }
      ],
      "name": "commits",
      "outputs": [
        {
          "internalType": "bytes32",
          "name": "hash",
          "type": "bytes32"
        },
        {
          "internalType": "bool",
          "name": "revealed",
          "type": "bool"
        }
      ],
      "stateMutability": "view",
      "type": "function"
    },
    {
      "inputs": [
        {
          "internalType": "uint32",
          "name": "jobId",
          "type": "uint32"
        }
      ],
      "name": "confirmCompletion",
      "outputs": [],
      "stateMutability": "nonpayable",
      "type": "function"
    },
    {
      "inputs": [],
      "name": "depositStake",
      "outputs": [],
      "stateMutability": "payable",
      "type": "function"
    },
    {
      "inputs": [],
      "name": "discountTokenCount",
      "outputs": [
        {
          "internalType": "uint256",
          "name": "",
          "type": "uint256"
        }
      ],
      "stateMutability": "view",
      "type": "function"
    },
    {
      "inputs": [
        {
          "internalType": "uint256",
          "name": "",
          "type": "uint256"
        }
      ],
      "name": "discountTokens",
      "outputs": [
        {
          "internalType": "address",
          "name": "reviewer",
          "type": "address"
        },
        {
          "internalType": "uint32",
          "name": "jobId",
          "type": "uint32"
        },
        {
          "internalType": "bool",
          "name": "redeemed",
          "type": "bool"
        },
        {
          "internalType": "uint128",
          "name": "discountWei",
          "type": "uint128"
        },
        {
          "internalType": "uint64",
          "name": "expiry",
          "type": "uint64"
        },
        {
          "internalType": "uint64",
          "name": "feedbackTokenId",
          "type": "uint64"
        }
      ],
      "stateMutability": "view",
      "type": "function"
    },
    {
      "inputs": [
        {
          "internalType": "uint32",
          "name": "jobId",
          "type": "uint32"
        }
      ],
      "name": "finalizeReview",
      "outputs": [],
      "stateMutability": "nonpayable",
      "type": "function"
    },
    {
      "inputs": [
        {
          "internalType": "address",
          "name": "",
          "type": "address"
        }
      ],
      "name": "freelancerRep",
      "outputs": [
        {
          "internalType": "uint256",
          "name": "weightedScoreSum",
          "type": "uint256"
        },
        {
          "internalType": "uint256",
          "name": "weightSum",
          "type": "uint256"
        },
        {
          "internalType": "uint128",
          "name": "totalJobs",
          "type": "uint128"
        }
      ],
      "stateMutability": "view",
      "type": "function"
    },
    {
      "inputs": [
        {
          "internalType": "address",
          "name": "client",
          "type": "address"
        }
      ],
      "name": "getClientReputation",
      "outputs": [
        {
          "internalType": "uint256",
          "name": "avgScoreScaled",
          "type": "uint256"
        },
        {
          "internalType": "uint256",
          "name": "totalWeight",
          "type": "uint256"
        },
        {
          "internalType": "uint128",
          "name": "totalJobs",
          "type": "uint128"
        }
      ],
      "stateMutability": "view",
      "type": "function"
    },
    {
      "inputs": [
        {
          "internalType": "uint256",
          "name": "discountId",
          "type": "uint256"
        }
      ],
      "name": "getDiscountToken",
      "outputs": [
        {
          "components": [
            {
              "internalType": "address",
              "name": "reviewer",
              "type": "address"
            },
            {
              "internalType": "uint32",
              "name": "jobId",
              "type": "uint32"
            },
            {
              "internalType": "bool",
              "name": "redeemed",
              "type": "bool"
            },
            {
              "internalType": "uint128",
              "name": "discountWei",
              "type": "uint128"
            },
            {
              "internalType": "uint64",
              "name": "expiry",
              "type": "uint64"
            },
            {
              "internalType": "uint64",
              "name": "feedbackTokenId",
              "type": "uint64"
            }
          ],
          "internalType": "struct FreelanceEscrow.DiscountToken",
          "name": "",
          "type": "tuple"
        }
      ],
      "stateMutability": "view",
      "type": "function"
    },
    {
      "inputs": [
        {
          "internalType": "address",
          "name": "freelancer",
          "type": "address"
        }
      ],
      "name": "getFreelancerReputation",
      "outputs": [
        {
          "internalType": "uint256",
          "name": "avgScoreScaled",
          "type": "uint256"
        },
        {
          "internalType": "uint256",
          "name": "totalWeight",
          "type": "uint256"
        },
        {
          "internalType": "uint128",
          "name": "totalJobs",
          "type": "uint128"
        }
      ],
      "stateMutability": "view",
      "type": "function"
    },
    {
      "inputs": [
        {
          "internalType": "uint32",
          "name": "id",
          "type": "uint32"
        }
      ],
      "name": "getJob",
      "outputs": [
        {
          "components": [
            {
              "internalType": "address payable",
              "name": "client",
              "type": "address"
            },
            {
              "internalType": "uint32",
              "name": "serviceId",
              "type": "uint32"
            },
            {
              "internalType": "enum FreelanceEscrow.JobStatus",
              "name": "status",
              "type": "uint8"
            },
            {
              "internalType": "uint128",
              "name": "amount",
              "type": "uint128"
            },
            {
              "internalType": "uint64",
              "name": "deadline",
              "type": "uint64"
            },
            {
              "internalType": "uint64",
              "name": "submittedAt",
              "type": "uint64"
            },
            {
              "internalType": "uint128",
              "name": "cancellationFeeWei",
              "type": "uint128"
            },
            {
              "internalType": "bytes32",
              "name": "workCid",
              "type": "bytes32"
            },
            {
              "internalType": "bytes32",
              "name": "jobDescription",
              "type": "bytes32"
            }
          ],
          "internalType": "struct FreelanceEscrow.Job",
          "name": "",
          "type": "tuple"
        }
      ],
      "stateMutability": "view",
      "type": "function"
    },
    {
      "inputs": [
        {
          "internalType": "uint32",
          "name": "jobId",
          "type": "uint32"
        }
      ],
      "name": "getJobTokens",
      "outputs": [
        {
          "internalType": "uint256",
          "name": "clientToken",
          "type": "uint256"
        },
        {
          "internalType": "uint256",
          "name": "freelancerToken",
          "type": "uint256"
        }
      ],
      "stateMutability": "view",
      "type": "function"
    },
    {
      "inputs": [
        {
          "internalType": "address",
          "name": "reviewer",
          "type": "address"
        }
      ],
      "name": "getReviewerDiscounts",
      "outputs": [
        {
          "internalType": "uint256[]",
          "name": "",
          "type": "uint256[]"
        }
      ],
      "stateMutability": "view",
      "type": "function"
    },
    {
      "inputs": [
        {
          "internalType": "uint32",
          "name": "id",
          "type": "uint32"
        }
      ],
      "name": "getService",
      "outputs": [
        {
          "components": [
            {
              "internalType": "address payable",
              "name": "freelancer",
              "type": "address"
            },
            {
              "internalType": "enum FreelanceEscrow.ServiceStatus",
              "name": "status",
              "type": "uint8"
            },
            {
              "internalType": "uint88",
              "name": "priceWei",
              "type": "uint88"
            },
            {
              "internalType": "bytes32",
              "name": "metadataCid",
              "type": "bytes32"
            }
          ],
          "internalType": "struct FreelanceEscrow.Service",
          "name": "",
          "type": "tuple"
        }
      ],
      "stateMutability": "view",
      "type": "function"
    },
    {
      "inputs": [
        {
          "internalType": "uint32",
          "name": "serviceId",
          "type": "uint32"
        },
        {
          "internalType": "uint64",
          "name": "deadline",
          "type": "uint64"
        },
        {
          "internalType": "bytes32",
          "name": "jobDescription",
          "type": "bytes32"
        },
        {
          "internalType": "uint128",
          "name": "cancellationFeeWei",
          "type": "uint128"
        }
      ],
      "name": "hireFreelancer",
      "outputs": [],
      "stateMutability": "payable",
      "type": "function"
    },
    {
      "inputs": [],
      "name": "jobCount",
      "outputs": [
        {
          "internalType": "uint32",
          "name": "",
          "type": "uint32"
        }
      ],
      "stateMutability": "view",
      "type": "function"
    },
    {
      "inputs": [
        {
          "internalType": "uint256",
          "name": "",
          "type": "uint256"
        },
        {
          "internalType": "uint256",
          "name": "",
          "type": "uint256"
        }
      ],
      "name": "jobTokens",
      "outputs": [
        {
          "internalType": "uint256",
          "name": "",
          "type": "uint256"
        }
      ],
      "stateMutability": "view",
      "type": "function"
    },
    {
      "inputs": [
        {
          "internalType": "uint32",
          "name": "",
          "type": "uint32"
        }
      ],
      "name": "jobs",
      "outputs": [
        {
          "internalType": "address payable",
          "name": "client",
          "type": "address"
        },
        {
          "internalType": "uint32",
          "name": "serviceId",
          "type": "uint32"
        },
        {
          "internalType": "enum FreelanceEscrow.JobStatus",
          "name": "status",
          "type": "uint8"
        },
        {
          "internalType": "uint128",
          "name": "amount",
          "type": "uint128"
        },
        {
          "internalType": "uint64",
          "name": "deadline",
          "type": "uint64"
        },
        {
          "internalType": "uint64",
          "name": "submittedAt",
          "type": "uint64"
        },
        {
          "internalType": "uint128",
          "name": "cancellationFeeWei",
          "type": "uint128"
        },
        {
          "internalType": "bytes32",
          "name": "workCid",
          "type": "bytes32"
        },
        {
          "internalType": "bytes32",
          "name": "jobDescription",
          "type": "bytes32"
        }
      ],
      "stateMutability": "view",
      "type": "function"
    },
    {
      "inputs": [
        {
          "internalType": "uint88",
          "name": "priceWei",
          "type": "uint88"
        },
        {
          "internalType": "bytes32",
          "name": "metadataCid",
          "type": "bytes32"
        }
      ],
      "name": "offerService",
      "outputs": [],
      "stateMutability": "nonpayable",
      "type": "function"
    },
    {
      "inputs": [
        {
          "internalType": "address",
          "name": "",
          "type": "address"
        },
        {
          "internalType": "uint256",
          "name": "",
          "type": "uint256"
        }
      ],
      "name": "reviewerDiscounts",
      "outputs": [
        {
          "internalType": "uint256",
          "name": "",
          "type": "uint256"
        }
      ],
      "stateMutability": "view",
      "type": "function"
    },
    {
      "inputs": [],
      "name": "serviceCount",
      "outputs": [
        {
          "internalType": "uint32",
          "name": "",
          "type": "uint32"
        }
      ],
      "stateMutability": "view",
      "type": "function"
    },
    {
      "inputs": [
        {
          "internalType": "uint32",
          "name": "",
          "type": "uint32"
        }
      ],
      "name": "services",
      "outputs": [
        {
          "internalType": "address payable",
          "name": "freelancer",
          "type": "address"
        },
        {
          "internalType": "enum FreelanceEscrow.ServiceStatus",
          "name": "status",
          "type": "uint8"
        },
        {
          "internalType": "uint88",
          "name": "priceWei",
          "type": "uint88"
        },
        {
          "internalType": "bytes32",
          "name": "metadataCid",
          "type": "bytes32"
        }
      ],
      "stateMutability": "view",
      "type": "function"
    },
    {
      "inputs": [
        {
          "internalType": "address",
          "name": "",
          "type": "address"
        }
      ],
      "name": "stakes",
      "outputs": [
        {
          "internalType": "uint256",
          "name": "",
          "type": "uint256"
        }
      ],
      "stateMutability": "view",
      "type": "function"
    },
    {
      "inputs": [
        {
          "internalType": "uint256",
          "name": "tokenId",
          "type": "uint256"
        },
        {
          "internalType": "uint8",
          "name": "score",
          "type": "uint8"
        }
      ],
      "name": "submitFeedback",
      "outputs": [],
      "stateMutability": "nonpayable",
      "type": "function"
    },
    {
      "inputs": [
        {
          "internalType": "uint32",
          "name": "jobId",
          "type": "uint32"
        },
        {
          "internalType": "bytes32",
          "name": "workCid",
          "type": "bytes32"
        }
      ],
      "name": "submitWork",
      "outputs": [],
      "stateMutability": "nonpayable",
      "type": "function"
    },
    {
      "inputs": [],
      "name": "tokenCount",
      "outputs": [
        {
          "internalType": "uint256",
          "name": "",
          "type": "uint256"
        }
      ],
      "stateMutability": "view",
      "type": "function"
    },
    {
      "inputs": [
        {
          "internalType": "uint256",
          "name": "",
          "type": "uint256"
        }
      ],
      "name": "tokens",
      "outputs": [
        {
          "internalType": "uint32",
          "name": "jobId",
          "type": "uint32"
        },
        {
          "internalType": "address",
          "name": "reviewer",
          "type": "address"
        },
        {
          "internalType": "address",
          "name": "reviewee",
          "type": "address"
        },
        {
          "internalType": "bool",
          "name": "used",
          "type": "bool"
        },
        {
          "internalType": "bool",
          "name": "applied",
          "type": "bool"
        },
        {
          "internalType": "uint64",
          "name": "reviewedAt",
          "type": "uint64"
        },
        {
          "internalType": "uint8",
          "name": "score",
          "type": "uint8"
        },
        {
          "internalType": "uint256",
          "name": "expiry",
          "type": "uint256"
        }
      ],
      "stateMutability": "view",
      "type": "function"
    },
    {
      "inputs": [
        {
          "internalType": "uint256",
          "name": "discountId",
          "type": "uint256"
        }
      ],
      "name": "useDiscountToken",
      "outputs": [],
      "stateMutability": "nonpayable",
      "type": "function"
    }
  ],
  "bytecode": "0x6080604052348015600f57600080fd5b506001602a6020603560201b60201c565b606060201b60201c565b60000181905550606a565b60007f9b779b17422d0df92223018b32b4d1fa46e071723d6817e2486d003becc55f0060001b905090565b6000819050919050565b6154f9806100796000396000f3fe6080604052600436106102045760003560e01c8063885d68a811610118578063c0fdb0e9116100a0578063deb8e12a1161006f578063deb8e12a14610803578063e21e6da01461082c578063e4d223af14610869578063fba0471a14610894578063fbdf715b146108d257610204565b8063c0fdb0e91461071f578063c3300fd61461075e578063c60f3e391461079b578063cb1c2b5c146107d857610204565b80639f181b5e116100e75780639f181b5e1461060c578063a1935a1914610637578063a85f502914610674578063b703a853146106b9578063be77efdb146106e257610204565b8063885d68a81461053a5780638eb533ef14610578578063980d871d146105a15780639ddabac9146105ca57610204565b80632a84f72f1161019b5780636040b14d1161016a5780636040b14d146104645780636554c6d51461048d5780636b2bb0c3146104a95780637e44eb1d146104e6578063860463051461050f57610204565b80632a84f72f146103a15780634c5d8a0f146103ca5780634f64b2be146103f55780634fdbd0071461043957610204565b80631efb3ba4116101d75780631efb3ba4146102ba578063211997ac146102f95780632373512414610338578063247ed1aa1461036157610204565b806304199ee71461020957806306237526146102485780630d2d76a21461027357806316934fc41461027d575b600080fd5b34801561021557600080fd5b50610230600480360381019061022b919061454d565b6108fb565b60405161023f939291906145be565b60405180910390f35b34801561025457600080fd5b5061025d610a01565b60405161026a9190614614565b60405180910390f35b61027b610a15565b005b34801561028957600080fd5b506102a4600480360381019061029f919061454d565b610afc565b6040516102b1919061462f565b60405180910390f35b3480156102c657600080fd5b506102e160048036038101906102dc919061454d565b610b14565b6040516102f0939291906145be565b60405180910390f35b34801561030557600080fd5b50610320600480360381019061031b919061454d565b610c1a565b60405161032f939291906145be565b60405180910390f35b34801561034457600080fd5b5061035f600480360381019061035a9190614676565b610c60565b005b34801561036d57600080fd5b5061038860048036038101906103839190614676565b610d28565b604051610398949392919061477a565b60405180910390f35b3480156103ad57600080fd5b506103c860048036038101906103c39190614824565b610d9c565b005b3480156103d657600080fd5b506103df611070565b6040516103ec9190614614565b60405180910390f35b34801561040157600080fd5b5061041c60048036038101906104179190614864565b611086565b6040516104309897969594939291906148ed565b60405180910390f35b34801561044557600080fd5b5061044e611159565b60405161045b9190614988565b60405180910390f35b34801561047057600080fd5b5061048b60048036038101906104869190614676565b61115f565b005b6104a760048036038101906104a29190614a27565b6112f4565b005b3480156104b557600080fd5b506104d060048036038101906104cb9190614a8e565b6118fd565b6040516104dd919061462f565b60405180910390f35b3480156104f257600080fd5b5061050d60048036038101906105089190614864565b611925565b005b34801561051b57600080fd5b50610524611acf565b604051610531919061462f565b60405180910390f35b34801561054657600080fd5b50610561600480360381019061055c9190614ace565b611ad6565b60405161056f929190614b0e565b60405180910390f35b34801561058457600080fd5b5061059f600480360381019061059a9190614676565b611b14565b005b3480156105ad57600080fd5b506105c860048036038101906105c39190614b63565b611f73565b005b3480156105d657600080fd5b506105f160048036038101906105ec9190614864565b6121a6565b60405161060396959493929190614ba3565b60405180910390f35b34801561061857600080fd5b50610621612263565b60405161062e919061462f565b60405180910390f35b34801561064357600080fd5b5061065e60048036038101906106599190614c04565b612269565b60405161066b919061462f565b60405180910390f35b34801561068057600080fd5b5061069b60048036038101906106969190614676565b61229a565b6040516106b099989796959493929190614c8c565b60405180910390f35b3480156106c557600080fd5b506106e060048036038101906106db9190614676565b612385565b005b3480156106ee57600080fd5b506107096004803603810190610704919061454d565b6125fa565b6040516107169190614dd7565b60405180910390f35b34801561072b57600080fd5b506107466004803603810190610741919061454d565b612691565b604051610755939291906145be565b60405180910390f35b34801561076a57600080fd5b5061078560048036038101906107809190614864565b6126d7565b6040516107929190614ebf565b60405180910390f35b3480156107a757600080fd5b506107c260048036038101906107bd9190614676565b612849565b6040516107cf9190614f6b565b60405180910390f35b3480156107e457600080fd5b506107ed612958565b6040516107fa919061462f565b60405180910390f35b34801561080f57600080fd5b5061082a60048036038101906108259190614f86565b612963565b005b34801561083857600080fd5b50610853600480360381019061084e9190614676565b612b96565b604051610860919061508c565b60405180910390f35b34801561087557600080fd5b5061087e612d93565b60405161088b919061462f565b60405180910390f35b3480156108a057600080fd5b506108bb60048036038101906108b69190614676565b612d99565b6040516108c99291906150a8565b60405180910390f35b3480156108de57600080fd5b506108f960048036038101906108f49190614676565b612e01565b005b600080600080600560008673ffffffffffffffffffffffffffffffffffffffff1673ffffffffffffffffffffffffffffffffffffffff16815260200190815260200160002060405180606001604052908160008201548152602001600182015481526020016002820160009054906101000a90046fffffffffffffffffffffffffffffffff166fffffffffffffffffffffffffffffffff166fffffffffffffffffffffffffffffffff1681525050905060008160200151036109c8576000806000935093509350506109fa565b8060200151606482600001516109de9190615100565b6109e89190615171565b81602001518260400151935093509350505b9193909250565b60008054906101000a900463ffffffff1681565b66b1a2bc2ec50000341015610a56576040517ff1bc94d200000000000000000000000000000000000000000000000000000000815260040160405180910390fd5b34600a60003373ffffffffffffffffffffffffffffffffffffffff1673ffffffffffffffffffffffffffffffffffffffff1681526020019081526020016000206000828254610aa591906151a2565b925050819055503373ffffffffffffffffffffffffffffffffffffffff167f0a7bb2e28cc4698aac06db79cf9163bfcc20719286cf59fa7d492ceda1b8edc234604051610af2919061462f565b60405180910390a2565b600a6020528060005260406000206000915090505481565b600080600080600660008673ffffffffffffffffffffffffffffffffffffffff1673ffffffffffffffffffffffffffffffffffffffff16815260200190815260200160002060405180606001604052908160008201548152602001600182015481526020016002820160009054906101000a90046fffffffffffffffffffffffffffffffff166fffffffffffffffffffffffffffffffff166fffffffffffffffffffffffffffffffff168152505090506000816020015103610be157600080600093509350935050610c13565b806020015160648260000151610bf79190615100565b610c019190615171565b81602001518260400151935093509350505b9193909250565b60066020528060005260406000206000915090508060000154908060010154908060020160009054906101000a90046fffffffffffffffffffffffffffffffff16905083565b6000600860008363ffffffff168152602001908152602001600020905060006007600083600060028110610c9757610c966151d6565b5b0154815260200190815260200160002090508060020154421015610ce7576040517ffe2495d500000000000000000000000000000000000000000000000000000000815260040160405180910390fd5b610d0582600060028110610cfe57610cfd6151d6565b5b0154613096565b610d2382600160028110610d1c57610d1b6151d6565b5b0154613096565b505050565b60036020528060005260406000206000915090508060000160009054906101000a900473ffffffffffffffffffffffffffffffffffffffff16908060000160149054906101000a900460ff16908060000160159054906101000a90046affffffffffffffffffffff16908060010154905084565b60006007600084815260200190815260200160002090508060000160049054906101000a900473ffffffffffffffffffffffffffffffffffffffff1673ffffffffffffffffffffffffffffffffffffffff163373ffffffffffffffffffffffffffffffffffffffff1614610e3c576040517f6fb5ffbc00000000000000000000000000000000000000000000000000000000815260040160405180910390fd5b8060010160149054906101000a900460ff1615610e85576040517f7f59bede00000000000000000000000000000000000000000000000000000000815260040160405180910390fd5b60018260ff161080610e9a575060058260ff16115b15610ed1576040517f1556136500000000000000000000000000000000000000000000000000000000815260040160405180910390fd5b610eda336136e8565b8181600101601e6101000a81548160ff021916908360ff16021790555060018160010160146101000a81548160ff021916908315150217905550428160010160166101000a81548167ffffffffffffffff021916908367ffffffffffffffff160217905550610f488361376b565b3373ffffffffffffffffffffffffffffffffffffffff167f3494da8299378c89270f3c8834caa828238425ae6ec329b573eb123c948e9d7d8260000160009054906101000a900463ffffffff16604051610fa29190615240565b60405180910390a26000600860008360000160009054906101000a900463ffffffff1663ffffffff168152602001908152602001600020905060008482600060028110610ff257610ff16151d6565b5b015414611014578160006002811061100d5761100c6151d6565b5b015461102b565b81600160028110611028576110276151d6565b5b01545b90506007600082815260200190815260200160002060010160149054906101000a900460ff16156110695761105f85613096565b61106881613096565b5b5050505050565b600060049054906101000a900463ffffffff1681565b60076020528060005260406000206000915090508060000160009054906101000a900463ffffffff16908060000160049054906101000a900473ffffffffffffffffffffffffffffffffffffffff16908060010160009054906101000a900473ffffffffffffffffffffffffffffffffffffffff16908060010160149054906101000a900460ff16908060010160159054906101000a900460ff16908060010160169054906101000a900467ffffffffffffffff169080600101601e9054906101000a900460ff16908060020154905088565b6101f481565b6000600460008363ffffffff1663ffffffff16815260200190815260200160002090506000600360008360000160149054906101000a900463ffffffff1663ffffffff1663ffffffff16815260200190815260200160002090508060000160009054906101000a900473ffffffffffffffffffffffffffffffffffffffff1673ffffffffffffffffffffffffffffffffffffffff163373ffffffffffffffffffffffffffffffffffffffff1614611242576040517f6b7809b900000000000000000000000000000000000000000000000000000000815260040160405180910390fd5b600380811115611255576112546146c4565b5b8260000160189054906101000a900460ff166003811115611279576112786146c4565b5b146112b0576040517f1f3b5f9300000000000000000000000000000000000000000000000000000000815260040160405180910390fd5b6000801b82600301819055508263ffffffff167f4dd9e91265ab49336afbb9eab0fdc5b4a36e65a6cdd5e19a93ab44565d6ebfc960405160405180910390a2505050565b6112fc613bc8565b6000600360008663ffffffff1663ffffffff1681526020019081526020016000209050600073ffffffffffffffffffffffffffffffffffffffff168160000160009054906101000a900473ffffffffffffffffffffffffffffffffffffffff1673ffffffffffffffffffffffffffffffffffffffff16036113a9576040517f8957d2fa00000000000000000000000000000000000000000000000000000000815260040160405180910390fd5b600060038111156113bd576113bc6146c4565b5b8160000160149054906101000a900460ff1660038111156113e1576113e06146c4565b5b14611418576040517f5857de5800000000000000000000000000000000000000000000000000000000815260040160405180910390fd5b8060000160159054906101000a90046affffffffffffffffffffff166affffffffffffffffffffff163414611479576040517fd183fe4300000000000000000000000000000000000000000000000000000000815260040160405180910390fd5b8060000160009054906101000a900473ffffffffffffffffffffffffffffffffffffffff1673ffffffffffffffffffffffffffffffffffffffff163373ffffffffffffffffffffffffffffffffffffffff1603611502576040517f3377569700000000000000000000000000000000000000000000000000000000815260040160405180910390fd5b620151804261151191906151a2565b8467ffffffffffffffff161015611554576040517f96a18df400000000000000000000000000000000000000000000000000000000815260040160405180910390fd5b6301e133804261156491906151a2565b8467ffffffffffffffff1611156115a7576040517f48f0fae600000000000000000000000000000000000000000000000000000000815260040160405180910390fd5b34826fffffffffffffffffffffffffffffffff1611156115f3576040517fec1be0eb00000000000000000000000000000000000000000000000000000000815260040160405180910390fd5b600080600481819054906101000a900463ffffffff166116129061525b565b91906101000a81548163ffffffff021916908363ffffffff160217905590506040518061012001604052803373ffffffffffffffffffffffffffffffffffffffff1681526020018763ffffffff16815260200160006003811115611679576116786146c4565b5b8152602001346fffffffffffffffffffffffffffffffff1681526020018667ffffffffffffffff168152602001600067ffffffffffffffff168152602001846fffffffffffffffffffffffffffffffff1681526020016000801b815260200185815250600460008363ffffffff1663ffffffff16815260200190815260200160002060008201518160000160006101000a81548173ffffffffffffffffffffffffffffffffffffffff021916908373ffffffffffffffffffffffffffffffffffffffff16021790555060208201518160000160146101000a81548163ffffffff021916908363ffffffff16021790555060408201518160000160186101000a81548160ff02191690836003811115611794576117936146c4565b5b021790555060608201518160010160006101000a8154816fffffffffffffffffffffffffffffffff02191690836fffffffffffffffffffffffffffffffff16021790555060808201518160010160106101000a81548167ffffffffffffffff021916908367ffffffffffffffff16021790555060a08201518160010160186101000a81548167ffffffffffffffff021916908367ffffffffffffffff16021790555060c08201518160020160006101000a8154816fffffffffffffffffffffffffffffffff02191690836fffffffffffffffffffffffffffffffff16021790555060e08201518160030155610100820151816004015590505060018260000160146101000a81548160ff021916908360038111156118b5576118b46146c4565b5b02179055508063ffffffff167f9a6364067673fbbe84fe5265fd47f18424db0db1cf0bc6f4989ef6a17d92dc0560405160405180910390a250506118f7613beb565b50505050565b6008602052816000526040600020816002811061191957600080fd5b01600091509150505481565b6000600b600083815260200190815260200160002090508060000160189054906101000a900460ff1615611985576040517feac79a1a00000000000000000000000000000000000000000000000000000000815260040160405180910390fd5b8060010160109054906101000a900467ffffffffffffffff1667ffffffffffffffff164211156119e1576040517f2f60e30f00000000000000000000000000000000000000000000000000000000815260040160405180910390fd5b8060000160009054906101000a900473ffffffffffffffffffffffffffffffffffffffff1673ffffffffffffffffffffffffffffffffffffffff163373ffffffffffffffffffffffffffffffffffffffff1614611a6a576040517fca434c1d00000000000000000000000000000000000000000000000000000000815260040160405180910390fd5b60018160000160186101000a81548160ff0219169083151502179055503373ffffffffffffffffffffffffffffffffffffffff16827fd9ba3bc2612b8ce4adc272b5cf15e4c2bf8da34c8e9f63f6d6a1ef7a9a3ce87f60405160405180910390a35050565b62278d0081565b6009602052816000526040600020602052806000526040600020600091509150508060000154908060010160009054906101000a900460ff16905082565b611b1c613bc8565b6000600460008363ffffffff1663ffffffff16815260200190815260200160002090506000600360008360000160149054906101000a900463ffffffff1663ffffffff1663ffffffff168152602001908152602001600020905060006003811115611b8a57611b896146c4565b5b8260000160189054906101000a900460ff166003811115611bae57611bad6146c4565b5b14158015611bf2575060016003811115611bcb57611bca6146c4565b5b8260000160189054906101000a900460ff166003811115611bef57611bee6146c4565b5b14155b15611c29576040517f71c8f46000000000000000000000000000000000000000000000000000000000815260040160405180910390fd5b60008260010160109054906101000a900467ffffffffffffffff1667ffffffffffffffff164211905060008360000160009054906101000a900473ffffffffffffffffffffffffffffffffffffffff1673ffffffffffffffffffffffffffffffffffffffff163373ffffffffffffffffffffffffffffffffffffffff1614905060016003811115611cbd57611cbc6146c4565b5b8460000160189054906101000a900460ff166003811115611ce157611ce06146c4565b5b03611d2e5780158015611cf2575081155b15611d29576040517fb29ba3b900000000000000000000000000000000000000000000000000000000815260040160405180910390fd5b611dce565b80158015611d8c57508260000160009054906101000a900473ffffffffffffffffffffffffffffffffffffffff1673ffffffffffffffffffffffffffffffffffffffff163373ffffffffffffffffffffffffffffffffffffffff1614155b8015611d96575081155b15611dcd576040517f3d693ada00000000000000000000000000000000000000000000000000000000815260040160405180910390fd5b5b60008460000160009054906101000a900473ffffffffffffffffffffffffffffffffffffffff16905060008460000160009054906101000a900473ffffffffffffffffffffffffffffffffffffffff16905060008660010160009054906101000a90046fffffffffffffffffffffffffffffffff166fffffffffffffffffffffffffffffffff169050600084611e65576000611e99565b8760020160009054906101000a90046fffffffffffffffffffffffffffffffff166fffffffffffffffffffffffffffffffff165b905060038860000160186101000a81548160ff02191690836003811115611ec357611ec26146c4565b5b021790555060038760000160146101000a81548160ff02191690836003811115611ef057611eef6146c4565b5b02179055508863ffffffff167fa6a2eb5c45aee3821a738c1beb0dade684d1189539bab9d4f634c00de2449e7a60405160405180910390a26000811115611f5557611f3b8382613c06565b611f50848284611f4b9190615287565b613c06565b611f60565b611f5f8483613c06565b5b5050505050505050611f70613beb565b50565b6000826affffffffffffffffffffff1603611fba576040517f1d25a35500000000000000000000000000000000000000000000000000000000815260040160405180910390fd5b6000801b8103611ff6576040517f835103a300000000000000000000000000000000000000000000000000000000815260040160405180910390fd5b600080600081819054906101000a900463ffffffff166120159061525b565b91906101000a81548163ffffffff021916908363ffffffff1602179055905060405180608001604052803373ffffffffffffffffffffffffffffffffffffffff1681526020016000600381111561206f5761206e6146c4565b5b8152602001846affffffffffffffffffffff16815260200183815250600360008363ffffffff1663ffffffff16815260200190815260200160002060008201518160000160006101000a81548173ffffffffffffffffffffffffffffffffffffffff021916908373ffffffffffffffffffffffffffffffffffffffff16021790555060208201518160000160146101000a81548160ff0219169083600381111561211c5761211b6146c4565b5b021790555060408201518160000160156101000a8154816affffffffffffffffffffff02191690836affffffffffffffffffffff160217905550606082015181600101559050508063ffffffff167f7845f789baa17703c3db3bf849155053cc12b41ec3717601321581d0420b4d7f8360405161219991906152bb565b60405180910390a2505050565b600b6020528060005260406000206000915090508060000160009054906101000a900473ffffffffffffffffffffffffffffffffffffffff16908060000160149054906101000a900463ffffffff16908060000160189054906101000a900460ff16908060010160009054906101000a90046fffffffffffffffffffffffffffffffff16908060010160109054906101000a900467ffffffffffffffff16908060010160189054906101000a900467ffffffffffffffff16905086565b60015481565b600c602052816000526040600020818154811061228557600080fd5b90600052602060002001600091509150505481565b60046020528060005260406000206000915090508060000160009054906101000a900473ffffffffffffffffffffffffffffffffffffffff16908060000160149054906101000a900463ffffffff16908060000160189054906101000a900460ff16908060010160009054906101000a90046fffffffffffffffffffffffffffffffff16908060010160109054906101000a900467ffffffffffffffff16908060010160189054906101000a900467ffffffffffffffff16908060020160009054906101000a90046fffffffffffffffffffffffffffffffff16908060030154908060040154905089565b61238d613bc8565b6000600460008363ffffffff1663ffffffff16815260200190815260200160002090506000600360008360000160149054906101000a900463ffffffff1663ffffffff1663ffffffff1681526020019081526020016000209050600160038111156123fb576123fa6146c4565b5b8260000160189054906101000a900460ff16600381111561241f5761241e6146c4565b5b14612456576040517f448ad72300000000000000000000000000000000000000000000000000000000815260040160405180910390fd5b6203f4808260010160189054906101000a900467ffffffffffffffff1661247d91906152d6565b67ffffffffffffffff1642116124bf576040517f6362f00c00000000000000000000000000000000000000000000000000000000815260040160405180910390fd5b60008160000160009054906101000a900473ffffffffffffffffffffffffffffffffffffffff16905060008360000160009054906101000a900473ffffffffffffffffffffffffffffffffffffffff16905060008460010160009054906101000a90046fffffffffffffffffffffffffffffffff166fffffffffffffffffffffffffffffffff16905060028560000160186101000a81548160ff021916908360038111156125705761256f6146c4565b5b021790555060028460000160146101000a81548160ff0219169083600381111561259d5761259c6146c4565b5b02179055506125ad868385613cae565b8563ffffffff167f735ac8e4dde3032ae26b362ee588a0417b5b9546dd4840d3a5c7b9d74bf4193a60405160405180910390a26125ea8382613c06565b50505050506125f7613beb565b50565b6060600c60008373ffffffffffffffffffffffffffffffffffffffff1673ffffffffffffffffffffffffffffffffffffffff16815260200190815260200160002080548060200260200160405190810160405280929190818152602001828054801561268557602002820191906000526020600020905b815481526020019060010190808311612671575b50505050509050919050565b60056020528060005260406000206000915090508060000154908060010154908060020160009054906101000a90046fffffffffffffffffffffffffffffffff16905083565b6126df614358565b600b60008381526020019081526020016000206040518060c00160405290816000820160009054906101000a900473ffffffffffffffffffffffffffffffffffffffff1673ffffffffffffffffffffffffffffffffffffffff1673ffffffffffffffffffffffffffffffffffffffff1681526020016000820160149054906101000a900463ffffffff1663ffffffff1663ffffffff1681526020016000820160189054906101000a900460ff161515151581526020016001820160009054906101000a90046fffffffffffffffffffffffffffffffff166fffffffffffffffffffffffffffffffff166fffffffffffffffffffffffffffffffff1681526020016001820160109054906101000a900467ffffffffffffffff1667ffffffffffffffff1667ffffffffffffffff1681526020016001820160189054906101000a900467ffffffffffffffff1667ffffffffffffffff1667ffffffffffffffff16815250509050919050565b6128516143d2565b600360008363ffffffff1663ffffffff1681526020019081526020016000206040518060800160405290816000820160009054906101000a900473ffffffffffffffffffffffffffffffffffffffff1673ffffffffffffffffffffffffffffffffffffffff1673ffffffffffffffffffffffffffffffffffffffff1681526020016000820160149054906101000a900460ff1660038111156128f6576128f56146c4565b5b6003811115612908576129076146c4565b5b81526020016000820160159054906101000a90046affffffffffffffffffffff166affffffffffffffffffffff166affffffffffffffffffffff1681526020016001820154815250509050919050565b66b1a2bc2ec5000081565b6000600460008463ffffffff1663ffffffff16815260200190815260200160002090506000600360008360000160149054906101000a900463ffffffff1663ffffffff1663ffffffff16815260200190815260200160002090508060000160009054906101000a900473ffffffffffffffffffffffffffffffffffffffff1673ffffffffffffffffffffffffffffffffffffffff163373ffffffffffffffffffffffffffffffffffffffff1614612a46576040517f6b7809b900000000000000000000000000000000000000000000000000000000815260040160405180910390fd5b60006003811115612a5a57612a596146c4565b5b8260000160189054906101000a900460ff166003811115612a7e57612a7d6146c4565b5b14612ab5576040517f1a99ec7c00000000000000000000000000000000000000000000000000000000815260040160405180910390fd5b6000801b8303612af1576040517f7cf64fe300000000000000000000000000000000000000000000000000000000815260040160405180910390fd5b60018260000160186101000a81548160ff02191690836003811115612b1957612b186146c4565b5b0217905550428260010160186101000a81548167ffffffffffffffff021916908367ffffffffffffffff1602179055508282600301819055508363ffffffff167fb9f9fff2a594bbac9c2407f11e62b2f80303f566b013f015eb5a77d1b5bb454084604051612b8891906152bb565b60405180910390a250505050565b612b9e614432565b600460008363ffffffff1663ffffffff168152602001908152602001600020604051806101200160405290816000820160009054906101000a900473ffffffffffffffffffffffffffffffffffffffff1673ffffffffffffffffffffffffffffffffffffffff1673ffffffffffffffffffffffffffffffffffffffff1681526020016000820160149054906101000a900463ffffffff1663ffffffff1663ffffffff1681526020016000820160189054906101000a900460ff166003811115612c6a57612c696146c4565b5b6003811115612c7c57612c7b6146c4565b5b81526020016001820160009054906101000a90046fffffffffffffffffffffffffffffffff166fffffffffffffffffffffffffffffffff166fffffffffffffffffffffffffffffffff1681526020016001820160109054906101000a900467ffffffffffffffff1667ffffffffffffffff1667ffffffffffffffff1681526020016001820160189054906101000a900467ffffffffffffffff1667ffffffffffffffff1667ffffffffffffffff1681526020016002820160009054906101000a90046fffffffffffffffffffffffffffffffff166fffffffffffffffffffffffffffffffff166fffffffffffffffffffffffffffffffff168152602001600382015481526020016004820154815250509050919050565b60025481565b600080600860008463ffffffff168152602001908152602001600020600060028110612dc857612dc76151d6565b5b0154600860008563ffffffff168152602001908152602001600020600160028110612df657612df56151d6565b5b015491509150915091565b612e09613bc8565b6000600460008363ffffffff1663ffffffff16815260200190815260200160002090506000600360008360000160149054906101000a900463ffffffff1663ffffffff1663ffffffff16815260200190815260200160002090508160000160009054906101000a900473ffffffffffffffffffffffffffffffffffffffff1673ffffffffffffffffffffffffffffffffffffffff163373ffffffffffffffffffffffffffffffffffffffff1614612eec576040517fd6d90f8900000000000000000000000000000000000000000000000000000000815260040160405180910390fd5b60016003811115612f0057612eff6146c4565b5b8260000160189054906101000a900460ff166003811115612f2457612f236146c4565b5b14612f5b576040517f18d5a0ce00000000000000000000000000000000000000000000000000000000815260040160405180910390fd5b60008160000160009054906101000a900473ffffffffffffffffffffffffffffffffffffffff16905060008360000160009054906101000a900473ffffffffffffffffffffffffffffffffffffffff16905060008460010160009054906101000a90046fffffffffffffffffffffffffffffffff166fffffffffffffffffffffffffffffffff16905060028560000160186101000a81548160ff0219169083600381111561300c5761300b6146c4565b5b021790555060028460000160146101000a81548160ff02191690836003811115613039576130386146c4565b5b0217905550613049868385613cae565b8563ffffffff167f735ac8e4dde3032ae26b362ee588a0417b5b9546dd4840d3a5c7b9d74bf4193a60405160405180910390a26130868382613c06565b5050505050613093613beb565b50565b60006007600083815260200190815260200160002090508060010160149054906101000a900460ff1615806130d957508060010160159054906101000a900460ff165b156130e457506136e5565b6000600460008360000160009054906101000a900463ffffffff1663ffffffff1663ffffffff16815260200190815260200160002090506000600360008360000160149054906101000a900463ffffffff1663ffffffff1663ffffffff168152602001908152602001600020905060018360010160156101000a81548160ff02191690831515021790555060006131e38360010160009054906101000a90046fffffffffffffffffffffffffffffffff166fffffffffffffffffffffffffffffffff168460010160189054906101000a900467ffffffffffffffff168660010160169054906101000a900467ffffffffffffffff1687600201546141ab565b90508160000160009054906101000a900473ffffffffffffffffffffffffffffffffffffffff1673ffffffffffffffffffffffffffffffffffffffff168460010160009054906101000a900473ffffffffffffffffffffffffffffffffffffffff1673ffffffffffffffffffffffffffffffffffffffff1603613442578084600101601e9054906101000a900460ff1660ff166132809190615100565b600560008660010160009054906101000a900473ffffffffffffffffffffffffffffffffffffffff1673ffffffffffffffffffffffffffffffffffffffff1673ffffffffffffffffffffffffffffffffffffffff16815260200190815260200160002060000160008282546132f591906151a2565b9250508190555080600560008660010160009054906101000a900473ffffffffffffffffffffffffffffffffffffffff1673ffffffffffffffffffffffffffffffffffffffff1673ffffffffffffffffffffffffffffffffffffffff168152602001908152602001600020600101600082825461337291906151a2565b92505081905550600560008560010160009054906101000a900473ffffffffffffffffffffffffffffffffffffffff1673ffffffffffffffffffffffffffffffffffffffff1673ffffffffffffffffffffffffffffffffffffffff168152602001908152602001600020600201600081819054906101000a90046fffffffffffffffffffffffffffffffff1661340790615312565b91906101000a8154816fffffffffffffffffffffffffffffffff02191690836fffffffffffffffffffffffffffffffff160217905550613620565b8084600101601e9054906101000a900460ff1660ff166134629190615100565b600660008660010160009054906101000a900473ffffffffffffffffffffffffffffffffffffffff1673ffffffffffffffffffffffffffffffffffffffff1673ffffffffffffffffffffffffffffffffffffffff16815260200190815260200160002060000160008282546134d791906151a2565b9250508190555080600660008660010160009054906101000a900473ffffffffffffffffffffffffffffffffffffffff1673ffffffffffffffffffffffffffffffffffffffff1673ffffffffffffffffffffffffffffffffffffffff168152602001908152602001600020600101600082825461355491906151a2565b92505081905550600660008560010160009054906101000a900473ffffffffffffffffffffffffffffffffffffffff1673ffffffffffffffffffffffffffffffffffffffff1673ffffffffffffffffffffffffffffffffffffffff168152602001908152602001600020600201600081819054906101000a90046fffffffffffffffffffffffffffffffff166135e990615312565b91906101000a8154816fffffffffffffffffffffffffffffffff02191690836fffffffffffffffffffffffffffffffff1602179055505b8360010160009054906101000a900473ffffffffffffffffffffffffffffffffffffffff1673ffffffffffffffffffffffffffffffffffffffff168460000160049054906101000a900473ffffffffffffffffffffffffffffffffffffffff1673ffffffffffffffffffffffffffffffffffffffff167f846e7c60f8a40d0939121c546970f0fe070f449b6f35538cac9aeec2d8d88b2e86600101601e9054906101000a900460ff16846040516136d892919061537b565b60405180910390a3505050505b50565b66b1a2bc2ec50000600a60008373ffffffffffffffffffffffffffffffffffffffff1673ffffffffffffffffffffffffffffffffffffffff168152602001908152602001600020541015613768576040517ff1bc94d200000000000000000000000000000000000000000000000000000000815260040160405180910390fd5b50565b60006007600083815260200190815260200160002090506000600460008360000160009054906101000a900463ffffffff1663ffffffff1663ffffffff1681526020019081526020016000209050600061382d8260010160009054906101000a90046fffffffffffffffffffffffffffffffff166fffffffffffffffffffffffffffffffff168360010160189054906101000a900467ffffffffffffffff168560010160169054906101000a900467ffffffffffffffff1686600201546141ab565b905060006127106101f461ffff16838560010160009054906101000a90046fffffffffffffffffffffffffffffffff166fffffffffffffffffffffffffffffffff166138799190615100565b6138839190615100565b61388d9190615171565b905060026000815461389e906153a4565b9190508190555060006002549050600062278d00426138bd91906151a2565b90506040518060c001604052808760000160049054906101000a900473ffffffffffffffffffffffffffffffffffffffff1673ffffffffffffffffffffffffffffffffffffffff1681526020018760000160009054906101000a900463ffffffff1663ffffffff168152602001600015158152602001846fffffffffffffffffffffffffffffffff1681526020018267ffffffffffffffff1681526020018867ffffffffffffffff16815250600b600084815260200190815260200160002060008201518160000160006101000a81548173ffffffffffffffffffffffffffffffffffffffff021916908373ffffffffffffffffffffffffffffffffffffffff16021790555060208201518160000160146101000a81548163ffffffff021916908363ffffffff16021790555060408201518160000160186101000a81548160ff02191690831515021790555060608201518160010160006101000a8154816fffffffffffffffffffffffffffffffff02191690836fffffffffffffffffffffffffffffffff16021790555060808201518160010160106101000a81548167ffffffffffffffff021916908367ffffffffffffffff16021790555060a08201518160010160186101000a81548167ffffffffffffffff021916908367ffffffffffffffff160217905550905050600c60008760000160049054906101000a900473ffffffffffffffffffffffffffffffffffffffff1673ffffffffffffffffffffffffffffffffffffffff1673ffffffffffffffffffffffffffffffffffffffff1681526020019081526020016000208290806001815401808255809150506001900390600052602060002001600090919091909150558560000160049054906101000a900473ffffffffffffffffffffffffffffffffffffffff1673ffffffffffffffffffffffffffffffffffffffff16827fc1b4f42c113428258e01f1eb796f68868c22cb2b55b721e8015a1515af5317f48860000160009054906101000a900463ffffffff168685604051613bb79392919061541d565b60405180910390a350505050505050565b613bd06142c4565b6002613be2613bdd614305565b614330565b60000181905550565b6001613bfd613bf8614305565b614330565b60000181905550565b60008273ffffffffffffffffffffffffffffffffffffffff1682604051613c2c90615485565b60006040518083038185875af1925050503d8060008114613c69576040519150601f19603f3d011682016040523d82523d6000602084013e613c6e565b606091505b5050905080613ca9576040517f90b8ec1800000000000000000000000000000000000000000000000000000000815260040160405180910390fd5b505050565b600160008154613cbd906153a4565b919050819055506040518061010001604052808463ffffffff1681526020018373ffffffffffffffffffffffffffffffffffffffff1681526020018273ffffffffffffffffffffffffffffffffffffffff168152602001600015158152602001600015158152602001600067ffffffffffffffff168152602001600060ff16815260200162093a8042613d5091906151a2565b81525060076000600154815260200190815260200160002060008201518160000160006101000a81548163ffffffff021916908363ffffffff16021790555060208201518160000160046101000a81548173ffffffffffffffffffffffffffffffffffffffff021916908373ffffffffffffffffffffffffffffffffffffffff16021790555060408201518160010160006101000a81548173ffffffffffffffffffffffffffffffffffffffff021916908373ffffffffffffffffffffffffffffffffffffffff16021790555060608201518160010160146101000a81548160ff02191690831515021790555060808201518160010160156101000a81548160ff02191690831515021790555060a08201518160010160166101000a81548167ffffffffffffffff021916908367ffffffffffffffff16021790555060c082015181600101601e6101000a81548160ff021916908360ff16021790555060e08201518160020155905050600154600860008563ffffffff168152602001908152602001600020600060028110613ee957613ee86151d6565b5b01819055506001547f988de847d31b0fe942aa43da2017020c82213a2bc10f17f436d97d39d2c68f7e8383604051613f2292919061549a565b60405180910390a2600160008154613f39906153a4565b919050819055506040518061010001604052808463ffffffff1681526020018273ffffffffffffffffffffffffffffffffffffffff1681526020018373ffffffffffffffffffffffffffffffffffffffff168152602001600015158152602001600015158152602001600067ffffffffffffffff168152602001600060ff16815260200162093a8042613fcc91906151a2565b81525060076000600154815260200190815260200160002060008201518160000160006101000a81548163ffffffff021916908363ffffffff16021790555060208201518160000160046101000a81548173ffffffffffffffffffffffffffffffffffffffff021916908373ffffffffffffffffffffffffffffffffffffffff16021790555060408201518160010160006101000a81548173ffffffffffffffffffffffffffffffffffffffff021916908373ffffffffffffffffffffffffffffffffffffffff16021790555060608201518160010160146101000a81548160ff02191690831515021790555060808201518160010160156101000a81548160ff02191690831515021790555060a08201518160010160166101000a81548167ffffffffffffffff021916908367ffffffffffffffff16021790555060c082015181600101601e6101000a81548160ff021916908360ff16021790555060e08201518160020155905050600154600860008563ffffffff168152602001908152602001600020600160028110614165576141646151d6565b5b01819055506001547f988de847d31b0fe942aa43da2017020c82213a2bc10f17f436d97d39d2c68f7e828460405161419e92919061549a565b60405180910390a2505050565b600080620151808567ffffffffffffffff168567ffffffffffffffff166141d29190615287565b6141dc9190615171565b90506000606482106141ef5760016141fd565b8160646141fc9190615287565b5b9050600062093a80856142109190615287565b90506000818767ffffffffffffffff161161422c576000614251565b62015180828867ffffffffffffffff166142469190615287565b6142509190615171565b5b9050600060078210614264576001614272565b8160076142719190615287565b5b9050600066038d7ea4c680008b10156142925766038d7ea4c68000614294565b8a5b905066038d7ea4c6800081836142aa9190615100565b6142b49190615171565b9650505050505050949350505050565b6142cc61433a565b15614303576040517f3ee5aeb500000000000000000000000000000000000000000000000000000000815260040160405180910390fd5b565b60007f9b779b17422d0df92223018b32b4d1fa46e071723d6817e2486d003becc55f0060001b905090565b6000819050919050565b6000600261434e614349614305565b614330565b6000015414905090565b6040518060c00160405280600073ffffffffffffffffffffffffffffffffffffffff168152602001600063ffffffff16815260200160001515815260200160006fffffffffffffffffffffffffffffffff168152602001600067ffffffffffffffff168152602001600067ffffffffffffffff1681525090565b6040518060800160405280600073ffffffffffffffffffffffffffffffffffffffff1681526020016000600381111561440e5761440d6146c4565b5b815260200160006affffffffffffffffffffff168152602001600080191681525090565b604051806101200160405280600073ffffffffffffffffffffffffffffffffffffffff168152602001600063ffffffff1681526020016000600381111561447c5761447b6146c4565b5b815260200160006fffffffffffffffffffffffffffffffff168152602001600067ffffffffffffffff168152602001600067ffffffffffffffff16815260200160006fffffffffffffffffffffffffffffffff16815260200160008019168152602001600080191681525090565b600080fd5b600073ffffffffffffffffffffffffffffffffffffffff82169050919050565b600061451a826144ef565b9050919050565b61452a8161450f565b811461453557600080fd5b50565b60008135905061454781614521565b92915050565b600060208284031215614563576145626144ea565b5b600061457184828501614538565b91505092915050565b6000819050919050565b61458d8161457a565b82525050565b60006fffffffffffffffffffffffffffffffff82169050919050565b6145b881614593565b82525050565b60006060820190506145d36000830186614584565b6145e06020830185614584565b6145ed60408301846145af565b949350505050565b600063ffffffff82169050919050565b61460e816145f5565b82525050565b60006020820190506146296000830184614605565b92915050565b60006020820190506146446000830184614584565b92915050565b614653816145f5565b811461465e57600080fd5b50565b6000813590506146708161464a565b92915050565b60006020828403121561468c5761468b6144ea565b5b600061469a84828501614661565b91505092915050565b60006146ae826144ef565b9050919050565b6146be816146a3565b82525050565b7f4e487b7100000000000000000000000000000000000000000000000000000000600052602160045260246000fd5b60048110614704576147036146c4565b5b50565b6000819050614715826146f3565b919050565b600061472582614707565b9050919050565b6147358161471a565b82525050565b60006affffffffffffffffffffff82169050919050565b61475b8161473b565b82525050565b6000819050919050565b61477481614761565b82525050565b600060808201905061478f60008301876146b5565b61479c602083018661472c565b6147a96040830185614752565b6147b6606083018461476b565b95945050505050565b6147c88161457a565b81146147d357600080fd5b50565b6000813590506147e5816147bf565b92915050565b600060ff82169050919050565b614801816147eb565b811461480c57600080fd5b50565b60008135905061481e816147f8565b92915050565b6000806040838503121561483b5761483a6144ea565b5b6000614849858286016147d6565b925050602061485a8582860161480f565b9150509250929050565b60006020828403121561487a576148796144ea565b5b6000614888848285016147d6565b91505092915050565b61489a8161450f565b82525050565b60008115159050919050565b6148b5816148a0565b82525050565b600067ffffffffffffffff82169050919050565b6148d8816148bb565b82525050565b6148e7816147eb565b82525050565b600061010082019050614903600083018b614605565b614910602083018a614891565b61491d6040830189614891565b61492a60608301886148ac565b61493760808301876148ac565b61494460a08301866148cf565b61495160c08301856148de565b61495e60e0830184614584565b9998505050505050505050565b600061ffff82169050919050565b6149828161496b565b82525050565b600060208201905061499d6000830184614979565b92915050565b6149ac816148bb565b81146149b757600080fd5b50565b6000813590506149c9816149a3565b92915050565b6149d881614761565b81146149e357600080fd5b50565b6000813590506149f5816149cf565b92915050565b614a0481614593565b8114614a0f57600080fd5b50565b600081359050614a21816149fb565b92915050565b60008060008060808587031215614a4157614a406144ea565b5b6000614a4f87828801614661565b9450506020614a60878288016149ba565b9350506040614a71878288016149e6565b9250506060614a8287828801614a12565b91505092959194509250565b60008060408385031215614aa557614aa46144ea565b5b6000614ab3858286016147d6565b9250506020614ac4858286016147d6565b9150509250929050565b60008060408385031215614ae557614ae46144ea565b5b6000614af3858286016147d6565b9250506020614b0485828601614538565b9150509250929050565b6000604082019050614b23600083018561476b565b614b3060208301846148ac565b9392505050565b614b408161473b565b8114614b4b57600080fd5b50565b600081359050614b5d81614b37565b92915050565b60008060408385031215614b7a57614b796144ea565b5b6000614b8885828601614b4e565b9250506020614b99858286016149e6565b9150509250929050565b600060c082019050614bb86000830189614891565b614bc56020830188614605565b614bd260408301876148ac565b614bdf60608301866145af565b614bec60808301856148cf565b614bf960a08301846148cf565b979650505050505050565b60008060408385031215614c1b57614c1a6144ea565b5b6000614c2985828601614538565b9250506020614c3a858286016147d6565b9150509250929050565b60048110614c5557614c546146c4565b5b50565b6000819050614c6682614c44565b919050565b6000614c7682614c58565b9050919050565b614c8681614c6b565b82525050565b600061012082019050614ca2600083018c6146b5565b614caf602083018b614605565b614cbc604083018a614c7d565b614cc960608301896145af565b614cd660808301886148cf565b614ce360a08301876148cf565b614cf060c08301866145af565b614cfd60e083018561476b565b614d0b61010083018461476b565b9a9950505050505050505050565b600081519050919050565b600082825260208201905092915050565b6000819050602082019050919050565b614d4e8161457a565b82525050565b6000614d608383614d45565b60208301905092915050565b6000602082019050919050565b6000614d8482614d19565b614d8e8185614d24565b9350614d9983614d35565b8060005b83811015614dca578151614db18882614d54565b9750614dbc83614d6c565b925050600181019050614d9d565b5085935050505092915050565b60006020820190508181036000830152614df18184614d79565b905092915050565b614e028161450f565b82525050565b614e11816145f5565b82525050565b614e20816148a0565b82525050565b614e2f81614593565b82525050565b614e3e816148bb565b82525050565b60c082016000820151614e5a6000850182614df9565b506020820151614e6d6020850182614e08565b506040820151614e806040850182614e17565b506060820151614e936060850182614e26565b506080820151614ea66080850182614e35565b5060a0820151614eb960a0850182614e35565b50505050565b600060c082019050614ed46000830184614e44565b92915050565b614ee3816146a3565b82525050565b614ef28161471a565b82525050565b614f018161473b565b82525050565b614f1081614761565b82525050565b608082016000820151614f2c6000850182614eda565b506020820151614f3f6020850182614ee9565b506040820151614f526040850182614ef8565b506060820151614f656060850182614f07565b50505050565b6000608082019050614f806000830184614f16565b92915050565b60008060408385031215614f9d57614f9c6144ea565b5b6000614fab85828601614661565b9250506020614fbc858286016149e6565b9150509250929050565b614fcf81614c6b565b82525050565b61012082016000820151614fec6000850182614eda565b506020820151614fff6020850182614e08565b5060408201516150126040850182614fc6565b5060608201516150256060850182614e26565b5060808201516150386080850182614e35565b5060a082015161504b60a0850182614e35565b5060c082015161505e60c0850182614e26565b5060e082015161507160e0850182614f07565b50610100820151615086610100850182614f07565b50505050565b6000610120820190506150a26000830184614fd5565b92915050565b60006040820190506150bd6000830185614584565b6150ca6020830184614584565b9392505050565b7f4e487b7100000000000000000000000000000000000000000000000000000000600052601160045260246000fd5b600061510b8261457a565b91506151168361457a565b92508282026151248161457a565b9150828204841483151761513b5761513a6150d1565b5b5092915050565b7f4e487b7100000000000000000000000000000000000000000000000000000000600052601260045260246000fd5b600061517c8261457a565b91506151878361457a565b92508261519757615196615142565b5b828204905092915050565b60006151ad8261457a565b91506151b88361457a565b92508282019050808211156151d0576151cf6150d1565b5b92915050565b7f4e487b7100000000000000000000000000000000000000000000000000000000600052603260045260246000fd5b6000819050919050565b600061522a615225615220846145f5565b615205565b61457a565b9050919050565b61523a8161520f565b82525050565b60006020820190506152556000830184615231565b92915050565b6000615266826145f5565b915063ffffffff820361527c5761527b6150d1565b5b600182019050919050565b60006152928261457a565b915061529d8361457a565b92508282039050818111156152b5576152b46150d1565b5b92915050565b60006020820190506152d0600083018461476b565b92915050565b60006152e1826148bb565b91506152ec836148bb565b9250828201905067ffffffffffffffff81111561530c5761530b6150d1565b5b92915050565b600061531d82614593565b91506fffffffffffffffffffffffffffffffff820361533f5761533e6150d1565b5b600182019050919050565b600061536561536061535b846147eb565b615205565b61457a565b9050919050565b6153758161534a565b82525050565b6000604082019050615390600083018561536c565b61539d6020830184614584565b9392505050565b60006153af8261457a565b91507fffffffffffffffffffffffffffffffffffffffffffffffffffffffffffffffff82036153e1576153e06150d1565b5b600182019050919050565b60006154076154026153fd846148bb565b615205565b61457a565b9050919050565b615417816153ec565b82525050565b60006060820190506154326000830186614605565b61543f6020830185614584565b61544c604083018461540e565b949350505050565b600081905092915050565b50565b600061546f600083615454565b915061547a8261545f565b600082019050919050565b600061549082615462565b9150819050919050565b60006040820190506154af6000830185614891565b6154bc6020830184614891565b939250505056fea2646970667358221220f193ca6df5a298dd34e91b27f775d334013cd792c429cff4f9bba7d369fd732464736f6c634300081c0033",
  "linkReferences": {},
  "deployedLinkReferences": {}
}